:020000040000FA
:060000000200FC021F14C7
:03002B000226F0BA
:030033000226D6CC
:03005300021F8AFF
:03006B000226BCAE
:10008300021E77E5C754F84401F5C7790122000041
:100093000080FB120086B900030200E6E4791278BF
:1000A30008B800028004F709D8FCE490028178368E
:1000B30079088002F0A3D8FCD9FA9009B6AA82ABDA
:1000C3008390012C78FC79038015E493A3AC82AD73
:1000D300838A828B83F0A3AA82AB838C828D83D89D
:1000E300E9D9E775824D7583A4740312010E7582F5
:1000F30091758300740012010E75D00075813F75F0
:100103001081751102759F00020096C09FF59FE450
:1001130073D09F22D083D082C09FE493C0E0740148
:1001230093C0E0740293F59F22FF0000007800283B
:10013300002800283075A000A000A000A00000083F
:100143000008E001F0001000100010001000100083
:10015300100050005000500010001000D0070000A5
:10016300000000000F0030750700100001000000C0
:10017300FF1F063D062506FF02020A0A025000A0E1
:10018300000000E803022C830100001C8302568355
:10019300010000050A022483010000B00202568315
:1001A300010000060A025483010000C502025683BF
:1001B300010000070A024C83030000C702025683B2
:1001C300010000080A023483030000C802025683B8
:1001D300010000090A0232830100000A0AFF01003C
:1001E300FF20022C830100001983025683010000C3
:1001F3006E0A02228300000000000226830300002F
:100203001503750D750D750D750D750D750D750D45
:10021300750D750D750D750D750D750D51106910F5
:100223004B10FFFF020202020202020202010D0052
:1002330000001001022C830100001F83025683017A
:100243000000B10A0242830100005F0702568301E6
:100253000000B20A024083010000D88102568301E4
:100263000000B30A023E83010000BC8102568301F1
:100273000000B40A023C830100002E810256830170
:100283000000B50A023A83010000E68002568301AA
:100293000000B60A0238830100000A810256830176
:1002A3000000B70A0236830100001C810256830155
:1002B3000000B80A024E83010000AE81025683019A
:1002C3000000B90A025C83010000BA0A01E80305D1
:1002D3003F10FF000130750302010600000000001B
:1002E300000000000000000000000000000000000B
:1002F30000000000000000FFFF06001000E80316E6
:100303000953696D706C6520424C452050657269D4
:1003130070686572616C05123C003C00020A0002C1
:1003230001060302F0FF53696D706C6520424C4572
:10033300205065726970686572616C0B3715000037
:1003430043150A4368617261637465726973746902
:10035300632031000243686172616374657269737B
:100363007469632032000843686172616374657263
:100373006973746963203300104368617261637445
:100383006572697374696320340002436861726142
:10039300637465726973746963203500022C830189
:1003A30000001683025683010000CF0B025A830319
:1003B30000009D09022883010000D00B025683012F
:1003C3000000E10B024A830100009E090228830119
:1003D3000000E20B025683010000F30B0246830286
:1003E30000009F09022883010000F40B02568301D9
:1003F3000000050C025083000000A00902268303BD
:100403000000A109022883010000060C02568301A3
:100413000000170C025283040000A709022883017D
:100423000000180C1201173A950312011751950396
:10043300120117809503120117B99503120117E1F1
:1004430095031201170F9603120117269603120143
:10045300173D96031201175396031201177A960359
:100463001201178D9603120117A39603120117B6F3
:100473009603120117DB96031201172F8B02120149
:1004830017308C02120117658C02120117868C0239
:10049300120117968C02120117B78C02120117BFB3
:1004A3008D02120117858E02120117398F02120174
:1004B30017BB8F02120117BE8F02120117F58F02AD
:1004C3001201171D9002120117FD90021201175E0F
:1004D3009102120117CB91021201174592021201E8
:1004E300174892021201174B9202120117F592025A
:1004F3001201170D930212011737930212011760AD
:100503009302120117389402120117F59402120193
:100513001790E002120117B8E002120117E6E00299
:100523001201171DE10212011785E102120117CE14
:10053300E1021201171EE2021201175CE20212012C
:100543001799E202120117C7E20212011756E302DA
:1005530012011760E3021201176DE302120117A0E3
:10056300E3021201176CE40212011778E40212018C
:100573001790E4021201179AE4021201177FA003F5
:100583001201178DA003120117A5A003120117BDB5
:10059300A003120117B1A20112011753A301120103
:1005A30017CBA301120117E9A4011201170CA5012E
:1005B300120117ABA50112011782A601120117BB85
:1005C300A7011201175FA801120117D1A801120197
:1005D30017D4A90112011723AA0112011747AA016F
:1005E3001201176EAC01120117B2AC01120117D43C
:1005F300AC0112011722AD0112011724AE01120141
:100603001711AF0112011728D002120117FAD002F5
:10061300120117C3D10212011700D2021201178D62
:10062300D20212011719D302120117F0D3021201D9
:10063300171FD402120117E0D4021201171FD502AB
:10064300120117ABD502120117EFD50212011715CC
:10065300D60212011760A303120117E4F10212017B
:1006630017FAF10212011720F2021201173BF302EB
:1006730012011745F30212011790F40212011790A9
:10068300F5021201175CE50212011754E60212018A
:100693001780E60212011732E80212011742930192
:1006A300120117A59301120117E59401120117F521
:1006B3009401120117189501120117639501120194
:1006C300170A96011201171E9701120117F29701DB
:1006D3001201176699011201179F99011201174020
:1006E3009A011201178D9A01120117B39A0112018F
:1006F30017869C011201178B9C01120117729E0130
:10070300120117B99E01120117289F0112011750F8
:100713009F01120117EF9F01120117B1A0011201EE
:1007230017E2A001120117E5A0011201172DA10183
:100733001201176FA101120117DCA101120117DCCD
:100743008C03120117EF8C03120117088D0312019A
:10075300174D8D03120117268E03120117CB8E033B
:10076300120117188F031201170427001201171023
:1007730027001201174927001201178B27001201C6
:1007830017422800120117C428001201171A290062
:100793001201174429001201177D2900120117B510
:1007A3002B001201179C2D001201176F2F0012014D
:1007B30017A33000120117FA320012011708340090
:1007C30012011753350012011778360012011795DD
:1007D3003600120117CD3600120117E73600120159
:1007E300175D3700120117623C00120117053D0027
:1007F300120117653D001201178C3D00120117DD30
:100803003D00120117FB3D00120117593E00120172
:1008130017303F00120117AC40001201172E4100A0
:10082300120117159F021201171F9F02120117D9F8
:100833009F0212011711A0021201173EA00212011A
:10084300179DA002120117C3A00212011716A102DD
:1008530012011752A1021201177AA102120117AC59
:10086300A202120117D7A20212011711A302120149
:100873001751A30212011775A302120117BFA30296
:10088300120117F9A3021201173BA4021201176EFA
:10089300A40212011799A402120117F4A40212016F
:1008A300172DA502120117A6A502120117E5A5022D
:1008B30012011724A6021201176BA6021201179543
:1008C300A602120117D2A602120117FCA6021201F8
:1008D300172DA7021201176CA7021201179FA70277
:1008E300120117E8A70212011731A8021201175BC0
:1008F300A8021201170BEE0212011749EE021201B0
:1009030017ACEE0212011768EF0212011749F00249
:1009130012011777F00212011764F102120117BDD9
:10092300CE01120117D6CE011201170ED00112010A
:1009330017F7D00112011716D101120117D7D101F0
:100943001201171DD301120117FBD30112011775F1
:10095300D70112011702D801120117C6D8011201DB
:1009630017B6D90112011722DB01120117B8DB01F7
:1009730012011733DC011201179AF502120117C78E
:10098300F5021201172BF60212011736F6021201B5
:100993001741F6021201174CF6021201177EF602F6
:1009A30012011750F702120117CDF7021201175D5A
:1009B300F80212011766F80212011786F8021201F3
:1009C3001795F802120117ADF802120117B6F802D3
:1009D300120117CDF802120117EEF802120117F7F0
:1009E300F80212011703F9021201170CF90212019E
:1009F300171CF90212011726F90212011730F90226
:100A030012011740F902120117599D03120117C26F
:100A13009D03120117169E031201173D9E03120137
:100A230017BDE9021201172AEA021201176CEA0242
:100A330012011761EB0212011764EC021201174E47
:100A4300ED021201172EB10212011770B102120149
:100A53001759B20212011739B30212011734B40243
:100A630012011714B50212011780B5021201173EC5
:100A7300B602120117AEB60212011715B702120120
:100A83001740B702120117A6B7021201174EB80298
:100A9300120117BFB802120117D8B8021201171CAE
:100AA300B90212011735B90212011794B9021201E2
:100AB3001797B902120117EEFC0212011716FD0275
:100AC30012011754FD0212011701FE0212011775DC
:100AD300FE0212011791FE02120117B9FE02120162
:100AE30017E9FE02120117F8FE021201176CFF024A
:100AF30012011792FF021201178F6A001201179950
:100B03006B00120117EC6C00120117A96D001201A2
:100B130017F06D001201171F6E001201173D6E00D2
:100B23001201177F6E00120117956E00120117E173
:100B33006E00120117166F001201173F6F001201AA
:100B430017A76F001201170C7000120117CD730065
:100B5300120117D27400120117377500120117B969
:100B63007500120117697700120117B87700120197
:100B730017FD7800120117507900120117D7790079
:100B8300120117267A001201174D7A001201171766
:100B93007B00120117367B001201176B7B001201D9
:100BA30017D27B001201175D7C00120117A17C0094
:100BB300120117C37C00120117CD7D00120117FA31
:100BC3007D00120117587E00120117BBB9021201F2
:100BD30017DDB90212011753BF02120117EFBF024B
:100BE30012011760C102120117E8C102120117773F
:100BF3005600120117C15600120117EE56001201DA
:100C0300172157001201172E57001201173A5700E8
:100C13001201174C57001201170658001201174210
:100C23005800120117675800120117A25800120149
:100C3300179E5A001201175E5B00120117CC5B006E
:100C4300120117645C001201171F5D00120117AF38
:100C53005D00120117735E00120117825E0012011C
:100C630017EE5E001201178F5F00120117BD5F00C0
:100C7300120117586000120117B16000120117DA50
:100C830060001201178C61001201173F620012010C
:100C930017DE62001201174A6300120117A06300F6
:100CA300120117F863001201171B6400120117D316
:100CB30064001201171466001201175D6600120129
:100CC300177A6600120117996600120117F0660081
:100CD3001201171D6700120117926700120117CD49
:100CE3006700120117D56800120117686900120125
:100CF300172A6A00120117616A0012011760950230
:100D0300120117B19502120117BD95021201179B2B
:100D13009602120117C19602120117F196021201EF
:100D2300175D97021201178F9702120117C89702D6
:100D3300120117E097021201173598021201174E9C
:100D43009802120117979802120117AA980212012A
:100D530017C49802120117DA9802120117E29902D6
:100D6300120117279B02120117519C021201173A15
:100D73009D02120117FDFF0112011717EA0112016B
:100D83001761EA0112011760ED01120117C1EE01AB
:100D930012011796EF011201171BF101120117F04F
:100DA300F1011201172AF2011201174DF20112018A
:100DB3001788F20112011791F201120117D4F201FF
:100DC300120117DEF2011201178DF30112011769E7
:100DD300F401120117C9F40112011723F5011201DD
:100DE3001766F50112011795F501120117E9F501CF
:100DF3001201176383011201171F8A0112011725BC
:100E03008A011201175F8F01120117A792011201C4
:100E1300171187031201178787031201179D870391
:100E23001201172688031201176B8803120117A6F4
:100E33008803120117F688031201176D8903120143
:100E43001776890312011782890312011795890303
:100E5300120117BA8903120117D08903120117333C
:100E63008A031201178AD60212011797D6021201BA
:100E730017B1D602120117F0D6021201172ED702AC
:100E830012011793D702120117A8D702120117B341
:100E9300D702120117C0D702120117D7D7021201C6
:100EA30017E5D702120117F0D702120117FCD70278
:100EB3001201170BD80212011716D80212011739A3
:100EC300D802120117E5D802120117F5D802120150
:100ED3001714D90212011731D90212011742D9028C
:100EE3001201175ED9021201176CD902120117768B
:100EF300D9021201178AD902120117ABD9021201C2
:100F0300170CDA0212011712DA0212011718DA02A9
:100F13001201171EDA0212011724DA021201174B0B
:100F2300DA0212011786DA02120117A0DA0212019D
:100F330017EBDA021201171EDB021201174DC00173
:100F4300120117CFC0011201178BC1011201171D26
:100F5300C30112011773C50112011746C60112011D
:100F6300177BC601120117B9C60112011729C70160
:100F7300120117E6C8011201170FC9011201179BCD
:100F8300C901120117CDC901120117DAC9011201F2
:100F93001725CA011201174BCA0112011717CD01F8
:100FA30012011714CE0112011770CE011201179806
:100FB300B101120117C3B201120117B2B301120139
:100FC30017BCB301120117DEB301120117EAB30113
:100FD30012011783B501120117B0B501120117C928
:100FE300B60112011724B70112011790B8011201BB
:100FF300176AB901120117D2B9011201173ABA01DE
:101003001201176FBA01120117B2BA011201176860
:10101300BD0112011780BD0112011715BE01120196
:101023001723BE0112011770BE011201177EBE0104
:10103300120117E9BE011201175ABF01120117B1BC
:10104300BF01120117008002120117228002120150
:10105300173382021201170885021201172786022D
:10106300120117E58602120117DB8702120117ED41
:1010730096031201171297031201178097031201A7
:10108300170AC20212011713C2021201171CC2026D
:10109300120117FEC202120117B3C402120117E7AD
:1010A300C40212011716C5021201174AC502120122
:1010B3001779C502120117ADC502120117D9C5026E
:1010C3001201171CC6021201174BC6021201179216
:1010D300C602120117E8C6021201171BC70212014A
:1010E300176BC7021201179AC702120117E9C70249
:1010F3001201172CC8021201175BC8021201178CC8
:10110300C802120117C2C802120117809303120109
:10111300170E9503120117229503120117C0F6014A
:10112300120117CEF60112011710F7011201175B16
:10113300F70112011795F701120117EFF7011201D9
:101143001712F80112011757FB0112011765FB0172
:10115300120117BAFB01120117ECFB01120117FB75
:10116300FB011201170AFC011201177FFC01120196
:101173001709FD0112011755FD011201178CFD011D
:1011830012011705FE0112011747FE011201178F05
:10119300FE01120117A1FE01120117C4FE01120183
:1011A30017CDFE011201178BFF011201176E9E036B
:1011B300120117219F03120117819103120117B71F
:1011C3009103120117ED91031201174293031201C8
:1011D30017C2A203120117D8A203120117E8A20330
:1011E30012011732A303120117E6A303120117A971
:1011F300DB02120117BEDB0212011772DC021201BD
:1012030017B6DC02120117D3DC021201170EDD023E
:101213001201175BDD021201178FDD02120117CDD8
:10122300DD0212011712E0021201177FE002120120
:1012330017D29B03120117FB9B031201172A9C036E
:10124300120117D09C03120117129D031201178F6D
:101253008303120117B48303120117E083031201FE
:1012630017B4A40312011797410012011768430032
:10127300120117D94400120117454500120117CD79
:1012830045001201174C4600120117754600120162
:1012930017914A00120117204B001201175B4C00F3
:1012A300120117954C00120117D94C00120117FBBC
:1012B3004D001201172D4E00120117914E0012011D
:1012C30017DE4E001201172B4F00120117974F0024
:1012D300120117E24F001201171750001201174BAA
:1012E30050001201176A50001201175351001201E6
:1012F300178B5100120117C55100120117ED510050
:101303001201171552001201175A520012011777D2
:101313005200120117AD52001201178B5400120133
:1013230017B55400120117305500120117735500F9
:1013330012011777A10312011788A10312011713D2
:10134300A50312011750A503120117CCA50312011F
:101353001723A20312011733A2031201174DA2038D
:10136300120117BFA203120117799F03120117FE7F
:101373009F0312011766A0031201179C9803120121
:1013830017C29803120117289903120117489903EA
:101393001201179A9903120117F7990312011733D0
:1013A3009A03120117369A031201170080031201E0
:1013B30017158003120117468103120117D4810305
:1013C300120117EF81031201170A82031201175842
:1013D30082031201177282031201178C8203120116
:1013E30017A28203120117C18203120117E08203BD
:1013F3001201170983031201175A8303120117E716
:10140300FF01120117F7FF01120117FAFF01120181
:1014130017F87F00120117428F03120117D79003A9
:101423001201173891031201177E9103120117EA73
:101433007F001201179C7E00120117AF7E0012017C
:10144300170B7F00120117F17F00120117449A0353
:101453001201179B9A03120117169B031201177FA0
:101463009B03120117638A031201178D8A0312016A
:1014730017648B031201176A8C0312011780A802E9
:1014830012011751A90212011792A902120117C8DA
:10149300A9021201172DAA0212011788AA0212012A
:1014A30017FDAA0212011798AB021201177CAC02B6
:1014B30012011708AD0212011754AE02120117E10F
:1014C300AE0212011748AF02120117B3AF021201A5
:1014D30017C1AF02120117E4B00212011770DC0149
:1014E300120117AEDF0112011735E1011201175B7B
:1014F300E10112011782E10112011705E201120154
:10150300179BE30112011753E4011201174BE80182
:1015130012011783E80112011761C9021201176F43
:10152300C902120117EDCB021201177BCC02120183
:1015330017AFCC0212011701CD0212011727CE02F9
:101543001201170FCF0212011782CF021201174A9D
:10155300F9021201178FF902120117ACF9021201F5
:101563001761FA02120117B4FA0212011797FB026C
:10157300120117B5FC021201175EA503120117BB76
:10158300FF01120117B47F00120117A4A503120172
:1015930017DAFF02E066701008A3E066700A08A37A
:1015A300E066700408A3E06622E49366701308748F
:1015B300019366700C0874029366700508740393B4
:1015C3006622C3E7960809E7960809E7960809E73C
:1015D3009622C3E09608A3E09608A3E09608A3E04A
:1015E3009622C008C3E096F50808A3E096420808CF
:1015F300A3E096420808A3E09645087001D3D008FB
:1016030022080808EAC0E0EBC0E086F0E7A4FA1875
:101613000986F0E7A42AFA180986F0E7A42AFA183B
:101623000986F0E7A42AFA1986F0E7A4FBE5F02A75
:10163300FA190886F0E7A42BFBE5F03AFA190886B5
:10164300F0E7A42BFBE5F03AFA18180986F0E7A4B3
:10165300C5F02BFBE43AFA1908E7C5F0C6A426F651
:10166300E5F03BFBE43AFA1886F0E7A4F6E5F00868
:1016730026F6E43B08F6E43A08F6D0E0FBD0E0FABD
:1016830022E4CFC0E0E4CEC0E0E4CDC0E0E4CCC0CF
:10169300E075F020C3E633F608E633F608E633F6E2
:1016A30008E633F6181818EC33FCED33FDEE33FE81
:1016B300EF33FFC3EC9709ED9709EE9709EF9719FD
:1016C3001919400FFFEC97FC09ED97FD09EE97FE02
:1016D300191906D5F0BEECF709EDF709EEF709EF96
:1016E300F7191919D0E0FCD0E0FDD0E0FED0E0FFFF
:1016F300226016080808C6C313C618C613C618C640
:1017030013C618C613C6D5E0EA22700908080822D2
:101713006016181818C6C333C608C633C608C633BE
:10172300C608C633C6D5E0EA22E627F60809E63737
:10173300F60809E637F60809E637F622E026F60842
:10174300A3E036F608A3E036F608A3E036F622E077
:1017530026F008A3E036F008A3E036F008A3E0364D
:10176300F022C3E697F60809E697F60809E697F626
:101773000809E697F622C3E0C696F608A3E0C696E4
:10178300F608A3E0C696F608A3E0C696F622C3E0E1
:1017930096F008A3E096F008A3E096F008A3E0967D
:1017A300F022E056F608A3E056F608A3E056F60842
:1017B300A3E056F622E056F008A3E056F008A3E0B3
:1017C30056F008A3E056F022E046F608A3E046F6FA
:1017D30008A3E046F608A3E046F622E046F008A395
:1017E300E046F008A3E046F008A3E046F022E0F666
:1017F30008A3E0F608A3E0F608A3E0F622E6F00863
:10180300A3E6F008A3E6F008A3E6F022E0FAA3E0DB
:10181300FBA3E0FCA3E0FD22EAF0A3EBF0A3ECF0D2
:10182300A3EDF022CAC0E0E6F0A308DAFAD0E0FAAA
:1018330022CAC0E0E0A3C582CCC582C583CDC583DF
:10184300F0A3C582CCC582C583CDC583DAE6D0E0DB
:10185300CA22C3E498F8E499F91218968026C3E4DF
:101863009AFAE49BFBE920E7E9121896E498F8E476
:1018730099F922C3E498F8E499F9121896E498F8D0
:10188300E499F9C3E49AFAE49BFB22EB20E7CFE95E
:1018930020E7E0B90010BB0008E88AF084F8AAF05A
:1018A30022E4FBC8FA22EB70227B10C833C8C93389
:1018B300C9335007C39AC3DBF280069A50012ADB6F
:1018C300EAC833F4C8C933F4C9FA2275F008E4C886
:1018D30033C8C933C933C99AC99B5004C92AC93B00
:1018E300D5F0ECFBC833F4C8E4C9FA22600D08C68E
:1018F300A2E713C618C613C6D5E0F322600C08C6C8
:10190300C313C618C613C6D5E0F422700422600DB3
:1019130018C6C333C608C633C6D5E0F4182225104B
:1019230010AF08F510400215118008F5104002159C
:1019330011D2AF22C0D0251010AF08F51050020508
:10194300118008F51050020511D2AFD0D022251016
:10195300F58210AF08F510400215118008F510400C
:10196300021511D2AF851183222510F582E43511BA
:10197300F58322E4732510C582C0E0E51134FFC569
:1019830083C0E0E510C3958224F810AF0885831166
:101993008582108008858311858210D2AFCEF0A393
:1019A300E520F0A37808E608F0A3DEFAEFF0A3E55C
:1019B3008124FAF8E608F0A3E608F0A3E608F0A30A
:1019C3000808E608F0A3E608F0A315811581D0E026
:1019D300FED0E0F8158115811581E8C0E0EEC0E086
:1019E300222510C582C0E0E51134FFC583C0E0E5C0
:1019F30010C3958224F910AF088583118582108066
:101A030008858311858210D2AFCEF0A3E520F0A321
:101A13007808E608F0A3DEFAEFF0A3E58124FBF8EB
:101A2300E608F0A3E608F0A30808E608F0A3E60832
:101A3300F0A315811581D0E0FED0E0F81581158162
:101A4300E8C0E0EEC0E022851183851082E0A3FEAA
:101A5300E0A3F5207808E0A3F608DFFAE0A3FFE0AF
:101A6300A3C0E0E0A3C0E0E0A3C0E0E0A3C0E0E0E7
:101A7300A3C0E010AF08858210858311800885829A
:101A830010858311D2AFD083D082020114851183D4
:101A9300851082E0A3FEE0A3F5207808E0A3F60812
:101AA300DFFAE0A3FFE0A3C0E0E0A3C0E0E0A3C04F
:101AB300E0E0A3C0E010AF088582108583118008A1
:101AC300858210858311D2AFD083D08222C0D025E6
:101AD30010C582C0E0E51134FFC583C0E0E510C343
:101AE300958224F310AF08858311858210800885C1
:101AF3008311858210D2AFC8F0A3E9F0A3EAF0A363
:101B0300EBF0A37908E709F0A3D8FAECF0A3EDF022
:101B1300A3EEF0A3EFF0A3D0E0F0A3D0E0F0A3D0C6
:101B2300E0F0A3E520F0A3E5F0F0A322851183857F
:101B33001082E0C0E0A3E0F9A3E0FAA3E0FBA378FE
:101B430008E0F608A3DFFAE0FCA3E0FDA3E0FEA3B0
:101B5300E0FFA3E0C0E0A3E0C0E0A3E0F5D0A3E092
:101B6300F520A3E0A3F5F010AF088583118582105B
:101B73008008858311858210D2AFD082D083D0E0D4
:101B8300F8D0E03274048006740280027401C0E06D
:101B9300F404121951D0E01218272274048004743B
:101BA300028000CCC0E0EDC0E0E510C39CCCAD11D9
:101BB30050011D10AF068C108D1180068C108D11F5
:101BC300D2AF121834D0E0FDD0E0FC22D083D08213
:101BD300E9C0E0E493A3C386F0C5F095F0F908E407
:101BE30093A386F0C5F095F0700BE493A3C39940DB
:101BF30005E9048002A3E475F002A42582F582E5D9
:101C0300F03583F583D0E0F9E493A3C0E0E493C017
:101C1300E022D083D082ECC0E0EDC0E0E493A3FCEB
:101C2300E493A3FDED4C600D121C61EC24FFFCED6D
:101C330034FFFD80EFE493A3FCE493A3FDED4C603C
:101C43000D121CA0EC24FFFCED34FFFD80EFD0E06F
:101C5300FDD0E0FCE493A3C0E0E493C0E022C0E045
:101C6300C3E49396087401939618400FE493667047
:101C73000808740193661870007019A3A3C3E49352
:101C830096087401939618A3A3400DD0E0D0E0D03A
:101C9300E0021C51A3A3A3A3A3A3D0E022C0E0C0EE
:101CA300F088F0E493667008087401936618700076
:101CB300A8F0A3A3700BD0F0D0E0D0E0D0E0021CDA
:081CC30051A3A3D0F0D0E022F0
:101CCC0074F51219E4EAFEEBFFEE2434F8EF34005D
:101CDC00F988088909EE2435121E26F8EE243712ED
:101CEC001E26F50AEC850AF0A4FCAAF0850AF0ED94
:101CFC00A42AFDE82CF8E43DF97A257B001218960D
:101D0C00EA850882850983F05407F87401B800024B
:101D1C008004C333D8FCC0E0E0131313541FF8EE57
:101D2C0028F8EF3400F9E8245DF582E93400F583F6
:101D3C00D0E0F8E0586008EE2434F582EF8019EE1C
:101D4C002436121E26F5F0EA84A8F0EE28F8EF34BB
:101D5C0000F9E82438F582E9121E29F97F04021AE9
:101D6C009074F71219E48A088B09EA2434F582EB93
:101D7C00121E29C0E0EA2435F582EB3400F583D03D
:101D8C00E0F08A828B83A3A3A3A3A3A3A3C082C0E6
:101D9C00838A828B83A3A3A3A3A3E0F8A3E0F9D047
:101DAC0083D082E0C398FEA3E099FFEA2480F582F9
:101DBC00EB121E296401704FEA2481F582EB34008A
:101DCC00F583121BA28A828B83A3A3A3A3A3A3A331
:101DDC00E0FCA3E0FD8A828B83A3A3A3A3A3E0FA78
:101DEC00A3E0FB121E2F7402121937E960197CF262
:101DFC007D04AA08AB09120CA9E5082480F582E53C
:101E0C00093400F583E4F0EEFCEFFDAA08AB0912EF
:101E1C001CCC1226AE7F02021A90F582EF3400F52C
:101E2C0083E022C082C083851082851183E0F8A3F1
:101E3C00E0F9C3EA9CEB9D500BC3EC98ED99401272
:101E4C0079018010C3EA98EB9940F5C3EC98ED99B1
:101E5C0050EE7900D083D08222EAC39CFAEB9DFB32
:101E6C00220000008512878513C622C0E074F2128E
:101E7C001AD0759B00906182E0A2E6503DE591A2DC
:101E8C00E650377591BF9003BFE064057008120EE1
:101E9C003B120E478003120E41751200120EA1E97F
:101EAC009003C0F07900120E95120C137A017B008E
:101EBC009003BEE0F91211838049E0A2E55024E5BD
:101ECC0091A2E5501E7591DF9003BFE0640D701375
:101EDC009003E0E004F064287002E4F07A00E0F98A
:101EEC00120F31906181E0A2E35009E5E9A2E350C1
:101EFC000375E9F7A3E0A2E75009E591A2E75003C7
:101F0C0075917F7F01021B2FC0E0C0D0C082C083BF
:101F1C00906183E0A2E05009E5BFA2E0500375BFD9
:101F2C00FEE0A2E15009E5BFA2E1500375BFFDE060
:101F3C00A2E25009E5BFA2E2500375BFFBE0A2E3A9
:101F4C005009E5BFA2E3500375BFF7E0A2E45009C6
:101F5C00E5BFA2E4500375BFEFE0A2E55009E5BF71
:101F6C00A2E5500375BFDFE0A2E65009E5BFA2E68B
:101F7C00500375BFBFD083D082D0D0D0E032C0E048
:101F8C0074F2121AD0E5A7A2E6500FE5A1A2E65012
:101F9C000953A7BF75A1BF121FDCE5A7A2E5500C22
:101FAC00E5A1A2E5500653A7DF75A1DFE5A7A2E1E5
:101FBC005009E5A1A2E1500375A1FDE5A7A2E250ED
:101FCC000CE5A1A2E2500653A7FB75A1FB021F0F63
:101FDC0074F81219E47512019003BFE064067015D1
:101FEC00120DA58A828B83A3A3A3A3A3A3E0FAA3B8
:101FFC00E0FB120E29A2AFE433FED2AF9003C4E093
:10200C00640170187A207B009003BEE0F912121361
:10201C007A207B009003BEE0F9121189906182E076
:10202C00D2E6F085C61380169003C3E064017008F5
:10203C00E5C654F84405F5C653BEFC121E70740177
:10204C00651260E453BEFCEEA2E092AF7F01021A6F
:10205C00900000008E148F158582198583188510C9
:10206C0082851183E0CEA3E0CF851982851883EB9E
:10207C00C9EAC8EDCBECCA75F010C3E833C8E93334
:10208C00C9EA33CAEB33CBC3EA9EF517EB9FF516BF
:10209C00B35004AB16AA17EC33CCED33CDD5F0DA34
:1020AC00AE14AF152274F11219E474F212192174E2
:1020BC000612196CECF0A3EDF0EAFEEBFF9003BFF7
:1020CC00E024F7C39405500690828202224A120D36
:1020DC00A5851082851183EAF0A3EBF0851082852B
:1020EC001183E0F8A3E0F9E8497003022247EEFC03
:1020FC00EFFD740812196CAA82AB83120E591222CE
:10210C007078081217F19082A278081217A5740241
:10211C0012196C7808121800740812196C780C12C9
:10212C0017F19082A2780C1217A5740212196C7810
:10213C000C1215E54029740212196C78081217F16B
:10214C007808790C12176585080C85090D850A0E1F
:10215C00850B0F9082D2780C1215E5404180478593
:10216C000C08850D09850E0A850F0B740212196C6B
:10217C0078081217799082D278081215E5501F75DD
:10218C000800750900750A00750B017808790C12A6
:10219C001765740212196C780812173F8008908228
:1021AC008278081217F1750C19750D00780C121B3A
:1021BC008B7409780812170DFAAB09AC0AAD0B1227
:1021CC00206074021219378A0C8B0D8C0E8D0F74D3
:1021DC0010780C1216F4122270A3A3A3A312226679
:1021EC0012189688088909E4F50AF50B780C790819
:1021FC0012172C740C12196C122266121896E8FA2B
:10220C008A08E4F509780C79081215C55007780C82
:10221C0079081217659003BFE06408600AE0640651
:10222C006005E06405701C9082CE780C1215E550A8
:10223C00129082C6780C12173F8008908286780C18
:10224C001217F1740612196C12227C780C121800F9
:10225C00740E1219377F08021A90E0F8A3E0F97A8D
:10226C00D07B032285108285118312227CA3A322AA
:10227C00E0F8A3E0F58388822274F71219E4120EB9
:10228C006B120E17E5C654804449F5C6E59E547F83
:10229C00644970F8906185740FF090054BE0F47010
:1022AC0002A3E0604E90054CE0600814601B1460C3
:1022BC002E804075080175090090054BE0780812D6
:1022CC00190EE508F45280802A75080175090090F2
:1022DC00054BE0780812190EE508F452908014753D
:1022EC00080175090090054BE0780812190EE508F5
:1022FC00F452A079007F02021A9074F71219E4E9E3
:10230C00FE9026F8E493F46008E493F9120BF58040
:10231C000953C680E59E547F70FA120E1D90054B32
:10232C00E0F47002A3E0604B90054CE06008146090
:10233C001A14602C803D75080175090090054BE05E
:10234C00780812190EE50842808028750801750975
:10235C000090054BE0780812190EE50842908013A6
:10236C0075080175090090054BE0780812190EE507
:10237C000842A0120E6B120DA58A088B09A808A999
:10238C0009E8496015E5E170FCE82414F582E934AC
:10239C0000F583E0F46003E0F5E174016E700A7AF5
:1023AC00019003BEE0F91211DD02230174F1121940
:1023BC00E48A0C8B0D8C0E8D0F740F12196C78082F
:1023CC001217F19082A2780C1217A59082A27808AD
:1023DC001217A5780C79081215C55015780C7908C8
:1023EC0012176590829A780C1215E54015790180C8
:1023FC00137808790C12176590829A78081215E5F3
:10240C0040EB79007F08021A9074F11219E474FC05
:10241C00121921851082851183EAF0A3EBF0A3EC4D
:10242C00F0A3EDF0741312196C78081217F1908266
:10243C00A2780C1217F1851082851183780C121773
:10244C00B89082A278081217A5851082851183781E
:10245C00081215D54014851082851183780C12173B
:10246C00F1780C7908121765801E750C00750D003B
:10247C00750E00750F01780C79081217658510829E
:10248C00851183780C12173FAA0CAB0DAC0EAD0F57
:10249C00740412193702241074F11219E48A0C8B8B
:1024AC000D8C0E8D0F740F12196C78081217F19099
:1024BC0082A2780C1217A59082A278081217A57820
:1024CC0008790C1215C54011780C7908121765AAF9
:1024DC000CAB0DAC0EAD0F800F7808790C12176594
:1024EC00AA08AB09AC0AAD0B0224109082A27808A2
:1024FC001217F18A828B8378081217B87F04021A9C
:10250C009074F51219E48C828D8378081217F18A75
:10251C00828B837808121791122565C3E09CF0A377
:10252C00E09D12255740229082BE78081217F18A3E
:10253C00828B8378081217528A828B83A3A3A3A35E
:10254C00E02420F0A3E0344EF080A0F08882898350
:10255C00C3E09420A3E0944E22EA2404F8EB340068
:10256C00F98C828D83A3A3A3A3E0FCA3E0FD888256
:10257C0089832274F51219E4E9FE7A007B00900736
:10258C0055E064017008900508E0FAA3E0FBEEC387
:10259C0033F8E433F9746128F582748139F583E0FA
:1025AC002AF508A3E03BF5097808121B8B9082F200
:1025BC0012180F12206074021219378A088B098CBA
:1025CC000A8D0B741078081216F4AA08AB097F0454
:1025DC00021A9074F11219E48A0C8B0D8C0E8D0F6B
:1025EC00740F12196CE0FAA3E0FB741112196CE071
:1025FC00F508A3E0F509741312196CE0FEA3E0FFD3
:10260C007808121B8B1226A3E4F50AF50B780C79CB
:10261C000812160490827A78081217F1780C79084F
:10262C00121604AA0CAB0DAC0EAD0F122060740286
:10263C001219378A088B098C0A8D0B8B0DEA450D04
:10264C0060047A0180027A00741078081216F4EC97
:10265C002AFCED3400FDECF8EDF97A717B021218CE
:10266C0096880889098E828F837808121800ECF8F6
:10267C00EDF97A717B021218961226A3740578086C
:10268C0012190E8E828F83A3A3A3A3E508F0A3E5F2
:10269C0009F07F08021A90EA2401F508EB3400F5E2
:1026AC000922C082C083E9906000F0D083D08222DE
:1026BC00C0E074F2121AD0E589A2E150031213990A
:1026CC00758900C2C57F01021B2FC0E074F2121A7B
:1026DC00D0E58BA2E05003121399758B00C2E87FF2
:0A26EC0001021B2FC2C753BEFC32CF
:1026F800FFFFFFFFFFFFFFFFFFFFFFFFC082C08359
:10270800E9900A6DF002297074F7121978E99002BD
:10271800DDF07C157D037AFF7BFF1207F99002DE5E
:1027280074FFF0A3F0A3E4F0A3F0790512078190F9
:1027380002DDE0F91206A97A177B08120ABD0236F3
:10274800C874F4121978EAFEEBFF5480602C9002EA
:10275800DDE0F912116B8A088B09EA450960138AD2
:10276800828B83E064B07003120799AA08AB091240
:102778001153EEFAEF6480FB80047A007B007F043B
:10278800021A4A74F212197874FC121921EAFEEB43
:10279800FF741212196C122F5BEE4F700302282E71
:1027A800740212196CEEF0A3EF1240968510828520
:1027B8001183AA82AB831206A3E9F50A706BE508B8
:1027C800450960658E828F8312418DEE4F60577A7E
:1027D800067B001211C58A0C8B0DA80CA90DE849BF
:1027E8007005750A13804288828983E4F0122836BE
:1027F800A3EEF0A3EFF088828983123E4D9002E3A6
:102808001228BE9002E370051240A6801CE0FCA3CB
:10281800E08003EAFCEBFD8C828D831228BE70F306
:102828008C828D8380E2750A02A90A023753A312AB
:10283800283B22F088828983A32274F212197889AE
:102848000AE975F017A4FEAFF09002E2E4F09002F6
:10285800E01228BE600A1211CB9002E0E4F0A3F067
:10286800EEFAEFFB1211C58A088B09EA4509602BBD
:10287800EEFCEFFD790012113B9002E0123E517B15
:102888000080081228A8E4F0A3F00BEBC3950A40D7
:10289800F2E50A9002E2F0790080027913023758D3
:1028A800EB75F017A4F8A9F09002E0E028FAA3E08D
:1028B800398A82F58322123658EA4B2274F21219A9
:1028C80078EAFEEBFF740E12196C123CEA750800E8
:1028D8007509008003122F4EC3E5089CE5099D5039
:1028E8002A85080A85090B7403780A12190EEE2541
:1028F8000AFAEF350BFB8A828B83A3A3123D57E5B7
:102908000C687003E50D6970CC80047A007B0002C6
:10291800375874F41219787900EAA2E0501B750848
:10292800747509827808121B8B7C047D007A6F7B92
:102938000A12077B7402121937022786C082C083E5
:102948009002E3122977601C88828983A3A3E06A36
:102958007003A3E06B8882898370E8A3A3A3A31202
:10296800365480047A007B00D083D082020114128E
:102978003D5FE8492274F012197874FC1219218A13
:10298800088B09851082851183E4F0A3F0EA2402FC
:10299800F50CEB3400F50D12308F8A828B83A3A3DC
:1029A800A3A3E024FE603924FC604624FE60522480
:1029B800FE605E24FE7003022A9524FE7003022B3B
:1029C8001724FE7003022B2624FE7003022B3524E5
:1029D800FC7003022B4424FE7003022B53022B9736
:1029E8009002FC7417F0A3E4122BA612042D022BFC
:1029F80097851082851183AC82AD8312079F022BC5
:102A080060851082851183AC82AD831207A5022BE5
:102A180060740212196CAC82AD83850A82850B83BF
:102A28001233EE8A0E8B0FAC0EAD0FEC4D604CE4FA
:102A3800F50EF50F780E121B8B750EFC750F0278CC
:102A48000E121B8B750EFD750F02780E121B8B7400
:102A58000812196C121BA27916850C82850D831237
:102A6800408D121937E9FF70147CFC7D02850C82B9
:102A7800850D83123654120445800E7F01850A8223
:102A8800850B83122B9A1240A6EF022B61850A0E42
:102A9800850B0F740212196CAC82AD83850E82858A
:102AA8000F831233EE8A0A8B0BAC0AAD0BEC4D6028
:102AB8004D850E82850F83A3A3121BA2750AFC7590
:102AC8000B02780A121B8B750AFD750B02780A1225
:102AD8001B8B740812196C121BA27916850C82853F
:102AE8000D8312408D121937E9FF70147CFC7D02AA
:102AF800850C82850D8312365412044B808B7F011E
:102B0800850E82850F83122B9A1240A6022A918580
:102B18001082851183AC82AD831207AB803A851091
:102B280082851183AC82AD831207B1802B85108218
:102B3800851183AC82AD831207B7801C851082850E
:102B48001183AC82AD831207BD800D85108285117B
:102B580083AC82AD831207C3E9FEEE60328508823A
:102B6800850983A3E064146026850882850983A308
:102B7800A3A3A3E09002FCF0851082851183123D87
:102B88005B9002FD1240A6EEA3122BA612042702A8
:102B98002D92E0F8A3E0F985108285118322F07C5C
:102BA800FC7D02850C82850D831236582274F01242
:102BB800197874FA121921740412196C1233FBF57E
:102BC80008EB3400F5097C157D0079007AFC7B025E
:102BD80012113BE5082402123522851082851183E3
:102BE80085820C85830D780C121B8B8508828509DC
:102BF80083123C13121B8BE5082405F50CE50934F8
:102C080000F50D780C121B8B123C2A850882850969
:102C1800831232B01219378A0C8B0DAE0CAF0DE54A
:102C28000A2402F50AE50B123095EE4F7003022DC7
:102C38006B8015740212196C1236548882898312BB
:102C480032EB9002FCE004F09002FCE0C3940540F3
:102C580003022D6BE4F50CF50D780C121B8B750C2B
:102C6800E5750D02780C121B8B750CE6750D027854
:102C78000C121B8B740612196C121BA27910EEFC35
:102C8800EFFD850A82850B8312408D121937E97092
:102C98005C850882850983A3A3A3A3A3A3A3E0F863
:102CA8009002E5E0687046123C17121B8B7CE67DAB
:102CB80002E5082408FAE5093400FB12113574020C
:102CC800121937E960278E828F83A3A3A3A3123634
:102CD800549002FCE0F50C7402780C12190E74FD85
:102CE800250CF5827402350DF5831232EB7402124D
:102CF800196C85820C85830D780C121B8B7402125B
:102D0800196C121BA2123C2AEEFAEFFB1206CD74C4
:102D1800041219378A0C8B0DAE0CAF0D9002FCE033
:102D2800F50C750D007402780C12190E74FC250C44
:102D3800F87402350DF988828983A31228BE7003BE
:102D4800022C32E82403080808E93400F9EE4F6041
:102D580003022C3B8882898374FFF0A3F09002FC65
:102D6800E004F09002FCE0600A12364A1204397955
:102D7800008013850882850983123D5B740412194B
:102D88006C1240A3790A7406800274041219377F02
:102D980008021A4A74F012197874F8121921740288
:102DA80012196C1232EB740612196C12354D74023A
:102DB80012196CE02405F8A3E01236401240A685EB
:102DC8001082851183123673F508A3E0F5097E0099
:102DD8007F00740412196C85820A85830B780A12A5
:102DE8001B8B740212196C123BFFF50A750B0078E5
:102DF8000A121B8B740412196CE02405F50AA3E06F
:102E0800123095780A121B8B740612196C123BDE6D
:102E1800122F631206C174061219378A0C8B0DEA39
:102E2800450D7003022F00EA2404122F2C122F5B89
:102E38008A828B83A3A3A3E0F9740212196C12325D
:102E4800D76003022F00E4F50AF50B780A121B8BF2
:102E5800750AE5750B02780A121B8B750AE6750B65
:102E680002780A121B8B740A12196C121BA27913AE
:102E7800AC0CAD0D740A12196C124088121937E99E
:102E8800FF70759002E5E0F8EE7009E02402900208
:102E9800FDF080149002FDE0FCE82402FAE434001E
:102EA800FBEA6C7001EB70538E82AA8212309A94FE
:102EB800141230875042850E82850F83E0C0E012DD
:102EC8003295D0E01232E0C0E01232A1D0E01232E6
:102ED800F1121B8B122F381219379002E5E02EFEE3
:102EE80074FF6508700474FF6509600C122F4EEEBC
:102EF800C394145003022DDAEE60121232B9740230
:102F080012196C1232CA12043F79008012EF700253
:102F18007F0A740612196C123BDE123E51EFF974E7
:102F280008022D94F50EEB123526850E82F58322C4
:102F38007CE67D028E0A74FE250AFA74023400FBD0
:102F4800121123740222E5082401F508E50934006A
:102F5800F50922E0F508A3E0F50922A3A3E0FCA304
:102F6800E0FDAA08AB092274F012197874FC121952
:102F780021740212196C12354DEA2405F50EEB1274
:102F880035267F009002FCE4F0FEEA24021230921B
:102F980080489002FCE0FA9002E5E0F812309A943A
:102FA80017123087400D9002FCE0F87416C3989011
:102FB80002E5F0E0F5087509007808121B8B7CE63D
:102FC8007D0274FD2AFA7402122F451219379002F5
:102FD800E5E0F89002FCE028F00EE50E2416F582F4
:102FE800E50F3400F583E0F8EEC398400302307C27
:102FF8009002FCE0C39416507BEEC333F8E433F937
:10300800E50E28F508E50F39F50985108285118345
:10301800AC82AD83850882123543AC0CAD0DEC4D06
:1030280070137F018508828509831233E812196CB1
:103038001240A38045E4F50CF50D780C121B8B7536
:103048000CE5750D02780C121B8B750CE6750D02DC
:10305800780C121B8B740612196C121BA279168538
:103068000A82850B8312408D121937E9FF7003021B
:103078002F9A80B012364A120451EFF9022D92E9C4
:103088009400C365D03322EA2405F50AEB3400F531
:103098000B22EA28F8E43400F9E82274F0121978CF
:1030A80074F81219218510828511831232EB740687
:1030B80012196C12354D851082851183E02405F5AF
:1030C8000CA3E03400F50D7E007F00740412196C27
:1030D8008582088583097808121B8B850C82850DEB
:1030E80083A3A3A3A3E0F5088E097808121B8BE538
:1030F8000C2405F508E50D3400F5097808121B8B3A
:10310800850C82850D83A3A3123C30850C82850D26
:10311800831232B01219378A088B09801F88828976
:103128008374FFF00E1232A174FF1232F1121B8B5E
:10313800122F381219379002E5E02EFEE5084509EE
:103148006029850882850983A3A3122B9C1232D794
:10315800E5082404123522EF602B850E82850F8343
:10316800123D5B740612196C1240A3EE7003023212
:103178007A1232B98510828511831232CA12045725
:103188007900023292E4F50AF50B780A121B8B7566
:103198000AE5750B02780A121B8B750AE6750B0295
:1031A800780A121B8B740A12196C121BA27911ACC3
:1031B80008AD09740812196C124088121937E9FF12
:1031C80070988E82AA82EE9002E57009E02404903D
:1031D80002FDF08025E0F89002FDE0F50AE82404FD
:1031E800FCE43400FDEC650A7001ED708412309A3D
:1031F80094121230874003023179850E82850F833D
:10320800E0C0E0123295D0E01232E0C0E01232A104
:10321800D0E0F00E740212196C85820A85830B784F
:103228000A121B8B740612196C121BA2850C82855C
:103238000D83122F631206CD74041219378A088B76
:10324800098E0A74FE250AF874023400F9EA450961
:103258007003023125740212196CE088828983F0A8
:103268000E740212196CA3E0C0E01232A1D0E00281
:103278003132EF70027F0A850C82850D83123D5B27
:10328800740612196C1240A3EFF9022F2774FE2A54
:10329800F58274023400F583228E0A74FE250AF53D
:1032A8008274023400F583221236581206C174065D
:1032B800229002FDE0F5F0EE849002FCF07CFC7DAB
:1032C80002221232CE22124082E0FAA3E0FB22123E
:1032D80032CE1206AFE9FF22F00E850E82850F83EB
:1032E800A3E022EAF0A3EBF022F00E9002E5123CF4
:1032F800482274F012197874FC12192174021219F8
:103308006C1233FBFEEB3400FF851082851183AC11
:1033180082AD838E828F831233EE8A088B09EA4549
:103328000970030233B8E50A2402F50EE50B1235DD
:10333800268A828B83A3A3A3E0A2E550228510826C
:10334800851183123C0560637912AC08AD09850EBE
:1033580082850F83123C20121976E9F5087056E42D
:10336800F508F5097808121B8B8E828F83A3A3E0DA
:10337800F5087808121B8BEE2403F508EF3400F5E6
:10338800097808121B8B8E828F83123C3012365EAE
:10339800121937E9F508701D1233DC7029850E8281
:1033A800850F8312365412045D801B75080E800940
:1033B8007508018004E508600D8E828F831233E85A
:1033C80012196C1240A31233DC600479008002A940
:1033D80008022D92EE2418F582EF3400F583E022DE
:1033E800123D5F7402221233F222E0FAA3E0FB12CC
:1033F80006C722ECF0A3EDF08A0A8B0BEA2405221B
:1034080074F012197874FC121921740212196C12D2
:10341800354D8A0E8B0F12308F7508008510828506
:103428001183AC82AD83850A82123543AE0CAF0D91
:10343800EE4F700302350BE50E2402F50EE50F1270
:1034480035268E828F83A3A3A3E0A2E5502F851093
:10345800828511831236541207D58A088B09EA45EA
:103468000960427912EEFCEFFD850E82850F83120A
:103478003539121976E9F508600302350E850E8292
:10348800850F83124191EEFAEFFB12352B70127AF9
:10349800FF7BFF12352B606688828983EEF0A3EFED
:1034A800F07E00800675080E805C0E9002E2E0FA5D
:1034B800EEC39A5049EE75F017A4FAABF0888289EA
:1034C80083A3A3E02AFAA3E03BFB8A828B83123C06
:1034D80030EC4D70D5750C17750D00780C121B8BE0
:1034E800AC0AAD0B1211237402121937AC0AAD0BDA
:1034F800850E82850F83123654120463801775086F
:10350800098003750801850A82850B831233E81246
:10351800196C1240A3A908022D92F50EE509340092
:10352800F50F221207C98A0C8B0DA80CA90DE849C2
:103538002212365885088285098322F5831233F2D0
:103548008A0C8B0D22ECF0A3EDF02274F01219789E
:1035580074FC121921740212196C12354DEA2405F3
:10356800F8EB1236401240A6750900EA2402122F21
:103578002C123654124123700302362F750800802E
:103588006E8510828511831236736401704A8E82AB
:103598008F83A3A3121BA28E828F83123C13121B4C
:1035A8008BEE2405F50CEF3400F50D780C121B8B0F
:1035B80012365E121937E9F509601D8510828511EA
:1035C80083123BDEE4F08E828F831236547402122B
:1035D800196C123BDE1232EB7C177D007900EEFA93
:1035E800EFFB12113B8E828F83E4F0A3F005089065
:1035F80002E2E0F8E508C398501EE50875F017A444
:10360800F8A9F0850A82850B83A3A312406D123CAA
:1036180030EC4D6003023589850A82850B8374FF7F
:10362800F0A3F0E509700C850E82850F83123654DD
:10363800120469A909022D923400F98510828511B6
:1036480083227CFC7D02850A82850B8312365822F0
:10365800E0FAA3E0FB22850E82850F83123658120A
:1036680007E7740622850A82850B83123BE2E02273
:10367800C082C0839002DEE06A7003A3E06B70062C
:103688007ADE7B0280047A007B0002297074F712CC
:1036980019787F00EF75F003A4F8A9F0EC28F8ED8D
:1036A80039F988828983E06A7003A3E06B7006E8C1
:1036B800FAE9FB800B0FEFC3940240D87A007B0035
:1036C8007F01021A4A74F6121978123CF970067AC8
:1036D800007B008007A3A3A3A3123654023DC9743C
:1036E800F2121978E9FE740E12196CE0F50AA3E0DB
:1036F800F50B741012196CE0F50CA3E0F50D8C8233
:103708008D83E064027040123D5A88828983E0F517
:1037180008A3E0F9A808740268700374296970277F
:103728007508027509007808121B8B850C08850D31
:10373800097808121B8B780A121B8BEEF912080BFA
:10374800740612193780027901800574041219373A
:103758007F06021A4A74F012197874F61219217445
:103768000612196C1232EB740212196C12354D7470
:103778000112196CE9F0741C12196C122F5B742079
:1037880012196C124191851082851183E4F074023C
:1037980012196C124079E0A2E4502F741A12196CB5
:1037A800123C05700302388A790A740212196C12E5
:1037B8003C30740612196C123C20121976E98510F7
:1037C80082851183F06003023893740212196C1217
:1037D800367364026003023B71740212196CA3E031
:1037E800F5838882123D5A850882850983A38582DC
:1037F8000E85830F740212196CE02406F50AA3E003
:1038080012309588828983E0FAA3E0F9EA2400F56A
:103818000CE439F50D780C121C150100002801285C
:103828004A380700022842390328AA3800297D3A75
:103838000129A53A0229453A03297D3A04290E3B74
:10384800713BEE4F7052850A82850B83123D5BE80F
:10385800FAE9FB8A828B83E0C0E0741E12196C12AD
:103868003BDED0E0123C3F121B8B8A828B83A3E0A5
:10387800FCA3E0FDAA08AB09121123740212193740
:103888008009851082851183740EF0851082851158
:1038980083E0F9740A022D94851082851183740BD4
:1038A80080E8EE4F70F2741E12196C123BDE740140
:1038B800F012366D850882850983F07C007D0074DE
:1038C8000212196C123BFF2401FAA3E03400FB1228
:1038D80006C7EA4B60498A828B83E02402F8741E8B
:1038E80012196CE0F9A3E0F5838982E028F0EA2454
:1038F80004F8EB3400F988828983E0850E82850F0D
:1039080083123C51123C3F121B8B8A828B83A31279
:103918003C30E5082403FAE5093400FB02388074DA
:103928001E12196C1236732404F07C047D00790091
:10393800AA0EAB0F12113B023893EE4F6003023808
:10394800A012366DFEA3E0FF741E12196C123BDE46
:103958007404F0EE850882850983F0EF850E828570
:103968000F83F0740812196CAC82AD83EEFAEFFB8A
:103978001206C78A0A8B0BEA450B7003023A238AA0
:10398800828B83A3A312418D740412196C85820C57
:1039980085830D780C121B8B740A12196C121BA2EA
:1039A8007CFF7DFF1206CD74041219378B0DEA4592
:1039B8000D7033850A82850B83123C17121B8B8589
:1039C8000A82850B83A3121BA27C027D007A2A7BC4
:1039D800831205057404121937E9700A7404121960
:1039E8006C74FFF0A3F08E828F83E06402703675EA
:1039F8000A02750B00780A121B8B8E828F83A31222
:103A08003C30E5082404FAE509122F4512193774E9
:103A18001E12196C12367324028009740412196C70
:103A2800EEF0A3EFF0740412196C123BD4F0740496
:103A380012196CA3123BCCA3A3A3023892EE4F60D9
:103A4800030238A0850A82850B83123C3074061263
:103A5800196C1236541207FF8A0A741E12196C1256
:103A68003BEFE50A850882850983F0850E82850F7C
:103A780083EB023892EE4F60030238A012366DF8DD
:103A8800A3E0F9741E12196C123BEFE885088285D1
:103A98000983F0E9850E82850F8302389212364E2B
:103AA80012111DEAFC8C82A882C39EE49F404CE858
:103AB8006E7001EF70047C00801E740112196CE0B6
:103AC800FAEE2AFAEF3400FBC3EA98EB94005003AD
:103AD800E08004EECCC39CFC741E12196C123BDE11
:103AE800ECF08C0C750D00780C121B8B850A828506
:103AF8000B83E02EFCA3E03F02387B851082851102
:103B0800837407023892EE4F60030238A0850A8258
:103B1800850B83123D5B741E12196C123BF67407F9
:103B2800F088828983123BCC122837E0850E828583
:103B38000F83F0E82402FAE93400FB8A828B8312AF
:103B48003BCC123C36123BD4122836A3A3A3123B1B
:103B5800D8F0E82405F8E93400F988828983123B13
:103B6800D8A3123C51A3023A3F741A12196C123CA2
:103B7800F2700302388A123D5B880A890BE8450B0C
:103B8800700302388A8E0C8F0D780C121B8B7420F0
:103B980012196C121BA27808121B8B740712196C6D
:103BA800E0F9740812196C123C30740C12196C127A
:103BB8003C201219767406121937E985108285118E
:103BC80083023892E085088285098322123C5822B4
:103BD800123C58A3A322123BE222123BE622E0F851
:103BE800A3E0F583888222123BF67402F022E0FA01
:103BF800A3E0F5838A822212407DA3E02212365880
:103C08001207D58A0A8B0BEA450B22A3A3A3A3E0CC
:103C1800F50C750D00780C22123658850A82850B32
:103C28008322850E82850F83E0FCA3E0FD22A3A3F7
:103C3800F08A828B83A322F08A828B83123C4822EB
:103C4800E0F50A750B00780A2212283B123C58222C
:103C5800E0850882850983A3A32274F21219787477
:103C6800FC121921740212196C1232EBECFAEDFBFA
:103C7800741412196CE0FE741612196CE0F50AA39C
:103C8800E0F50B851082851183AC82AD831206C7DF
:103C98008A088B09EA4509604485108285118312D8
:103CA8003CF26035A3A3123CEAE8450D602B780A84
:103CB800121B8B741412196C121BA2EEF9AC08AD0E
:103CC80009740612196C123654850C82850D8312FC
:103CD800197674041219378006790E800279010268
:103CE8003753123D5F880C890D22123658123CF961
:103CF800221207938A828B83E58245832274F61207
:103D0800197874FE121921740C12196C123D5BE8B3
:103D1800851082851183F0740112196CE9F0E4F5BD
:103D280008F5097808121B8B7508027808121B8B96
:103D3800740412196C8582088583097808121B8B14
:103D48001207E7740612193774021219378072A322
:103D5800A3A3A3123D5F22E0F8A3E0F92274F712AF
:103D68001978EAFEEBFF89087C157D031207FFEA44
:103D78005402600BA908EEFAEFFB1206BB80027929
:103D8800010236C874F612197874FF6A700374FF5A
:103D98006B701C7B00EB75F003A4F8A9F0EC28F815
:103DA800ED39F9123DCE0BEBC39402501480E612A4
:103DB80007CF8A088B09A808A909E8496003123DBA
:103DC800CE7F02021A4A8882898374FFF0A31228E0
:103DD8003BA3E4F02274F61219781207CF8A828B7B
:103DE80083E58245836006A3A3E0FA80027A007B1C
:103DF8000080CE74F21219788A088B098C0A8D0B10
:103E0800740E12196CE0FE1207CF8A0C8B0DA80CE9
:103E1800A90DE8497022AC0AAD0B7AFF7BFF1207A7
:103E2800CF8A0A8B0BA80AA90BE84970047911807C
:103E38001188828983123E51EE88828983A3A3F078
:103E48007900023758A3A3A3A3E508F0A3E509F076
:103E58002274F012197874FE1219218510828511C6
:103E68008312354D8A088B09890B741212196C124A
:103E78003D5B741412196C123C30741612196C12D2
:103E88003654750A00EC4D6003023F267402650B38
:103E98006003023F2188828983E0FCA3E0F9EC24D7
:103EA80000FEE439FFEAF4F8EBF4F9EE58F8EF59BC
:103EB800F9E849705F851082851183E02406F50EC4
:103EC800A3E0122F2F122F651207FF8A0C8B0DEE1D
:103ED800650C7003EF650D60488E0C8F0D780C1221
:103EE8001B8B850E82850F83122F651208057402BD
:103EF800121937E9F50A7029780C121B8B74021213
:103F0800196C123BDEA3A3122F6312081D74021250
:103F18001937800D750A808008750A0D8003750AA7
:103F28000BA90A7402022D9474F012197874E51220
:103F38001921740212196CEAF0A3EB124096890E4B
:103F4800742F12196CE0F50F750800750900E50962
:103F580075F003A4F8A9F0740212196C12406DE010
:103F6800F47003A3E0F4700302405A8E828F83A397
:103F7800A3E0700302405A851082851183121BA2A8
:103F8800742F12196C123C30742D12196C1236549D
:103F980012078774021219378A0C8B0DEA450D70C7
:103FA8000302405AE4F50AF50B780A121B8B7408D1
:103FB80012196C85820A85830B780A121B8B740B85
:103FC80012196C85820A85830B780A121B8B74314F
:103FD80012196C124079A3121BA27914AC0CAD0D06
:103FE8008E828F8312408D121937E97065850C8295
:103FF800850D83123D57740412196C1240A68E82E7
:104008008F83A3A3E0A2E05018A90E740412196CC0
:10401800AC82AD838E828F831236541206DFE9425A
:10402800088E828F83A3A3E0A2E15026E50FF50A4C
:10403800780A121B8FA90E740512196CAC82AD8315
:104048008E828F831236541206D97401121937E9F9
:1040580042080509E509C394025003023F56A9081E
:10406800741B022D94E028FEA3E039FF8E828F8313
:104078002212407D22124082A322123BE6A3A322F1
:10408800123BE2A3A31236581207E1740822F08506
:104098001082851183ECF0A3EDF022123BF6E8F0D4
:1040A800A3E9F02274F21219788A088B09E9FF74DF
:1040B800016F600D74026F705F7901120ADBE9709D
:1040C80057AA08AB0912412360437E00800A7C1777
:1040D8007D00790012113B0E9002E2E0F8EEC398E1
:1040E8005020EE75F017A4F8A9F0850A82850B8395
:1040F800A3A3E028FAA3E039FB8A828B83122977ED
:1041080070CC850A82850B8374FFF0A3F07C157D43
:1041180003AA08AB091207F90237581207C98A0A15
:104128008B0BEA450B2274F21219788A0A8B0B8CD6
:10413800088D09740E12196C124191900A6DE0F401
:1041480060407A097B0012114DEA4B60358A828BF8
:104158008374B1F0A3E4123C38A3123C36A3E50AF9
:10416800F0A3E50B123C38123E4D8A828B83A3A341
:10417800A3A3A3A3A3EEF0A3EFF0900A6DE0F912B6
:104188001159023758A3A3A3A3E0FEA3E0FF2274AA
:10419800F4121978E9FE7F008A088B097808121B47
:1041A800CF00040D4143CA41E74102421F423C424D
:1041B80059427A429742A942CF42D742ED4203433D
:1041C8001D4374016E600302433D8C828D83E0F8C9
:1041D800C39403400302433DE8900B5902431A7409
:1041E800026E600302433D8C828D83E0F8A3E0F900
:1041F800900B5AE8F0A3E902431A74016E600302B7
:10420800433D8C828D83E0F8C39402400302433D12
:10421800E890076802431A74016E600302433D8CFC
:10422800828D83E0F8C39405400302433DE890077C
:104238006902431A74016E600302433D8C828D83C8
:10424800E0F8C39402400302433DE890076A024342
:104258001A74106E600302433D7508108F097808C0
:10426800121B8B7A6B7B0712112374021219370207
:10427800436174016E600302433D8C828D83E0F8D4
:10428800C39402400302433DE890077B02431A743B
:10429800016E600302433D8C828D83E0900B5D804C
:1042A8007174046E600302433D8C828D837808121A
:1042B80017F19082F278081215E5407990077D7819
:1042C80008121800024361EE706B1212DF806174ED
:1042D800016E70618C828D83E0F8C394025056E8B9
:1042E80090077C802D74016E704B8C828D83E0F872
:1042F800C3940A5040E8900B5C801774016E7035C7
:104308008C828D83E0F874F928C3940A5027E890CA
:104318000B5EF0804474016E701B90080FE0F88CFF
:10432800828D83E090080FF0E8702EE06401702918
:104338001212CD80247F188020C3EA9423EB9400C6
:10434800501574026E70108C828D83E0FCA3E0FD22
:10435800120511E9FF80020F0FEFF97F04021A4AD4
:1043680074F112197874DA1219218C0C8D0D90825F
:1043780058C082C083742012196CAC82AD83D0837C
:10438800D0827406121834742012196CAC82AD8372
:10439800121273E9FE743512196CE0F508EEC39435
:1043A8000A40030244B81212AFE9FF7404650860BA
:1043B80008900B59E06402700DAD08EFFCEEF9AA05
:1043C8000CAB0D1213217C147D007900740C1219AA
:1043D8006CAA82AB8312113B75F006EEA4F5097442
:1043E8000C12196CAC82AD837A1074242509F91269
:1043F80014D7E9703C7C1079FF740C12196CAA82EE
:10440800AB831211A7E97029741C12196CAC82AD28
:10441800837A0474252509F91214D7740C12196CBF
:10442800AC82AD83EFA2E0E433F9AA0CAB0D120520
:104438009B851082851183AC82AD837A0C74702EB3
:10444800F91214D7E97058851082851183AA82ABB6
:10445800831212A37E008041EE75F003A4F8A9F040
:10446800851082851183E58228F8E58339F98882E9
:104478008983E0FCA3E0FDEC4D601D88828983A35D
:10448800A3E0F50A750B00780A121B8BAA0CAB0D7A
:104498001207ED74021219370EEEC3940440B9EFF7
:1044A800A2E1500C900767E0F9AA0CAB0D1207F3D4
:1044B80074046508700F900B59E064027007AA0C29
:1044C800AB0D12131B790074261219377F07021AD5
:1044D8004A74F21219788A088B09ECFEEDFF750A06
:1044E8000AE9600B146008146031146033804712C5
:1044F80012C1E9F50AC3940A503CEE4F6038750CB6
:1045080006750D00780C121B8BAC08AD09EEFAEF9E
:10451800FB1211237402121937801B1212BB80037D
:104528001212C7E9F50AC3940A500BEE4F6007EE62
:10453800FAEFFB1212B5A90A7F06021A4A74F4129E
:104548001978E9FF7E1574FF6A700374FF6B702990
:104558007508008011FC7A027B00A908121291E903
:1045680060027E000508E508C3940AEF40E7604E44
:104578007A097B13120AED8045120ACF8A088B0943
:10458800EA450960387C007D00EA2405FAEB34002E
:10459800FB850882850983A3A3A3A3E0F9121273FC
:1045A800E9C3940A500BEFFC7A027B001212917E49
:1045B80000EF600AAA08AB0912130980011EEEF980
:1045C8007F04021A4A74F21219788C088D097E1534
:1045D800740E12196CE0F50AA3E0F50B74FF6A700B
:1045E8000374FF6B701D7F00EFC3940A504FAC0A31
:1045F800AD0BAA08AB09EFF9121297E960027E0029
:104608000F80E5120ACF8A828B83E5824583602C6E
:104618007C007D00E5822405FAE5833400FBA3A332
:10462800A3A3E0F9121273E9C3940A5010AC0AADBF
:104638000BAA08AB091212977E0080011EEEF97FC3
:1046480006021A4AC082C083900781EAF0A3EBF001
:10465800900767E0FC7D007A227B00120511900725
:1046680067E0F9120769D083D08202011474F0124E
:10467800197874EC121921EAFEEBFF8E828F83A35E
:10468800A3E024FA7003024A7E24FD700302495312
:1046980014700302474B14601024FD70030248F5A0
:1046A80014700302498D024A87900781E0F8A3E05D
:1046B800F9E8496062900781E0F8A3E0F583888211
:1046C800E0F8A3E0F988088909E845096049EE247B
:1046D8000CF582EF3400F583E0F50A780A121B8F97
:1046E800EE240BF582EF3400F583E0F98E828F8398
:1046F800A3A3A3A3A3A3A3A3A3E0FCA3E0FDEE2489
:1047080003FAEF3400FB8508828509831219767451
:1047180001121937024A87EE2409FEEF3400FF8E92
:10472800828F83121BA290077D12180F1205AD7499
:1047380002121937E97003024A8779018E828F8342
:10474800024A148E828F83A385820E85830FE060D0
:10475800030248ACEE2405F508EF3400F509850896
:1047680082F583E0A2E040030248AC7C0E7D00792C
:1047780000851082851183AA82AB8312113BEE2437
:1047880008F50CEF3400F50D850C82F583E0FAA3EB
:10479800E0FBEA4B6010750A06750B00780A121BDD
:1047A8008BEA241080248E828F83A3A3A3E0FAA32C
:1047B800E0FB120ACFEA4B7003024A87750A0675B6
:1047C8000B00780A121B8BEA2405FCEB3400FD74FD
:1047D8000212196CAA82AB831211237402121937C0
:1047E800850882850983E0A2E25004D2F08002C2E3
:1047F800F0A2F0E433F8740C12196CE048F08E82E1
:104808008F83A3A3A3A3A3A3A3A3A3A3E0FAA3E0D3
:10481800FBEA4B6011EA2410F582EB3400F583784B
:10482800081217F1800C7508FF7509FF750AFF75E6
:104838000BFFEA4B70047A007B00850C82850D83A0
:10484800E0F8A3E0F9E8496006880C890D80067550
:104858000C00750D007808121B878A088B097808E8
:10486800121B8B780C121B8BEE240CF582EF340094
:10487800F583121BA28E828F83A3A3A3A3A3A3E015
:10488800FCA3E0FD740A12196CAA82AB831212A968
:10489800740A1219378E828F83A3A3A3E0FAA3E0C8
:1048A800FB12132D900781E0F8A3E0F9E8497003A3
:1048B800024A87900781E0F8A3E0F5838882A3A3E2
:1048C800E0F8A3E0F98909E845097003024A8785F9
:1048D8000E82850F83E0FC79018E828F83A3A3A3C8
:1048E800E0FAA3E0FB8882850983024A79EE240373
:1048F800F508EF3400F509850882F583E0FAA3E0AE
:10490800FB12132D900781E0F8A3E0F9E849700342
:10491800024A87900781E0F8A3E0F5838882A3A381
:10492800E0F8A3E0F9890BE8450B7003024A878E8B
:10493800828F83A3E0FC7902850882850983E0FAE7
:10494800A3E0FB8882850B83024A797C007D00EE18
:104958002404FAEF3400FB8E828F83A3A3A3E0F92B
:10496800121273E9F8C3940A4003024A87EE240A34
:10497800FCEF3400FD7A0475F006E8A42425F9124A
:1049880014D1024A87EE2403F508EF3400F50985AF
:104998000882F583E0FAA3E0FB90077CE0600790CB
:1049A8000B5CE0F9806B900B59E07004790580612D
:1049B800120ACF8A0A8B0B8E828F83A3A3A3A3A389
:1049C800A3A3E0A2E0504FEA450B7003024A878A8E
:1049D800828B83A3A3A3A3E0F9603B8E828F83A37A
:1049E800A3A3A3A3A3A3A3A3E054107029740E1236
:1049F800196CAC82AD83EA2405FAEB3400FB121281
:104A080073E970127903850882850983E0FAA3E0C7
:104A1800FB1205A78069EE2405FCEF3400FD850A2A
:104A280082850B83A3A3A3A3E0F985088285098364
:104A3800E0FAA3E0FB121315900781E0F8A3E0F970
:104A4800E849603B900781E0F8A3E0F5838882A3FA
:104A5800A3E0F8A3E0F9E8FEE9FFEE4F60217C004F
:104A68007900850882850983E0FAA3E0FB8E828FAE
:104A780083121976800912066DE970031212CD743B
:104A8800141219377F08021A4A74F412197874F24A
:104A9800121921EAFE8C0975F006E9A42420F5080C
:104AA800851082851183AC82AD837A0EF91214D7F2
:104AB800E970597C0679FF851082851183AA82AB3B
:104AC800831211A7E97045740C12196CE0F8A3E081
:104AD800F9E8F50BE5096005EE420B8004EEF452A7
:104AE8000B850B82AA82E86A7001E9601B740C12BC
:104AF800196CEAF0A3E4F0851082851183AC82ADCD
:104B0800837A0EA9081214D1790180027900740EF3
:104B18001219377F04021A4A74F012197874E612CF
:104B28001921890C8A0E8B0FECFEEDFF740C1219FB
:104B38006CAC82AD837A0E75F006E9A42420F912D4
:104B480014D7E96003024C4F7C0679FF740C1219E4
:104B58006CAA82AB831211A7E96003024C4F7470F0
:104B6800250CF509851082851183AC82AD837A0CFA
:104B7800F91214D7E96003024C4B750800851082BE
:104B8800851183AA82AB831212A3E50E450F702903
:104B98007C0C7900851082851183AA82AB8312115F
:104BA800A7E9707D7C0C7D007900851082851183D2
:104BB800AA82AB8312113B8065851082851183AC74
:104BC80082AD83AA0EAB0F12129D8A0A8B0BA80A1C
:104BD800A90BE8497028EE4F606D85108285118316
:104BE800AC82AD837A007B0012129DEAF8EBF9EAF9
:104BF8004B605488828983E50EF0A3E50FF0E82422
:104C080002F582E93400F583E0FAEE6A7001EF609C
:104C180010EEF04F700888828983E4F0A3F07508DD
:104C280001E508601E851082851183AA82AB831274
:104C380012A3851082851183AC82AD837A0CA909F1
:104C48001214D1790180027900741A1219377F0879
:104C5800021A4A74F71219787F0080010FEFC39483
:104C6800045021EF75F003A4F8A9F0EC28F8ED3909
:104C7800F988828983E06A7003A3E06B70DEE8FA42
:104C8800E9FB80047A007B007F01021A4A74F7125C
:104C980019787E008030EE75F003A4F8A9F0EA28B0
:104CA800F8EB39F988828983E0F4FCA3E0F4FD8805
:104CB800828983ECF0A3EDF0E82402F582E9340060
:104CC800F583E0F4F00EEEC3940440CA7F01021AA3
:104CD8004A74F412197874F4121921EAFEEBFF8C65
:104CE8000A8D0BEE4F7005790A024DF11212C1E9D7
:104CF800F508C3940A40061212D3E9F508E508C37B
:104D0800940A4003024DEF75F006E508A4F509EE94
:104D1800FCEFFD7A0E74202509F91214D1E50A4535
:104D28000B600EAC0AAD0B7A1B74212509F912141D
:104D3800D1741812196CE0FCA3E0FDEC4D600A7AFE
:104D48001B74222509F91214D1741A12196CE0FC8B
:104D5800A3E0FDEC4D600A7A1074232509F91214BA
:104D6800D1741C12196CE0FCA3E0FDEC4D601D7AB7
:104D78001074242509F91214D1741E12196CAC820E
:104D8800AD837A0474252509F91214D17C0C7D00B1
:104D980079FF851082851183AA82AB8312113B8526
:104DA8001082851183AC82AD837A0C74702508F962
:104DB8001214D1750A0E750B00780A121B8BEEFCC3
:104DC800EFFDE50875F00EA4F8A9F0748328FA74CD
:104DD8000739FB121123740212193790080FE0608B
:104DE8000312132712130FA908740C1219377F0422
:104DF800021A4A74F712197874F2121921E9851007
:104E080082851183AC82AD837A0E75F006A42420C6
:104E1800F91214D7740C12196CE0F9740E121937C0
:104E28007F01021A4A74F412197874F2121921EAED
:104E3800FEEBFFE9C3940A5004EE4F700479028038
:104E48003E851082851183AC82AD837A0E75F0069B
:104E5800E9A42420F91214D7E9F5087020750A107E
:104E6800750B00780A121B8B740212196CAC82AD98
:104E780083EEFAEFFB1211237402121937A9087492
:104E88000E1219377F04021A4A74F4121978EAFECE
:104E9800EBFF75080080020508E508C3940A502F47
:104EA800750A10750B00780A121B8BEEFCEFFDE5F6
:104EB8000875F00EA4F8A9F0748928FA740739FB6C
:104EC8001211357402121937E960CCA908800279E9
:104ED8000A7F04021A4A74F4121978EAFEEBFF7585
:104EE800080080020508E508C3940A502F750A06D1
:104EF800750B00780A121B8BEEFCEFFDE50875F0C8
:104F08000EA4F8A9F0748328FA740739FB12113536
:104F18007402121937E960CCA9088002790A7F0463
:104F2800021A4A74F712197874F0121921EAFEEB82
:104F3800FF75080080020508E508C3940A504485F7
:104F48001082851183AC82AD837A1075F006E5086E
:104F5800A42423F91214D77C1079FF8510828511B7
:104F680083AA82AB831211A7E970CBEEFCEFFD8513
:104F78001082851183AA82AB8312057DE970B7A9D7
:104F8800088002790A74101219377F01021A4A74CC
:104F9800F71219787C8C7D0079007A837B071211CF
:104FA8003B7E00801EEE75F00EA4F8A9F0748328ED
:104FB800FC740739FD7A0E75F006EEA42420F91268
:104FC80014D70EEEC3940A40DC90080FE060031279
:104FD800132712130F7F01021A4A74F71219787EE9
:104FE8000080010EEEC3940A501E7C0679FFEE7510
:104FF800F00EA4FAABF074832AFA74073BFB121183
:10500800A7E960DFEEF98002790A7F01021A4A7483
:10501800F71219787E007F00801C7C0679FFEF75F7
:10502800F00EA4FAABF074832AFA74073BFB121152
:10503800A7E970010E0FEFC3940A40DEEEF97F0175
:10504800021A4A74F712197879007E008006EEF980
:105058001212E50EEEC3940A5003E960F17F0102D3
:105068001A4A74F712197874CB121921E9FE7C0ECA
:105078007D0079FF742712196CAA82AB8312113B49
:105088007C1B7D0079FF740C12196CAA82AB831209
:10509800113B7C0C7D0079FF851082851183AA82E3
:1050A800AB8312113B75F006EEA4FF742712196C3E
:1050B800AC82AD837A0E74202FF91214D1E9F50869
:1050C800740C12196CAC82AD837A1B74212FF912FF
:1050D80014D1E94208740C12196CAC82AD837A1BA6
:1050E80074222FF91214D1E94208740C12196CAC0D
:1050F80082AD837A1074232FF91214D1E94208740F
:105108000C12196CAC82AD837A1074242FF9121426
:10511800D1E94208740C12196CAC82AD837A04741C
:10512800252FF91214D1E94208851082851183AC24
:1051380082AD837A0C74702EF91214D1E94208A951
:105148000874351219377F01021A4A74F712197850
:1051580074F2121921E9900767F08510828511838E
:10516800AC82AD837A0E79201214D7E9600312124B
:10517800DF79011208AD1212CD740E1219377F01B2
:10518800021A4A74F6121978EAFEEBFF548060247A
:10519800900767E0F912116B8A088B09A909EA4997
:1051A800600A1212F7AA08AB09121153EEFAEF645B
:1051B80080FB80047A007B007F02021A4AC082C00A
:1051C800838A828B83E02450600C14600E24E17083
:1051D8000D12128B80081212FD8003121303D08364
:1051E800D082020114C082C0838A828B83A3A3A3C6
:1051F800A3E0641E701079008A828B83A3A3E0FA6F
:10520800A3E0FB121279D083D082020114C082C0BD
:10521800838A828B83A3A3A3A3E0702F8A828B83C4
:10522800A3A3A3A3A3A3A3121BA28A828B83A3A3D2
:10523800A3A3A3E0FCA3E0FD8A828B83A3A3E0FAE7
:10524800A3E0FB12127F7402121937D083D08202B6
:105258000114C082C083900767E0F98A828B83A318
:10526800E0FAA3E0FB1207F3D083D082020114C056
:1052780082C08374FF1219211212D9E9C3940285DE
:105288001082851183400474028002740AF0AC8293
:10529800AD837A0179051206857401121937D08316
:1052A800D08202011474F412197874E81219218A50
:1052B800088B09E9FE8C0A8D0B7C187D0079008526
:1052C8001082851183AA82AB8312113B85108285D7
:1052D8001183E508F0A3E509F0900769E0C0E074E0
:1052E8000212196CD0E0F090076AE0C0E074031273
:1052F800196CD0E0F0900B5EE0C0E0741712196CE6
:10530800D0E0F0741512196CE054FEF8A3E0F9909F
:105318000B5DE0A2E0E433FAE84AF8741512196C60
:10532800E8F0A3E9F0900B5DE0A2E15004D2F08030
:1053380002C2F0741512196CE054FDFAA3E0FBA246
:10534800F0E43333F8EA48F8EBF9741512196CE80D
:10535800F0A3E9F0900B5DE0A2E35004D2F08002E4
:10536800C2F0E854F7FAA2F0E433F50875090074BE
:1053780003780812190EEA4508F8741512196CE832
:10538800F0A3E9F0900B5DE0A2E45004D2F08002B3
:10539800C2F0E854EFFAA2F0E433F5087404780890
:1053A80012190EEA4508F8741512196CE8F0A3E909
:1053B800F0900B5DE0A2E55004D2F08002C2F0E864
:1053C80054DFFAA2F0E433F5087405780812190ED0
:1053D800EA4508F8741512196CE8F0A3E9F0900B87
:1053E8005DE0A2E25004D2F08002C2F0E854FBFA79
:1053F800A2F0E433F5087402780812190EEA450899
:10540800F8741512196CE8F0A3E9F090076AE060E7
:105418001D7508107808121B8B7C6B7D07740612AB
:10542800196CAA82AB8312112374021219379007E0
:105438007BE0600CEE6009741512196CE04402F010
:1054480090077BE0600478018002780074141219D8
:105458006CE048F0900768E0600478048002780007
:10546800741412196CE048F0AC0AAD0B85108285F3
:105478001183AA82AB831205A174181219377F040D
:10548800021A4AC082C08390077BE06004790180D9
:10549800027900900768E060047C0480027C00ECDC
:1054A800C949F9120655D083D08202011474F41246
:1054B800197874E51219218A0A8B0BECFEEDFF7539
:1054C800F006E9A4F874086F70047422800274214D
:1054D80028F5087C1B7D007900851082851183AA38
:1054E80082AB8312113B851082851183AC82AD8318
:1054F8007A1BA9081214D7E97024741A12196CE0DF
:1055080024F9C3940A5017851082851183AC82ADA3
:1055180083EEA2E0E433F9AA0AAB0B1205B3741BBD
:105528001219377F04021A4A74F71219781208718F
:10553800750800802AE50875F00EA4F8A9F07483B0
:1055480028FE740739FF7C0679FFEEFAEFFB12118B
:10555800A7E97009EEFAEFFB79001208770508E56C
:1055680008C3940A40CF7F01021A4A74F4121978CA
:1055780074FB1219218A088B09740312196C85822D
:105588000A85830B780A121B8B750A02750B007843
:105598000A121B8B750A26750B83780A121B8B7CE3
:1055A800FF7DFF7A017B001206C1740612193702CB
:1055B800565EE4F50AF50B780A121B8B740412196F
:1055C8006C85820A85830B780A121B8B7404121966
:1055D8006C85820A85830B780A121B8B7409121951
:1055E8006C121BA27902EEFCEFFDAA08AB091207A8
:1055F800E17408121937E9703B851082851183E040
:10560800FA740112196CE0F9EA2400F50AE439F594
:105618000BEA450B601E780A121B8B8E828F83A3C0
:10562800A3A3A3E0FCA3E0FDAA08AB0912127F74B0
:1056380002121937E4F50AF50B780A121B8B740568
:1056480012196C121BA27CFF7DFFEEFAEFFB12060B
:10565800CD74041219378A0A8B0BAE0AAF0BEE4FC2
:1056680060030255BA74051219377F04021A4AC03A
:1056780082C0839061907404F0A37448F0A374020C
:10568800F09061807440F09061BC7403F090618781
:105698007419F0906265741BF07900120C19790284
:1056A800120C1F9026F8E493F46006E493F9120BA9
:1056B800F57905120EFB025FB6C082C083E9540F6C
:1056C800F9906185E0696012E5C654804449F5C6E1
:1056D800E59E547F644970F8E9F053C680E59E540E
:1056E8007F70FA025FB674F7121978E5A8FE53A81E
:1056F8007E120C01C2BA539AFEC289759B00C2C2BF
:10570800120C0775A91175B905120C0DD2BA439A76
:105718000174805E42A80260CCC082C0839061811F
:10572800E4F0A3025FB375E90075910075BF00024C
:105738000114C082C083906181E4F0A374C0F0A317
:10574800E4025FB5C082C08374F81219219003C1C6
:10575800E070030257E8A2E6502379088510828595
:105768001183AA82AB83120D09851082851183AA41
:1057780082AB831208E39003C1E0C2E6F0E0A2E73F
:105788005010790C7A6D7B05120D099003C1E0C2A7
:10579800E7F0E0A2E0500879001257F0C2E0F0E02C
:1057A800A2E1500879011257F0C2E1F0E0A2E250FC
:1057B8000879001257FBC2E2F0E0A2E35008790131
:1057C8001257FBC2E3F0E0A2E4500879021257FB3B
:1057D800C2E4F0E0A2E5500879031257FBC2E5F0F5
:1057E8007408121937025FB6120C191208E99003EF
:1057F800C1E022120C1F1208EF9003C1E022C08200
:10580800C083E96005146019802D90619A7433F0A3
:10581800A37455F09061A0743AF09003C27461804B
:105828001590619A743FF0A3745AF09061A0747F48
:10583800F09003C2746AF0025FB6C082C083E96068
:105848000814600A14600C801390270080089027C1
:10585800018003902702E493906186F0025FB6749A
:10586800F4121978906186E0F8750A00850A0874C0
:10587800001265FF74271264B4E49368700E7470A4
:10588800250AF582748212639CF9800B050AE50AE1
:10589800C3940340D77980025ED974F112197874E1
:1058A800F4121921851082851183AC82AD8375832A
:1058B800827582B6740412183490270093F460033A
:1058C800025A6E907808E0C394025003025A4E744C
:1058D8000412196CAC82AD837583827582347408A6
:1058E800121834FC7EFF7FFF8E0E79008018740832
:1058F8006970030259FC74096970030259FC740A3F
:105908006970030259FC8908750900740278081245
:10591800190E125A8512196C125A78C082C0838ADD
:10592800828B8378081217F1740878081216F485A8
:10593800080C85090D8A828B8378081217F1741870
:1059480078081216F4E50C4508FAAB0DD083D0821E
:10595800C3E09AA3E09B890874027808403C1219B6
:105968000E125A8512196C125A78C082C0838A8224
:105978008B8378081217F18A828B8378081217F1C3
:10598800741878081216F4E50C4508FAAB0DD083A4
:10599800D082E0C39AFAA3E0804B12190E125A93F0
:1059A8008A828B8378081217F18A828B837808128F
:1059B80017F1741878081216F4E50C4508F508E58F
:1059C8000DF509ECC333FAE433FB740412196CE5E2
:1059D800822AF582E5833BF583E0FAA3E0FBE5083C
:1059E800C39AFAE5099BFBC3EA9EEB9F5006EAFEC1
:1059F800EBFF890E09E9C3941350030258F674FFAC
:105A08006E700374FF6F6034850E087509007402A8
:105A1800780812190E74481265FF74783509F583F1
:105A280078081217F1C0088C08851082851183E563
:105A3800821265FFE5831264B4D0E0F00CECC394E5
:105A48000450030258EC7508017509007808121B08
:105A58008B740212196CAC82AD837AC07B09121365
:105A68006F7402121937740C1219377F07021A4A19
:105A7800E5822508F582E5833509F58322125A93D4
:105A8800EC33F508E433F50974042274482508FA60
:105A980074783509FB2274F412197874FC121921F0
:105AA8009026FCC0829082BE78081217F175832672
:105AB800D08278081215AC6003025B4DE5C65480AD
:105AC8004449F5C6E59E547F644970F875E5047548
:105AD800DA0075DB0C75AF0075E40975E200E5AF17
:105AE800A2E050FA75E20053C680E59E547F70FA32
:105AF80075E400E5E2851082851183F0E5E3740121
:105B080012196C125B5578081217F1740178081293
:105B1800170D9082BA78081217CB851082851183E9
:105B280078081218007508017509007808121B8B8F
