:020000040000FA
:060000000200FC021F04D7
:03002B000226E0CA
:030033000226C6DC
:03005300021F7A0F
:03006B000226ACBE
:10008300021E67E5C754F84401F5C7790122000051
:100093000080FB120086B900030200E6E4791278BF
:1000A30008B800028004F709D8FCE490028178368E
:1000B30079088002F0A3D8FCD9FA9009B6AA82ABDA
:1000C3008390012C78F079038015E493A3AC82AD7F
:1000D300838A828B83F0A3AA82AB838C828D83D89D
:1000E300E9D9E77582D27583A3740312010E758271
:1000F30091758300740012010E75D00075813F75F0
:100103001081751102759F00020096C09FF59FE450
:1001130073D09F22D083D082C09FE493C0E0740148
:1001230093C0E0740293F59F22FF0000007800283B
:10013300002800283075A000A000A000A00000083F
:100143000008E001F0001000100010001000100083
:10015300100050005000500010001000D0070000A5
:10016300000000000F0030750700100001000000C0
:10017300FF130631061906FF02020A0A025000A005
:10018300000000E8030230830100002083025A8349
:10019300010000050A022883010000B002025A830D
:1001A300010000060A022683010000C502025A83E9
:1001B300010000070A025883030000C702025A83A2
:1001C300010000080A024E83030000C802025A839A
:1001D300010000090A0238830100000A0AFF010036
:1001E300FF200230830100001D83025A83010000B7
:1001F3006E0A0236830000000000022A8303000017
:100203001503690D690D690D690D690D690D690D99
:10021300690D690D690D690D690D690D45105D1055
:100223003F10FFFF020202020202020202010D005E
:10023300000010010230830100002383025A83016E
:100243000000B10A0246830100005F07025A8301DE
:100253000000B20A024483010000D881025A8301DC
:100263000000B30A024283010000BC81025A8301E9
:100273000000B40A0240830100002E81025A830168
:100283000000B50A023E83010000E680025A8301A2
:100293000000B60A023C830100000A81025A83016E
:1002A3000000B70A023A830100001C81025A83014D
:1002B3000000B80A025083010000AE81025A830194
:1002C3000000B90A026083010000BA0A01E80305CD
:1002D3003F10FF000130750302010600000000001B
:1002E300000000000000000000000000000000000B
:1002F30000000000000000FFFF06001000E80309F3
:1003030009426C696E6747494E410512500020034C
:10031300020A000201060302F0FF53696D706C6567
:1003230020424C45205065726970686572616C0BA0
:100333002515000031150A436861726163746572A3
:100343006973746963203100024368617261637485
:10035300657269737469632032000843686172616E
:100363006374657269737469632033001043686151
:100373007261637465726973746963203400024344
:1003830068617261637465726973746963203500AF
:100393000230830100001A83025A83010000C30B59
:1003A300025E830300009D09022C83010000C40B3D
:1003B300025A83010000D50B024C830100009E0901
:1003C300022C83010000D60B025A83010000E70BC5
:1003D300024A830200009F09022C83010000E80BFC
:1003E300025A83010000F90B025483000000A009A4
:1003F300022A83030000A109022C83010000FA0BE7
:10040300025A830100000B0C025683040000A70963
:10041300022C830100000C0C1201178093031201BC
:1004230017979303120117C69303120117FF930340
:100433001201172794031201175594031201176C25
:100443009403120117839403120117999403120161
:1004530017C09403120117D39403120117E99403ED
:10046300120117FC94031201172195031201172F90
:100473008B02120117308C02120117658C021201D4
:1004830017868C02120117968C02120117B78C0281
:10049300120117BF8D02120117858E02120117393F
:1004A3008F02120117BB8F02120117BE8F021201B6
:1004B30017F58F021201171D9002120117FD90020A
:1004C3001201175E9102120117CB91021201174517
:1004D30092021201174892021201174B9202120163
:1004E30017F592021201170D9302120117379302A7
:1004F300120117609302120117389402120117F5C3
:1005030094021201177AE002120117A2E00212010B
:1005130017D0E00212011707E1021201176FE1027F
:10052300120117B8E10212011708E202120117467D
:10053300E20212011783E202120117B1E202120171
:100543001740E3021201174AE30212011757E302AD
:100553001201178AE30212011756E402120117620D
:10056300E4021201177AE40212011784E402120171
:10057300176BA00312011779A00312011791A003AF
:10058300120117A9A003120117B5A20112011757EF
:10059300A301120117CFA301120117EDA401120148
:1005A3001710A501120117AFA50112011786A601A5
:1005B300120117BFA70112011763A801120117D572
:1005C300A801120117D8A90112011727AA011201C4
:1005D300174BAA0112011772AC01120117B6AC0135
:1005E300120117D8AC0112011726AD011201172809
:1005F300AE0112011715AF0112011723D002120128
:1006030017F5D002120117BED102120117FBD10256
:1006130012011788D20212011714D302120117EB29
:10062300D3021201171AD402120117DBD4021201EA
:10063300171AD502120117A6D502120117EAD5021D
:1006430012011710D6021201174CA303120117CE81
:10065300F102120117E4F1021201170AF202120168
:100663001725F3021201172FF3021201177AF4026E
:100673001201177AF50212011746E5021201173E1D
:10068300E6021201176AE6021201171CE8021201C0
:1006930017469301120117A99301120117E9940157
:1006A300120117F994011201171C95011201176722
:1006B30095011201170E96011201172297011201DB
:1006C30017F697011201176A9901120117A39901ED
:1006D300120117449A01120117919A01120117B7D7
:1006E3009A011201178A9C011201178F9C011201B2
:1006F30017769E01120117BD9E011201172C9F014F
:10070300120117549F01120117F39F01120117B52C
:10071300A001120117E6A001120117E9A0011201BD
:100723001731A10112011773A101120117E0A101F1
:10073300120117DC8C03120117EF8C031201170847
:100743008D031201174D8D03120117268E0312011B
:1007530017CB8E03120117188F03120117F426000B
:100763001201170027001201173927001201177B06
:100773002700120117322800120117B428001201B2
:10078300170A29001201173429001201176D2900D5
:10079300120117A52B001201178C2D001201175FF0
:1007A3002F00120117933000120117EA32001201D1
:1007B30017F833001201174335001201176836008A
:1007C300120117853600120117BD3600120117D723
:1007D30036001201174D3700120117523C00120167
:1007E30017F53C00120117553D001201177C3D001F
:1007F300120117CD3D00120117EB3D0012011749FD
:100803003E00120117203F001201179C4000120105
:10081300171E4100120117159F021201171F9F0295
:10082300120117D99F0212011711A0021201173EDC
:10083300A0021201179DA002120117C3A002120108
:100843001716A10212011752A1021201177AA1026F
:10085300120117ACA202120117D7A202120117113B
:10086300A30212011751A30212011775A302120169
:1008730017BFA302120117F9A3021201173BA40227
:100883001201176EA40212011799A402120117F4A0
:10089300A4021201172DA502120117A6A502120127
:1008A30017E5A50212011724A6021201176BA6026F
:1008B30012011795A602120117D2A602120117FC04
:1008C300A6021201172DA7021201176CA70212012B
:1008D300179FA702120117E8A70212011731A802F6
:1008E3001201175BA802120117F5ED02120117336B
:1008F300EE0212011796EE0212011752EF021201D5
:100903001733F00212011761F0021201174EF102C0
:10091300120117C1CE01120117DACE01120117120B
:10092300D001120117FBD0011201171AD1011201D4
:1009330017DBD10112011721D301120117FFD301D4
:1009430012011779D70112011706D801120117CA2C
:10095300D801120117BAD90112011726DB011201BE
:1009630017BCDB0112011737DC0112011784F502F2
:10097300120117B1F50212011715F6021201172021
:10098300F6021201172BF60212011736F6021201B4
:100993001768F6021201173AF702120117B7F702A6
:1009A30012011747F80212011750F80212011770CB
:1009B300F8021201177FF80212011797F8021201C9
:1009C30017A0F802120117B7F802120117D8F8029C
:1009D300120117E1F802120117EDF802120117F6DE
:1009E300F80212011706F90212011710F902120197
:1009F300171AF9021201172AF902120117459D036A
:100A0300120117AE9D03120117029E03120117294B
:100A13009E03120117A7E90212011714EA02120139
:100A23001756EA021201174BEB021201174EEC02A2
:100A330012011738ED021201172EB10212011770BD
:100A4300B10212011759B20212011739B30212018E
:100A53001734B40212011714B50212011780B5023C
:100A63001201173EB602120117AEB6021201171594
:100A7300B70212011740B702120117A6B7021201FB
:100A8300174EB802120117BFB802120117D8B802E5
:100A93001201171CB90212011735B902120117947A
:100AA300B90212011797B902120117D8FC021201F9
:100AB3001700FD021201173EFD02120117EBFD02A2
:100AC3001201175FFE021201177BFE02120117A328
:100AD300FE02120117D3FE02120117E2FE021201F7
:100AE3001756FF021201177CFF021201177F6A00DB
:100AF300120117896B00120117DC6C0012011799A0
:100B03006D00120117E06D001201170F6E00120144
:100B1300172D6E001201176F6E00120117856E00FC
:100B2300120117D16E00120117066F001201172F61
:100B33006F00120117976F00120117FC6F0012016B
:100B430017BD7300120117C2740012011727750035
:100B5300120117A97500120117597700120117A87E
:100B63007700120117ED7800120117407900120186
:100B730017C77900120117167A001201173D7A0080
:100B8300120117077B00120117267B001201175B66
:100B93007B00120117C27B001201174D7C0012016A
:100BA30017917C00120117B37C00120117BD7D0061
:100BB300120117EA7D00120117487E00120117BBCC
:100BC300B902120117DDB90212011753BF02120154
:100BD30017EFBF0212011760C102120117E8C10229
:100BE300120117675600120117B15600120117DEE2
:100BF30056001201171157001201171E5700120158
:100C0300172A57001201173C5700120117F6570015
:100C13001201173258001201175758001201179288
:100C230058001201178E5A001201174E5B00120171
:100C330017BC5B00120117545C001201170F5D0013
:100C43001201179F5D00120117635E0012011772F4
:100C53005E00120117DE5E001201177F5F001201B2
:100C630017AD5F00120117486000120117A1600061
:100C7300120117CA60001201177C61001201172FBD
:100C83006200120117CE62001201173A63001201CB
:100C930017906300120117E863001201170B640039
:100CA300120117C364001201170466001201174DE5
:100CB30066001201176A66001201178966001201A5
:100CC30017E066001201170D670012011782670013
:100CD300120117BD6700120117C5680012011758EA
:100CE30069001201171A6A00120117516A001201F2
:100CF30017609502120117B19502120117BD9502F3
:100D03001201179B9602120117C19602120117F1E5
:100D130096021201175D97021201178F97021201B3
:100D230017C89702120117E09702120117359802AC
:100D33001201174E9802120117979802120117AA6F
:100D43009802120117C49802120117DA98021201CD
:100D530017E29902120117279B02120117519C02F5
:100D63001201173A9D02120117F57F001201171B9A
:100D7300EA0112011765EA0112011764ED0112017C
:100D830017C5EE011201179AEF011201171FF101A6
:100D9300120117F4F1011201172EF201120117517A
:100DA300F2011201178CF20112011795F2011201DF
:100DB30017D8F201120117E2F20112011791F301A0
:100DC3001201176DF401120117CDF4011201172757
:100DD300F5011201176AF50112011799F5011201C4
:100DE30017EDF501120117678301120117238A0119
:100DF300120117298A01120117638F01120117AB20
:100E03009201120117118703120117878703120139
:100E1300179D87031201172688031201176B880396
:100E2300120117A68803120117F688031201176D22
:100E330089031201177689031201178289031201AC
:100E430017958903120117BA8903120117D0890371
:100E5300120117338A0312011785D6021201179262
:100E6300D602120117ACD602120117EBD6021201F9
:100E73001729D7021201178ED702120117A3D7021F
:100E8300120117AED702120117BBD702120117D2F4
:100E9300D702120117E0D702120117EBD702120192
:100EA30017F7D70212011706D80212011711D80239
:100EB30012011734D802120117E0D802120117F0F9
:100EC300D8021201170FD9021201172CD9021201ED
:100ED300173DD90212011759D90212011767D90216
:100EE30012011771D90212011785D902120117A62F
:100EF300D90212011707DA021201170DDA021201E1
:100F03001713DA0212011719DA021201171FDA0294
:100F130012011746DA0212011781DA021201179B36
:100F2300DA02120117E6DA0212011719DB021201C3
:100F33001751C001120117D3C0011201178FC1014C
:100F430012011721C30112011777C5011201174AB4
:100F5300C6011201177FC601120117BDC601120196
:100F6300172DC701120117EAC80112011713C9018E
:100F73001201179FC901120117D1C901120117DE0E
:100F8300C90112011729CA011201174FCA0112011F
:100F9300171BCD0112011718CE0112011774CE01D0
:100FA3001201179CB101120117C7B201120117B642
:100FB300B301120117C0B301120117E2B301120109
:100FC30017EEB30112011787B501120117B4B5016A
:100FD300120117CDB60112011728B7011201179498
:100FE300B8011201176EB901120117D6B901120126
:100FF300173EBA0112011773BA01120117B6BA01EB
:101003001201176CBD0112011784BD0112011719DA
:10101300BE0112011727BE0112011774BE0112018E
:101023001782BE01120117EDBE011201175EBF0147
:10103300120117B5BF011201170080021201172216
:10104300800212011733820212011708850212016E
:1010530017278602120117E58602120117DB8702A2
:10106300120117339503120117589503120117C67E
:1010730095031201170AC20212011713C2021201C9
:10108300171CC202120117FEC202120117B3C402D7
:10109300120117E7C40212011716C5021201174AFB
:1010A300C50212011779C502120117ADC50212015B
:1010B30017D9C5021201171CC6021201174BC6022B
:1010C30012011792C602120117E8C6021201171B7A
:1010D300C7021201176BC7021201179AC702120146
:1010E30017E9C7021201172CC8021201175BC802C5
:1010F3001201178CC802120117C2C8021201178A03
:101103009803120117189A03120117C4F60112016A
:1011130017D2F60112011714F7011201175FF70135
:1011230012011799F701120117F3F70112011716AC
:10113300F8011201175BFB0112011769FB01120190
:1011430017BEFB01120117F0FB01120117FFFB0190
:101153001201170EFC0112011783FC011201170D76
:10116300FD0112011759FD0112011790FD01120132
:101173001709FE011201174BFE0112011793FE011D
:10118300120117A5FE01120117C8FE01120117D1A2
:10119300FE011201178FFF011201175A9E0312015C
:1011A300170D9F03120117819103120117B79103C2
:1011B300120117ED9103120117429303120117AEA7
:1011C300A203120117C4A203120117D4A20312012E
:1011D300171EA3031201173FA403120117A4DB0276
:1011E300120117B9DB021201176DDC02120117B1EC
:1011F300DC02120117CEDC0212011709DD02120113
:101203001756DD021201178ADD02120117C8DD022B
:101213001201170DE002120117BE9B03120117E71B
:101223009B03120117169C03120117BC9C031201A6
:1012330017FE9C031201178F8303120117B4830354
:10124300120117E08303120117A6A40312011787E3
:101253004100120117584300120117C9440012013B
:1012630017354500120117BD45001201173C460012
:10127300120117654600120117814A001201171067
:101283004B001201174B4C00120117854C00120141
:1012930017C94C00120117EB4D001201171D4E0028
:1012A300120117814E00120117CE4E001201171BB7
:1012B3004F00120117874F00120117D24F0012017E
:1012C300170750001201173B50001201175A500024
:1012D3001201174351001201177B5100120117B578
:1012E3005100120117DD51001201170552001201BE
:1012F300174A52001201176752001201179D52003C
:101303001201177B5400120117A554001201172074
:10131300550012011763550012011763A10312014F
:101323001774A103120117A37F00120117E07F00B6
:10133300120117B8A5031201170FA2031201171FF9
:10134300A20312011739A203120117ABA203120160
:1013530017659F03120117EA9F0312011752A00397
:10136300120117E296031201170897031201176E71
:1013730097031201178E9703120117E097031201C7
:10138300173D98031201177998031201177C9803EC
:10139300120117008003120117158003120117466B
:1013A3008103120117D48103120117EF8103120184
:1013B300170A82031201175882031201177282035C
:1013C3001201178C8203120117A28203120117C1A3
:1013D3008203120117E0820312011709830312012A
:1013E300175A830312011791A503120117A1A5032D
:1013F300120117A4A503120117F87F001201174267
:101403008F03120117D790031201173891031201AA
:10141300177E9103120117EE7F001201178C7E00D5
:101423001201179E7E00120117FA7E00120117A700
:10143300A503120117B2A503120117309A03120173
:1014430017879A03120117029B031201176B9B0361
:10145300120117638A031201178D8A03120117649D
:101463008B031201176A8C0312011780A802120161
:101473001751A90212011792A902120117C8A90252
:101483001201172DAA0212011788AA02120117FDD1
:10149300AA0212011798AB021201177CAC021201C7
:1014A3001708AD0212011754AE02120117E1AE0282
:1014B30012011748AF02120117B3AF02120117C18D
:1014C300AF02120117E4B00212011774DC0112011A
:1014D30017B2DF0112011739E1011201175FE101B0
:1014E30012011786E10112011709E2011201179F88
:1014F300E30112011757E4011201174FE80112012A
:101503001787E80112011761C9021201176FC90297
:10151300120117EDCB021201177BCC02120117AF98
:10152300CC0212011701CD0212011727CE021201BC
:10153300170ACF021201177DCF0212011734F902E5
:1015430012011779F90212011796F9021201174BCA
:10155300FA021201179EFA0212011781FB0212010D
:10156300179FFC0212011705A503120117C4FF02FE
:10157300120117BFFF011201174BA50312011773C5
:10158300A503E066701008A3E066700A08A3E0668E
:10159300700408A3E06622E4936670130874019351
:1015A30066700C08740293667005087403936622D0
:1015B300C3E7960809E7960809E7960809E796221C
:1015C300C3E09608A3E09608A3E09608A3E096225A
:1015D300C008C3E096F50808A3E096420808A3E014
:1015E30096420808A3E09645087001D3D008220864
:1015F3000808EAC0E0EBC0E086F0E7A4FA18098621
:10160300F0E7A42AFA180986F0E7A42AFA1809864B
:10161300F0E7A42AFA1986F0E7A4FBE5F02AFA1901
:101623000886F0E7A42BFBE5F03AFA190886F0E701
:10163300A42BFBE5F03AFA18180986F0E7A4C5F0E5
:101643002BFBE43AFA1908E7C5F0C6A426F6E5F041
:101653003BFBE43AFA1886F0E7A4F6E5F00826F631
:10166300E43B08F6E43A08F6D0E0FBD0E0FA22E4E3
:10167300CFC0E0E4CEC0E0E4CDC0E0E4CCC0E07590
:10168300F020C3E633F608E633F608E633F608E659
:1016930033F6181818EC33FCED33FDEE33FEEF335D
:1016A300FFC3EC9709ED9709EE9709EF97191919FD
:1016B300400FFFEC97FC09ED97FD09EE97FE191912
:1016C30006D5F0BEECF709EDF709EEF709EFF719C8
:1016D3001919D0E0FCD0E0FDD0E0FED0E0FF22609D
:1016E30016080808C6C313C618C613C618C613C6F9
:1016F30018C613C6D5E0EA22700908080822601646
:10170300181818C6C333C608C633C608C633C60876
:10171300C633C6D5E0EA22E627F60809E637F60817
:1017230009E637F60809E637F622E026F608A3E0CD
:1017330036F608A3E036F608A3E036F622E026F0F4
:1017430008A3E036F008A3E036F008A3E036F02261
:10175300C3E697F60809E697F60809E697F6080937
:10176300E697F622C3E0C696F608A3E0C696F60807
:10177300A3E0C696F608A3E0C696F622C3E096F069
:1017830008A3E096F008A3E096F008A3E096F02201
:10179300E056F608A3E056F608A3E056F608A3E0E1
:1017A30056F622E056F008A3E056F008A3E056F000
:1017B30008A3E056F022E046F608A3E046F608A3A5
:1017C300E046F608A3E046F622E046F008A3E0462A
:1017D300F008A3E046F008A3E046F022E0F608A3F1
:1017E300E0F608A3E0F608A3E0F622E6F008A3E695
:1017F300F008A3E6F008A3E6F022E0FAA3E0FBA3D7
:10180300E0FCA3E0FD22EAF0A3EBF0A3ECF0A3EDF0
:10181300F022CAC0E0E6F0A308DAFAD0E0FA22CA5E
:10182300C0E0E0A3C582CCC582C583CDC583F0A348
:10183300C582CCC582C583CDC583DAE6D0E0CA2292
:10184300C3E498F8E499F91218848026C3E49AFA59
:10185300E49BFBE920E7E9121884E498F8E499F99A
:1018630022C3E498F8E499F9121884E498F8E49907
:10187300F9C3E49AFAE49BFB22EB20E7CFE920E7E4
:10188300E0B90010BB0008E88AF084F8AAF022E46B
:10189300FBC8FA22EB70227B10C833C8C933C933A3
:1018A3005007C39AC3DBF280069A50012ADBEAC8C9
:1018B30033F4C8C933F4C9FA2275F008E4C833C84D
:1018C300C933C933C99AC99B5004C92AC93BD5F046
:1018D300ECFBC833F4C8E4C9FA22600D08C6A2E7DA
:1018E30013C618C613C6D5E0F322600C08C6C3138B
:1018F300C618C613C6D5E0F422700422600D18C6BC
:10190300C333C608C633C6D5E0F41822251010AF7A
:1019130008F510400215118008F51040021511D288
:10192300AF22C0D0251010AF08F51050020511806A
:1019330008F51050020511D2AFD0D0222510F58240
:1019430010AF08F510400215118008F5104002157C
:1019530011D2AF851183222510F582E43511F58369
:1019630022E4732510C582C0E0E51134FFC583C0AE
:10197300E0E510C3958224F810AF088583118582B2
:10198300108008858311858210D2AFCEF0A3E520A5
:10199300F0A37808E608F0A3DEFAEFF0A3E58124CC
:1019A300FAF8E608F0A3E608F0A3E608F0A30808AF
:1019B300E608F0A3E608F0A315811581D0E0FED078
:1019C300E0F8158115811581E8C0E0EEC0E022251D
:1019D30010C582C0E0E51134FFC583C0E0E510C344
:1019E300958224F910AF08858311858210800885BC
:1019F3008311858210D2AFCEF0A3E520F0A378083F
:101A0300E608F0A3DEFAEFF0A3E58124FBF8E6088D
:101A1300F0A3E608F0A30808E608F0A3E608F0A39D
:101A230015811581D0E0FED0E0F815811581E8C05D
:101A3300E0EEC0E022851183851082E0A3FEE0A3DF
:101A4300F5207808E0A3F608DFFAE0A3FFE0A3C0DF
:101A5300E0E0A3C0E0E0A3C0E0E0A3C0E0E0A3C0F7
:101A6300E010AF0885821085831180088582108578
:101A73008311D2AFD083D0820201148511838510E4
:101A830082E0A3FEE0A3F5207808E0A3F608DFFADE
:101A9300E0A3FFE0A3C0E0E0A3C0E0E0A3C0E0E078
:101AA300A3C0E010AF08858210858311800885826A
:101AB30010858311D2AFD083D08222C0D02510C528
:101AC30082C0E0E51134FFC583C0E0E510C3958211
:101AD30024F310AF08858311858210800885831154
:101AE300858210D2AFC8F0A3E9F0A3EAF0A3EBF02C
:101AF300A37908E709F0A3D8FAECF0A3EDF0A3EE7D
:101B0300F0A3EFF0A3D0E0F0A3D0E0F0A3D0E0F097
:101B1300A3E520F0A3E5F0F0A322851183851082CD
:101B2300E0C0E0A3E0F9A3E0FAA3E0FBA37808E0B8
:101B3300F608A3DFFAE0FCA3E0FDA3E0FEA3E0FFC9
:101B4300A3E0C0E0A3E0C0E0A3E0F5D0A3E0F5206C
:101B5300A3E0A3F5F010AF088583118582108008F8
:101B6300858311858210D2AFD082D083D0E0F8D0A4
:101B7300E03274048006740280027401C0E0F4044D
:101B830012193FD0E01218152274048004740280E5
:101B930000CCC0E0EDC0E0E510C39CCCAD1150011A
:101BA3001D10AF068C108D1180068C108D11D2AFD5
:101BB300121822D0E0FDD0E0FC22D083D082E9C00D
:101BC300E0E493A3C386F0C5F095F0F908E493A38A
:101BD30086F0C5F095F0700BE493A3C3994005E933
:101BE300048002A3E475F002A42582F582E5F035B2
:101BF30083F583D0E0F9E493A3C0E0E493C0E0224B
:101C0300D083D082ECC0E0EDC0E0E493A3FCE49386
:101C1300A3FDED4C600D121C4FEC24FFFCED34FFD3
:101C2300FD80EFE493A3FCE493A3FDED4C600D1260
:101C33001C8EEC24FFFCED34FFFD80EFD0E0FDD0E3
:101C4300E0FCE493A3C0E0E493C0E022C0E0C3E47B
:101C53009396087401939618400FE49366700808EE
:101C6300740193661870007019A3A3C3E4939608D4
:101C73007401939618A3A3400DD0E0D0E0D0E00206
:101C83001C3FA3A3A3A3A3A3D0E022C0E0C0F0887A
:101C9300F0E4936670080874019366187000A8F066
:101CA300A3A3700BD0F0D0E0D0E0D0E0021C3FA3A0
:061CB300A3D0F0D0E022F6
:101CBC0074F51219D2EAFEEBFFEE2434F8EF34007F
:101CCC00F988088909EE2435121E16F8EE2437120D
:101CDC001E16F50AEC850AF0A4FCAAF0850AF0EDB4
:101CEC00A42AFDE82CF8E43DF97A257B001218842F
:101CFC00EA850882850983F05407F87401B800025C
:101D0C008004C333D8FCC0E0E0131313541FF8EE67
:101D1C0028F8EF3400F9E8245DF582E93400F58306
:101D2C00D0E0F8E0586008EE2434F582EF8019EE2C
:101D3C002436121E16F5F0EA84A8F0EE28F8EF34DB
:101D4C0000F9E82438F582E9121E19F97F04021A09
:101D5C007E74F71219D28A088B09EA2434F582EBC7
:101D6C00121E19C0E0EA2435F582EB3400F583D05D
:101D7C00E0F08A828B83A3A3A3A3A3A3A3C082C0F6
:101D8C00838A828B83A3A3A3A3A3E0F8A3E0F9D057
:101D9C0083D082E0C398FEA3E099FFEA2480F58209
:101DAC00EB121E196401704FEA2481F582EB3400AA
:101DBC00F583121B908A828B83A3A3A3A3A3A3A353
:101DCC00E0FCA3E0FD8A828B83A3A3A3A3A3E0FA88
:101DDC00A3E0FB121E1F7402121925E960197CF294
:101DEC007D04AA08AB09120C9DE5082480F582E558
:101DFC00093400F583E4F0EEFCEFFDAA08AB091200
:101E0C001CBC12269E7F02021A7EF582EF3400F56E
:101E1C0083E022C082C083851082851183E0F8A301
:101E2C00E0F9C3EA9CEB9D500BC3EC98ED99401282
:101E3C0079018010C3EA98EB9940F5C3EC98ED99C1
:101E4C0050EE7900D083D08222EAC39CFAEB9DFB42
:101E5C00220000008512878513C622C0E074F2129E
:101E6C001ABE759B00906182E0A2E6503DE591A2FE
:101E7C00E650377591BF9003BFE064057008120EF1
:101E8C002F120E3B8003120E35751200120E95E9BF
:101E9C009003C0F07900120E89120C077A017B00B6
:101EAC009003BEE0F91211718049E0A2E55024E5DF
:101EBC0091A2E5501E7591DF9003BFE0640D701385
:101ECC009003E0E004F064287002E4F07A00E0F99A
:101EDC00120F25906181E0A2E35009E5E9A2E350DD
:101EEC000375E9F7A3E0A2E75009E591A2E75003D7
:101EFC0075917F7F01021B1DC0E0C0D0C082C083E2
:101F0C00906183E0A2E05009E5BFA2E0500375BFE9
:101F1C00FEE0A2E15009E5BFA2E1500375BFFDE070
:101F2C00A2E25009E5BFA2E2500375BFFBE0A2E3B9
:101F3C005009E5BFA2E3500375BFF7E0A2E45009D6
:101F4C00E5BFA2E4500375BFEFE0A2E55009E5BF81
:101F5C00A2E5500375BFDFE0A2E65009E5BFA2E69B
:101F6C00500375BFBFD083D082D0D0D0E032C0E058
:101F7C0074F2121ABEE5A7A2E6500FE5A1A2E65034
:101F8C000953A7BF75A1BF121FCCE5A7A2E5500C42
:101F9C00E5A1A2E5500653A7DF75A1DFE5A7A2E1F5
:101FAC005009E5A1A2E1500375A1FDE5A7A2E250FD
:101FBC000CE5A1A2E2500653A7FB75A1FB021EFF84
:101FCC0074F81219D27512019003BFE064067015F3
:101FDC00120D998A828B83A3A3A3A3A3A3E0FAA3D4
:101FEC00E0FB120E1DA2AFE433FED2AF9003C4E0AF
:101FFC00640170187A207B009003BEE0F912120184
:10200C007A207B009003BEE0F9121177906182E098
:10201C00D2E6F085C61380169003C3E06401700805
:10202C00E5C654F84405F5C653BEFC121E60740197
:10203C00651260E453BEFCEEA2E092AF7F01021A7F
:10204C007E0000008E148F158582198583188510EB
:10205C0082851183E0CEA3E0CF851982851883EBAE
:10206C00C9EAC8EDCBECCA75F010C3E833C8E93344
:10207C00C9EA33CAEB33CBC3EA9EF517EB9FF516CF
:10208C00B35004AB16AA17EC33CCED33CDD5F0DA44
:10209C00AE14AF152274F11219D274F212190F7416
:1020AC000612195AECF0A3EDF0EAFEEBFF9003BF19
:1020BC00E024F7C39405500690828602223A120D52
:1020CC0099851082851183EAF0A3EBF08510828547
:1020DC001183E0F8A3E0F9E8497003022237EEFC23
:1020EC00EFFD740812195AAA82AB83120E4D1222FC
:1020FC006078081217DF9082A67808121793740282
:10210C0012195A78081217EE740812195A780C1210
:10211C0017DF9082A6780C121793740212195A7852
:10212C000C1215D34029740212195A78081217DFB1
:10213C007808790C12175385080C85090D850A0E41
:10214C00850B0F9082D2780C1215D34041804785B5
:10215C000C08850D09850E0A850F0B740212195A8D
:10216C0078081217679082D278081215D3501F7511
:10217C000800750900750A00750B017808790C12B6
:10218C001753740212195A780812172D800890826E
:10219C008678081217DF750C19750D00780C121B58
:1021AC0079740978081216FBFAAB09AC0AAD0B125C
:1021BC00205074021219258A0C8B0D8C0E8D0F7405
:1021CC0010780C1216E2122260A3A3A3A3122256BB
:1021DC0012188488088909E4F50AF50B780C79083B
:1021EC0012171A740C12195A122256121884E8FA81
:1021FC008A08E4F509780C79081215B35007780CA5
:10220C0079081217539003BFE06408600AE0640673
:10221C006005E06405701C9082CE780C1215D350CA
:10222C00129082C6780C12172D800890828A780C36
:10223C001217DF740612195A12226C780C1217EE50
:10224C00740E1219257F08021A7EE0F8A3E0F97AC1
:10225C00D07B032285108285118312226CA3A322CA
:10226C00E0F8A3E0F58388822274F71219D2120EDB
:10227C005F120E0BE5C654804449F5C6E59E547FAB
:10228C00644970F8906185740FF090054BE0F47020
:10229C0002A3E0604E90054CE0600814601B1460D3
:1022AC002E804075080175090090054BE0780812E6
:1022BC0018FCE508F45280802A7508017509009015
:1022CC00054BE078081218FCE508F4529080147560
:1022DC00080175090090054BE078081218FCE50818
:1022EC00F452A079007F02021A7E74F71219D2E917
:1022FC00FE9026E8E493F46008E493F9120BE9806D
:10230C000953C680E59E547F70FA120E1190054B4E
:10231C00E0F47002A3E0604B90054CE060081460A0
:10232C001A14602C803D75080175090090054BE06E
:10233C0078081218FCE50842808028750801750998
:10234C000090054BE078081218FCE50842908013C9
:10235C0075080175090090054BE078081218FCE52A
:10236C000842A0120E5F120D998A088B09A808A9C1
:10237C0009E8496015E5E170FCE82414F582E934BC
:10238C0000F583E0F46003E0F5E174016E700A7A05
:10239C00019003BEE0F91211CB0222F174F1121973
:1023AC00D28A0C8B0D8C0E8D0F740F12195A780863
:1023BC001217DF9082A6780C1217939082A67808D9
:1023CC00121793780C79081215B35015780C7908FC
:1023DC0012175390829A780C1215D34015790180FC
:1023EC00137808790C12175390829A78081215D327
:1023FC0040EB79007F08021A7E74F11219D274FC3A
:10240C0012190F851082851183EAF0A3EBF0A3EC6F
:10241C00F0A3EDF0741312195A78081217DF90829A
:10242C00A6780C1217DF851082851183780C121791
:10243C00A69082A67808121793851082851183784E
:10244C00081215C34014851082851183780C12175D
:10245C00DF780C7908121753801E750C00750D006F
:10246C00750E00750F01780C7908121753851082C0
:10247C00851183780C12172DAA0CAB0DAC0EAD0F79
:10248C00740412192502240074F11219D28A0C8BCF
:10249C000D8C0E8D0F740F12195A78081217DF90CD
:1024AC0082A6780C1217939082A67808121793784C
:1024BC0008790C1215B34011780C7908121753AA2D
:1024CC000CAB0DAC0EAD0F800F7808790C121753B6
:1024DC00AA08AB09AC0AAD0B0224009082A67808BE
:1024EC001217DF8A828B8378081217A67F04021AD0
:1024FC007E74F51219D28C828D8378081217DF8ABC
:10250C00828B83780812177F122555C3E09CF0A3A9
:10251C00E09D12254740229082C278081217DF8A6C
:10252C00828B8378081217408A828B83A3A3A3A380
:10253C00E02420F0A3E0344EF080A0F08882898360
:10254C00C3E09420A3E0944E22EA2404F8EB340078
:10255C00F98C828D83A3A3A3A3E0FCA3E0FD888266
:10256C0089832274F51219D2E9FE7A007B00900758
:10257C0055E064017008900508E0FAA3E0FBEEC397
:10258C0033F8E433F9746128F582748139F583E00A
:10259C002AF508A3E03BF5097808121B799082F222
:1025AC001217FD12205074021219258A088B098CFF
:1025BC000A8D0B741078081216E2AA08AB097F0476
:1025CC00021A7E74F11219D28A0C8B0D8C0E8D0F9F
:1025DC00740F12195AE0FAA3E0FB741112195AE0A5
:1025EC00F508A3E0F509741312195AE0FEA3E0FFF5
:1025FC007808121B79122693E4F50AF50B780C79FE
:10260C00081215F290827A78081217DF780C790884
:10261C001215F2AA0CAB0DAC0EAD0F1220507402B9
:10262C001219258A088B098C0A8D0B8B0DEA450D26
:10263C0060047A0180027A00741078081216E2ECB9
:10264C002AFCED3400FDECF8EDF97A717B021218DE
:10265C0084880889098E828F8378081217EEECF82B
:10266C00EDF97A717B02121884122693740578089E
:10267C001218FC8E828F83A3A3A3A3E508F0A3E515
:10268C0009F07F08021A7EEA2401F508EB3400F504
:10269C000922C082C083E9906000F0D083D08222EE
:1026AC00C0E074F2121ABEE589A2E1500312138144
:1026BC00758900C2C57F01021B1DC0E074F2121A9D
:1026CC00BEE58BA2E05003121381758B00C2E87F2C
:0A26DC0001021B1DC2C753BEFC32F1
:1026E800FFFFFFFFFFFFFFFFFFFFFFFFC082C08369
:1026F800E9900A6DF002296074F7121966E99002F0
:10270800DDF07C157D037AFF7BFF1207ED9002DE7A
:1027180074FFF0A3F0A3E4F0A3F079051207759015
:1027280002DDE0F912069D7A0B7B08120AB1023627
:10273800B874F4121966EAFEEBFF5480602C90021C
:10274800DDE0F91211598A088B09EA450960138AF4
:10275800828B83E064B0700312078DAA08AB09125C
:102768001141EEFAEF6480FB80047A007B007F045D
:10277800021A3874F212196674FC12190FEAFEEB89
:10278800FF741212195A122F4BEE4F700302281EB3
:10279800740212195AEEF0A3EF1240868510828552
:1027A8001183AA82AB83120697E9F50A706BE508D4
:1027B800450960658E828F8312417DEE4F60577A9E
:1027C800067B001211B38A0C8B0DA80CA90DE849E1
:1027D8007005750A13804288828983E4F0122826DE
:1027E800A3EEF0A3EFF088828983123E3D9002E3C6
:1027F8001228AE9002E37005124096801CE0FCA3FC
:10280800E08003EAFCEBFD8C828D831228AE70F326
:102818008C828D8380E2750A02A90A023743A312CB
:10282800282B22F088828983A32274F212196689E0
:102838000AE975F017A4FEAFF09002E2E4F0900206
:10284800E01228AE600A1211B99002E0E4F0A3F099
:10285800EEFAEFFB1211B38A088B09EA4509602BDF
:10286800EEFCEFFD79001211299002E0123E417B47
:10287800008008122898E4F0A3F00BEBC3950A40F7
:10288800F2E50A9002E2F0790080027913023748F3
:10289800EB75F017A4F8A9F09002E0E028FAA3E09D
:1028A800398A82F58322123648EA4B2274F21219C9
:1028B80066EAFEEBFF740E12195A123CDA7508002C
:1028C8007509008003122F3EC3E5089CE5099D5059
:1028D8002A85080A85090B7403780A1218FCEE2564
:1028E8000AFAEF350BFB8A828B83A3A3123D47E5D7
:1028F8000C687003E50D6970CC80047A007B0002D7
:10290800374874F41219667900EAA2E0501B75087A
:10291800747509827808121B797C047D007A6F7BB4
:102928000A12076F7402121925022776C082C08323
:102938009002E3122967601C88828983A3A3E06A56
:102948007003A3E06B8882898370E8A3A3A3A31212
:10295800364480047A007B00D083D08202011412AE
:102968003D4FE8492274F012196674FC12190F8A57
:10297800088B09851082851183E4F0A3F0EA24020C
:10298800F50CEB3400F50D12307F8A828B83A3A3FC
:10299800A3A3E024FE603924FC604624FE60522490
:1029A800FE605E24FE7003022A8524FE7003022B5B
:1029B8000724FE7003022B1624FE7003022B252425
:1029C800FC7003022B3424FE7003022B43022B8776
:1029D8009002FC7417F0A3E4122B96120421022B28
:1029E80087851082851183AC82AD83120793022BF1
:1029F80050851082851183AC82AD83120799022B12
:102A080050740212195AAC82AD83850A82850B83F1
:102A18001233DE8A0E8B0FAC0EAD0FEC4D604CE41A
:102A2800F50EF50F780E121B79750EFC750F0278EE
:102A38000E121B79750EFD750F02780E121B797434
:102A48000812195A121B907916850C82850D83126B
:102A5800407D121925E9FF70147CFC7D02850C82EB
:102A6800850D83123644120439800E7F01850A824F
:102A7800850B83122B8A124096EF022B51850A0E82
:102A8800850B0F740212195AAC82AD83850E8285AC
:102A98000F831233DE8A0A8B0BAC0AAD0BEC4D6048
:102AA8004D850E82850F83A3A3121B90750AFC75B2
:102AB8000B02780A121B79750AFD750B02780A1247
:102AC8001B79740812195A121B907916850C828585
:102AD8000D8312407D121925E9FF70147CFC7D02DC
:102AE800850C82850D8312364412043F808B7F014A
:102AF800850E82850F83122B8A124096022A8185C1
:102B08001082851183AC82AD8312079F803A8510AD
:102B180082851183AC82AD831207A5802B85108234
:102B2800851183AC82AD831207AB801C851082852A
:102B38001183AC82AD831207B1800D851082851197
:102B480083AC82AD831207B7E9FEEE603285088256
:102B5800850983A3E064146026850882850983A318
:102B6800A3A3A3E09002FCF0851082851183123D97
:102B78004B9002FD124096EEA3122B9612041B02F4
:102B88002D82E0F8A3E0F985108285118322F07C7C
:102B9800FC7D02850C82850D831236482274F01262
:102BA800196674FA12190F740412195A1233EBF5D4
:102BB80008EB3400F5097C157D0079007AFC7B026E
:102BC800121129E508240212351285108285118315
:102BD80085820C85830D780C121B798508828509FE
:102BE80083123C03121B79E5082405F50CE509342A
:102BF80000F50D780C121B79123C1A85088285099C
:102C0800831232A01219258A0C8B0DAE0CAF0DE57C
:102C18000A2402F50AE50B123085EE4F7003022DE7
:102C28005B8015740212195A1236448882898312FD
:102C380032DB9002FCE004F09002FCE0C394054013
:102C480003022D5BE4F50CF50D780C121B79750C5D
:102C5800E5750D02780C121B79750CE6750D027876
:102C68000C121B79740612195A121B907910EEFC7B
:102C7800EFFD850A82850B8312407D121925E970C4
:102C88005C850882850983A3A3A3A3A3A3A3E0F873
:102C98009002E5E0687046123C07121B797CE67DDD
:102CA80002E5082408FAE5093400FB12112374022E
:102CB800121925E960278E828F83A3A3A3A3123656
:102CC800449002FCE0F50C7402780C1218FC74FDB8
:102CD800250CF5827402350DF5831232DB7402126D
:102CE800195A85820C85830D780C121B797402128F
:102CF800195A121B90123C1AEEFAEFFB1206C17415
:102D0800041219258A0C8B0DAE0CAF0D9002FCE055
:102D1800F50C750D007402780C1218FC74FC250C67
:102D2800F87402350DF988828983A31228AE7003DE
:102D3800022C22E82403080808E93400F9EE4F6061
:102D480003022C2B8882898374FFF0A3F09002FC85
:102D5800E004F09002FCE0600A12363A12042D7981
:102D6800008013850882850983123D4B740412196B
:102D78005A124093790A7406800274041219257F46
:102D880008021A3874F012196674F812190F7402CE
:102D980012195A1232DB740612195A12353D74028E
:102DA80012195AE02405F8A3E0123630124096852D
:102DB8001082851183123663F508A3E0F5097E00B9
:102DC8007F00740412195A85820A85830B780A12C7
:102DD8001B79740212195A123BEFF50A750B007829
:102DE8000A121B79740412195AE02405F50AA3E0A3
:102DF800123085780A121B79740612195A123BCEC2
:102E0800122F531206B574061219258A0C8B0DEA77
:102E1800450D7003022EF0EA2404122F1C122F4BCA
:102E28008A828B83A3A3A3E0F9740212195A12327F
:102E3800C76003022EF0E4F50AF50B780A121B7935
:102E4800750AE5750B02780A121B79750AE6750B87
:102E580002780A121B79740A12195A121B907913F4
:102E6800AC0CAD0D740A12195A124078121925E9E2
:102E7800FF70759002E5E0F8EE7009E02402900218
:102E8800FDF080149002FDE0FCE82402FAE434002E
:102E9800FBEA6C7001EB70538E82AA8212308A941E
:102EA800141230775042850E82850F83E0C0E012FD
:102EB8003285D0E01232D0C0E0123291D0E0123226
:102EC800E1121B79122F281219259002E5E02EFE37
:102ED80074FF6508700474FF6509600C122F3EEEDC
:102EE800C394145003022DCAEE60121232A9740260
:102EF80012195A1232BA12043379008012EF700292
:102F08007F0A740612195A123BCE123E41EFF97429
:102F180008022D84F50EEB123516850E82F58322F4
:102F28007CE67D028E0A74FE250AFA74023400FBE0
:102F3800121111740222E5082401F508E50934008C
:102F4800F50922E0F508A3E0F50922A3A3E0FCA314
:102F5800E0FDAA08AB092274F012196674FC121974
:102F68000F740212195A12353DEA2405F50EEB12B8
:102F780035167F009002FCE4F0FEEA24021230824B
:102F880080489002FCE0FA9002E5E0F812308A945A
:102F980017123077400D9002FCE0F87416C3989031
:102FA80002E5F0E0F5087509007808121B797CE65F
:102FB8007D0274FD2AFA7402122F35121925900227
:102FC800E5E0F89002FCE028F00EE50E2416F58204
:102FD800E50F3400F583E0F8EEC398400302306C47
:102FE8009002FCE0C39416507BEEC333F8E433F947
:102FF800E50E28F508E50F39F50985108285118356
:10300800AC82AD83850882123533AC0CAD0DEC4D26
:1030180070137F018508828509831233D812195AE3
:103028001240938045E4F50CF50D780C121B797568
:103038000CE5750D02780C121B79750CE6750D02FE
:10304800780C121B79740612195A121B907916857E
:103058000A82850B8312407D121925E9FF7003024D
:103068002F8A80B012363A120445EFF9022D82E910
:103078009400C365D03322EA2405F50AEB3400F541
:103088000B22EA28F8E43400F9E82274F0121966F1
:1030980074F812190F8510828511831232DB7406B9
:1030A80012195A12353D851082851183E02405F5E1
:1030B8000CA3E03400F50D7E007F00740412195A49
:1030C8008582088583097808121B79850C82850D0D
:1030D80083A3A3A3A3E0F5088E097808121B79E55A
:1030E8000C2405F508E50D3400F5097808121B795C
:1030F800850C82850D83A3A3123C20850C82850D47
:10310800831232A01219258A088B09801F888289A8
:103118008374FFF00E12329174FF1232E1121B79A0
:10312800122F281219259002E5E02EFEE508450920
:103138006029850882850983A3A3122B8C1232C7C4
:10314800E5082404123512EF602B850E82850F8363
:10315800123D4B740612195A124093EE7003023254
:103168006A1232A98510828511831232BA12044B71
:103178007900023282E4F50AF50B780A121B797598
:103188000AE5750B02780A121B79750AE6750B02B7
:10319800780A121B79740A12195A121B907911AC09
:1031A80008AD09740812195A124078121925E9FF56
:1031B80070988E82AA82EE9002E57009E02404904D
:1031C80002FDF08025E0F89002FDE0F50AE824040D
:1031D800FCE43400FDEC650A7001ED708412308A5D
:1031E80094121230774003023169850E82850F836D
:1031F800E0C0E0123285D0E01232D0C0E012329145
:10320800D0E0F00E740212195A85820A85830B7871
:103218000A121B79740612195A121B90850C8285A2
:103228000D83122F531206C174041219258A088BB4
:10323800098E0A74FE250AF874023400F9EA450971
:103248007003023115740212195AE088828983F0DA
:103258000E740212195AA3E0C0E0123291D0E002B3
:103268003122EF70027F0A850C82850D83123D4B57
:10327800740612195A124093EFF9022F1774FE2A96
:10328800F58274023400F583228E0A74FE250AF54D
:103298008274023400F583221236481206B5740689
:1032A800229002FDE0F5F0EE849002FCF07CFC7DBB
:1032B80002221232BE22124072E0FAA3E0FB22126E
:1032C80032BE1206A3E9FF22F00E850E82850F8317
:1032D800A3E022EAF0A3EBF022F00E9002E5123C04
:1032E800382274F012196674FC12190F740212193C
:1032F8005A1233EBFEEB3400FF851082851183AC44
:1033080082AD838E828F831233DE8A088B09EA4569
:103318000970030233A8E50A2402F50EE50B1235FD
:10332800168A828B83A3A3A3E0A2E550228510828C
:10333800851183123BF560637912AC08AD09850EDF
:1033480082850F83123C10121964E9F5087056E45F
:10335800F508F5097808121B798E828F83A3A3E0FC
:10336800F5087808121B79EE2403F508EF3400F508
:10337800097808121B798E828F83123C2012364EF0
:10338800121925E9F508701D1233CC7029850E82B3
:10339800850F83123644120451801B75080E80096C
:1033A8007508018004E508600D8E828F831233D87A
:1033B80012195A1240931233CC600479008002A982
:1033C80008022D82EE2418F582EF3400F583E022FE
:1033D800123D4F7402221233E222E0FAA3E0FB12FC
:1033E80006BB22ECF0A3EDF08A0A8B0BEA24052237
:1033F80074F012196674FC12190F740212195A1219
:10340800353D8A0E8B0F12307F7508008510828536
:103418001183AC82AD83850A82123533AE0CAF0DB1
:10342800EE4F70030234FBE50E2402F50EE50F1291
:1034380035168E828F83A3A3A3E0A2E5502F8510B3
:10344800828511831236441207C98A088B09EA4516
:103458000960427912EEFCEFFD850E82850F83121A
:103468003529121964E9F50860030234FE850E82D5
:10347800850F83124181EEFAEFFB12351B70127A29
:10348800FF7BFF12351B606688828983EEF0A3EF0D
:10349800F07E00800675080E805C0E9002E2E0FA6D
:1034A800EEC39A5049EE75F017A4FAABF0888289FA
:1034B80083A3A3E02AFAA3E03BFB8A828B83123C16
:1034C80020EC4D70D5750C17750D00780C121B7912
:1034D800AC0AAD0B1211117402121925AC0AAD0B0E
:1034E800850E82850F83123644120457801775089B
:1034F800098003750801850A82850B831233D81267
:10350800195A124093A908022D82F50EE5093400D4
:10351800F50F221207BD8A0C8B0DA80CA90DE849DE
:103528002212364885088285098322F5831233E200
:103538008A0C8B0D22ECF0A3EDF02274F0121966C0
:1035480074FC12190F740212195A12353DEA240537
:10355800F8EB123630124096750900EA2402122F51
:103568001C123644124113700302361F750800807E
:103578006E8510828511831236636401704A8E82CB
:103588008F83A3A3121B908E828F83123C03121B7E
:1035980079EE2405F50CEF3400F50D780C121B7943
:1035A80012364E121925E9F509601D85108285111C
:1035B80083123BCEE4F08E828F831236447402125B
:1035C800195A123BCE1232DB7C177D007900EEFAD5
:1035D800EFFB1211298E828F83E4F0A3F005089087
:1035E80002E2E0F8E508C398501EE50875F017A454
:1035F800F8A9F0850A82850B83A3A312405D123CCB
:1036080020EC4D6003023579850A82850B8374FFAF
:10361800F0A3F0E509700C850E82850F83123644FD
:1036280012045DA909022D823400F98510828511E2
:1036380083227CFC7D02850A82850B831236482210
:10364800E0FAA3E0FB22850E82850F83123648122A
:1036580007DB740622850A82850B83123BD2E0229F
:10366800C082C0839002DEE06A7003A3E06B70063C
:103678007ADE7B0280047A007B0002296074F712EC
:1036880019667F00EF75F003A4F8A9F0EC28F8EDAF
:1036980039F988828983E06A7003A3E06B7006E8D1
:1036A800FAE9FB800B0FEFC3940240D87A007B0045
:1036B8007F01021A3874F6121966123CE970067A0C
:1036C800007B008007A3A3A3A3123644023DB9746C
:1036D800F2121966E9FE740E12195AE0F50AA3E00F
:1036E800F50B741012195AE0F50CA3E0F50D8C8255
:1036F8008D83E064027040123D4A88828983E0F538
:1037080008A3E0F9A808740268700374296970278F
:103718007508027509007808121B79850C08850D53
:10372800097808121B79780A121B79EEF91207FF3B
:10373800740612192580027901800574041219256E
:103748007F06021A3874F012196674F612190F748B
:103758000612195A1232DB740212195A12353D74C4
:103768000112195AE9F0741C12195A122F4B7420BD
:1037780012195A124181851082851183E4F074026E
:1037880012195A124069E0A2E4502F741A12195AF9
:10379800123BF5700302387A790A740212195A1228
:1037A8003C20740612195A123C10121964E985104B
:1037B80082851183F06003023883740212195A1249
:1037C800366364026003023B61740212195AA3E073
:1037D800F5838882123D4A850882850983A38582FC
:1037E8000E85830F740212195AE02406F50AA3E025
:1037F80012308588828983E0FAA3E0F9EA2400F58B
:103808000CE439F50D780C121C030100002801287E
:103818003A3807000228323903289A3800296D3AC5
:103828000129953A0229353A03296D3A0429FE3AC5
:10383800613BEE4F7052850A82850B83123D4BE83F
:10384800FAE9FB8A828B83E0C0E0741E12195A12CF
:103858003BCED0E0123C2F121B798A828B83A3E0E7
:10386800FCA3E0FDAA08AB09121111740212192574
:103878008009851082851183740EF0851082851168
:1038880083E0F9740A022D84851082851183740BF4
:1038980080E8EE4F70F2741E12195A123BCE740172
:1038A800F012365D850882850983F07C007D0074FE
:1038B8000212195A123BEF2401FAA3E03400FB125A
:1038C80006BBEA4B60498A828B83E02402F8741EA7
:1038D80012195AE0F9A3E0F5838982E028F0EA2476
:1038E80004F8EB3400F988828983E0850E82850F1D
:1038F80083123C41123C2F121B798A828B83A312BC
:103908003C20E5082403FAE5093400FB023870740A
:103918001E12195A1236632404F07C047D007900C3
:10392800AA0EAB0F121129023883EE4F600302383A
:103938009012365DFEA3E0FF741E12195A123BCE98
:103948007404F0EE850882850983F0EF850E828580
:103958000F83F0740812195AAC82AD83EEFAEFFBAC
:103968001206BB8A0A8B0BEA450B7003023A138ACC
:10397800828B83A3A312417D740412195A85820C89
:1039880085830D780C121B79740A12195A121B9030
:103998007CFF7DFF1206C174041219258B0DEA45C0
:1039A8000D7033850A82850B83123C07121B7985BB
:1039B8000A82850B83A3121B907C027D007A2E7BE2
:1039C800831204F97404121925E9700A740412198F
:1039D8005A74FFF0A3F08E828F83E064027036750C
:1039E8000A02750B00780A121B798E828F83A31244
:1039F8003C20E5082404FAE509122F35121925742C
:103A08001E12195A12366324028009740412195AB4
:103A1800EEF0A3EFF0740412195A123BC4F07404C8
:103A280012195AA3123BBCA3A3A3023882EE4F601B
:103A380003023890850A82850B83123C2074061293
:103A4800195A1236441207F38A0A741E12195A12A6
:103A58003BDFE50A850882850983F0850E82850F9C
:103A680083EB023882EE4F600302389012365DF81D
:103A7800A3E0F9741E12195A123BDFE88508828503
:103A88000983F0E9850E82850F8302388212363E5B
:103A980012110BEAFC8C82A882C39EE49F404CE87A
:103AA8006E7001EF70047C00801E740112195AE0D8
:103AB800FAEE2AFAEF3400FBC3EA98EB94005003BD
:103AC800E08004EECCC39CFC741E12195A123BCE43
:103AD800ECF08C0C750D00780C121B79850A828528
:103AE8000B83E02EFCA3E03F02386B851082851122
:103AF800837407023882EE4F6003023890850A8289
:103B0800850B83123D4B741E12195A123BE674073B
:103B1800F088828983123BBC122827E0850E8285B3
:103B28000F83F0E82402FAE93400FB8A828B8312BF
:103B38003BBC123C26123BC4122826A3A3A3123B6B
:103B4800C8F0E82405F8E93400F988828983123B33
:103B5800C8A3123C41A3023A2F741A12195A123CF4
:103B6800E2700302387A123D4B880A890BE8450B4C
:103B7800700302387A8E0C8F0D780C121B79742022
:103B880012195A121B907808121B79740712195AC5
:103B9800E0F9740812195A123C20740C12195A12BE
:103BA8003C101219647406121925E98510828511D2
:103BB80083023882E085088285098322123C4822E4
:103BC800123C48A3A322123BD222123BD622E0F891
:103BD800A3E0F583888222123BE67402F022E0FA21
:103BE800A3E0F5838A822212406DA3E022123648B0
:103BF8001207C98A0A8B0BEA450B22A3A3A3A3E0E9
:103C0800F50C750D00780C22123648850A82850B52
:103C18008322850E82850F83E0FCA3E0FD22A3A307
:103C2800F08A828B83A322F08A828B83123C38220B
:103C3800E0F50A750B00780A2212282B123C48225C
:103C4800E0850882850983A3A32274F21219667499
:103C5800FC12190F740212195A1232DBECFAEDFB3E
:103C6800741412195AE0FE741612195AE0F50AA3D0
:103C7800E0F50B851082851183AC82AD831206BBFB
:103C88008A088B09EA4509604485108285118312E8
:103C98003CE26035A3A3123CDAE8450D602B780AB4
:103CA800121B79741412195A121B90EEF9AC08AD54
:103CB80009740612195A123644850C82850D83122E
:103CC800196474041219258006790E80027901029C
:103CD8003743123D4F880C890D22123648123CE9B1
:103CE800221207878A828B83E58245832274F61223
:103CF800196674FE12190F740C12195A123D4BE80A
:103D0800851082851183F0740112195AE9F0E4F5DF
:103D180008F5097808121B797508027808121B79CA
:103D2800740412195A8582088583097808121B7948
:103D38001207DB740612192574021219258072A362
:103D4800A3A3A3123D4F22E0F8A3E0F92274F712CF
:103D58001966EAFEEBFF89087C157D031207F3EA72
:103D68005402600BA908EEFAEFFB1206AF80027945
:103D7800010236B874F612196674FF6A700374FF8C
:103D88006B701C7B00EB75F003A4F8A9F0EC28F825
:103D9800ED39F9123DBE0BEBC39402501480E612C4
:103DA80007C38A088B09A808A909E8496003123DD6
:103DB800BE7F02021A388882898374FFF0A3122812
:103DC8002BA3E4F02274F61219661207C38A828BB9
:103DD80083E58245836006A3A3E0FA80027A007B2C
:103DE8000080CE74F21219668A088B098C0A8D0B32
:103DF800740E12195AE0FE1207C38A0C8B0DA80C18
:103E0800A90DE8497022AC0AAD0B7AFF7BFF1207B7
:103E1800C38A0A8B0BA80AA90BE849700479118098
:103E28001188828983123E41EE88828983A3A3F098
:103E38007900023748A3A3A3A3E508F0A3E509F096
:103E48002274F012196674FE12190F8510828511FA
:103E58008312353D8A088B09890B741212195A127C
:103E68003D4B741412195A123C20741612195A1226
:103E78003644750A00EC4D6003023F167402650B68
:103E88006003023F1188828983E0FCA3E0F9EC24F7
:103E980000FEE439FFEAF4F8EBF4F9EE58F8EF59CC
:103EA800F9E849705F851082851183E02406F50ED4
:103EB800A3E0122F1F122F551207F38A0C8B0DEE59
:103EC800650C7003EF650D60488E0C8F0D780C1231
:103ED8001B79850E82850F83122F551207F97402FC
:103EE800121925E9F50A7029780C121B7974021247
:103EF800195A123BCEA3A3122F531208117402129F
:103F08001925800D750A808008750A0D8003750AC9
:103F18000BA90A7402022D8474F012196674E51252
:103F2800190F740212195AEAF0A3EB124086890E8F
:103F3800742F12195AE0F50F750800750900E50984
:103F480075F003A4F8A9F0740212195A12405DE042
:103F5800F47003A3E0F4700302404A8E828F83A3B7
:103F6800A3E0700302404A851082851183121B90DA
:103F7800742F12195A123C20742D12195A123644F1
:103F880012077B74021219258A0C8B0DEA450D70F5
:103F98000302404AE4F50AF50B780A121B79740803
:103FA80012195A85820A85830B780A121B79740BB9
:103FB80012195A85820A85830B780A121B79743183
:103FC80012195A124069A3121B907914AC0CAD0D4A
:103FD8008E828F8312407D121925E97065850C82C7
:103FE800850D83123D47740412195A1240968E8229
:103FF8008F83A3A3E0A2E05018A90E740412195AE3
:10400800AC82AD838E828F831236441206D3E94286
:10401800088E828F83A3A3E0A2E15026E50FF50A5C
:10402800780A121B7DA90E740512195AAC82AD8349
:104038008E828F831236441206CD7401121925E937
:1040480042080509E509C394025003023F46A9083E
:10405800741B022D84E028FEA3E039FF8E828F8333
:104068002212406D22124072A322123BD6A3A32231
:10407800123BD2A3A31236481207D5740822F08542
:104088001082851183ECF0A3EDF022123BE6E8F0F4
:10409800A3E9F02274F21219668A088B09E9FF7401
:1040A800016F600D74026F705F7901120ACFE970B9
:1040B80057AA08AB0912411360437E00800A7C1797
:1040C8007D0079001211290E9002E2E0F8EEC39803
:1040D8005020EE75F017A4F8A9F0850A82850B83A5
:1040E800A3A3E028FAA3E039FB8A828B831229670D
:1040F80070CC850A82850B8374FFF0A3F07C157D54
:1041080003AA08AB091207ED0237481207BD8A0A4D
:104118008B0BEA450B2274F21219668A0A8B0B8CF8
:10412800088D09740E12195A124181900A6DE0F433
:1041380060407A097B0012113BEA4B60358A828B1A
:104148008374B1F0A3E4123C28A3123C26A3E50A29
:10415800F0A3E50B123C28123E3D8A828B83A3A371
:10416800A3A3A3A3A3EEF0A3EFF0900A6DE0F912C6
:104178001147023748A3A3A3A3E0FEA3E0FF2274DC
:10418800F4121966E9FE7F008A088B097808121B69
:10419800BD00040D3143BA41D741F2410F422C42D0
:1041A80049426A4287429942BF42C742DD42F342CE
:1041B8000D4374016E600302432D8C828D83E0F8F9
:1041C800C39403400302432DE8900B5902430A7439
:1041D800026E600302432D8C828D83E0F8A3E0F920
:1041E800900B5AE8F0A3E902430A74016E600302D7
:1041F800432D8C828D83E0F8C39402400302432D43
:10420800E890076802430A74016E600302432D8C2C
:10421800828D83E0F8C39405400302432DE890079C
:104228006902430A74016E600302432D8C828D83F8
:10423800E0F8C39402400302432DE890076A024362
:104248000A74106E600302432D7508108F097808F0
:10425800121B797A6B7B071211117402121925024D
:10426800435174016E600302432D8C828D83E0F804
:10427800C39402400302432DE890077B02430A746B
:10428800016E600302432D8C828D83E0900B5D806C
:104298007174046E600302432D8C828D837808123A
:1042A80017DF9082F278081215D3407990077D784D
:1042B800081217EE024351EE706B1212C780617438
:1042C800016E70618C828D83E0F8C394025056E8C9
:1042D80090077C802D74016E704B8C828D83E0F882
:1042E800C3940A5040E8900B5C801774016E7035D7
:1042F8008C828D83E0F874F928C3940A5027E890DB
:104308000B5EF0804474016E701B90080FE0F88C0F
:10431800828D83E090080FF0E8702EE06401702928
:104328001212B580247F188020C3EA9423EB9400EE
:10433800501574026E70108C828D83E0FCA3E0FD32
:10434800120505E9FF80020F0FEFF97F04021A3802
:1043580074F112196674DA12190F8C0C8D0D908293
:1043680058C082C083742012195AAC82AD83D0839E
:10437800D0827406121822742012195AAC82AD83A6
:1043880012125BE9FE743512195AE0F508EEC3946F
:104398000A40030244A8121297E9FF7404650860F2
:1043A80008900B59E06402700DAD08EFFCEEF9AA15
:1043B8000CAB0D1213097C147D007900740C1219D2
:1043C8005AAA82AB8312112975F006EEA4F5097476
:1043D8000C12195AAC82AD837A1074242509F9128B
:1043E80014C5E9703C7C1079FF740C12195AAA8222
:1043F800AB83121195E97029741C12195AAC82AD5D
:10440800837A0474252509F91214C5740C12195AF3
:10441800AC82AD83EFA2E0E433F9AA0CAB0D120530
:104428008F851082851183AC82AD837A0C74702ECF
:10443800F91214C5E97058851082851183AA82ABD8
:104448008312128B7E008041EE75F003A4F8A9F068
:10445800851082851183E58228F8E58339F98882F9
:104468008983E0FCA3E0FDEC4D601D88828983A36D
:10447800A3E0F50A750B00780A121B79AA0CAB0D9C
:104488001207E174021219250EEEC3940440B9EF25
:10449800A2E1500C900767E0F9AA0CAB0D1207E7F0
:1044A80074046508700F900B59E064027007AA0C39
:1044B800AB0D121303790074261219257F07021A0F
:1044C8003874F21219668A088B09ECFEEDFF750A3A
:1044D8000AE9600B146008146031146033804712D5
:1044E80012A9E9F50AC3940A503CEE4F6038750CDE
:1044F80006750D00780C121B79AC08AD09EEFAEFC1
:10450800FB1211117402121925801B1212A38003C9
:104518001212AFE9F50AC3940A500BEE4F6007EE8A
:10452800FAEFFB12129DA90A7F06021A3874F412D8
:104538001966E9FF7E1574FF6A700374FF6B7029B2
:104548007508008011FC7A027B00A908121279E92B
:1045580060027E000508E508C3940AEF40E7604E54
:104568007AF17B12120AE18045120AC38A088B0984
:10457800EA450960387C007D00EA2405FAEB34003E
:10458800FB850882850983A3A3A3A3E0F912125B24
:10459800E9C3940A500BEFFC7A027B001212797E71
:1045A80000EF600AAA08AB091212F180011EEEF9A9
:1045B8007F04021A3874F21219668C088D097E1568
:1045C800740E12195AE0F50AA3E0F50B74FF6A702D
:1045D8000374FF6B701D7F00EFC3940A504FAC0A41
:1045E800AD0BAA08AB09EFF912127FE960027E0051
:1045F8000F80E5120AC38A828B83E5824583602C8B
:104608007C007D00E5822405FAE5833400FBA3A342
:10461800A3A3E0F912125BE9C3940A5010AC0AADE7
:104628000BAA08AB0912127F7E0080011EEEF97FEB
:1046380006021A38C082C083900781EAF0A3EBF023
:10464800900767E0FC7D007A227B00120505900741
:1046580067E0F912075DD083D08202011474F0126A
:10466800196674EC12190FEAFEEBFF8E828F83A392
:10467800A3E024FA7003024A6E24FD700302494342
:1046880014700302473B14601024FD70030248E5D0
:1046980014700302497D024A77900781E0F8A3E08D
:1046A800F9E8496062900781E0F8A3E0F583888221
:1046B800E0F8A3E0F988088909E845096049EE248B
:1046C8000CF582EF3400F583E0F50A780A121B7DB9
:1046D800EE240BF582EF3400F583E0F98E828F83A8
:1046E800A3A3A3A3A3A3A3A3A3E0FCA3E0FDEE2499
:1046F80003FAEF3400FB8508828509831219647474
:1047080001121925024A77EE2409FEEF3400FF8EC4
:10471800828F83121B9090077D1217FD1205A174DA
:1047280002121925E97003024A7779018E828F8374
:10473800024A048E828F83A385820E85830FE060F0
:104748000302489CEE2405F508EF3400F5098508B6
:1047580082F583E0A2E0400302489C7C0E7D00794C
:1047680000851082851183AA82AB83121129EE2459
:1047780008F50CEF3400F50D850C82F583E0FAA3FB
:10478800E0FBEA4B6010750A06750B00780A121BED
:1047980079EA241080248E828F83A3A3A3E0FAA34E
:1047A800E0FB120AC3EA4B7003024A77750A0675E2
:1047B8000B00780A121B79EA2405FCEB3400FD741F
:1047C8000212195AAA82AB83121111740212192506
:1047D800850882850983E0A2E25004D2F08002C2F3
:1047E800F0A2F0E433F8740C12195AE048F08E8203
:1047F8008F83A3A3A3A3A3A3A3A3A3A3E0FAA3E0E4
:10480800FBEA4B6011EA2410F582EB3400F583785B
:10481800081217DF800C7508FF7509FF750AFF7508
:104828000BFFEA4B70047A007B00850C82850D83B0
:10483800E0F8A3E0F9E8496006880C890D80067560
:104848000C00750D007808121B758A088B0978080A
:10485800121B79780C121B79EE240CF582EF3400C8
:10486800F583121B908E828F83A3A3A3A3A3A3E037
:10487800FCA3E0FD740A12195AAA82AB83121291A2
:10488800740A1219258E828F83A3A3A3E0FAA3E0EA
:10489800FB121315900781E0F8A3E0F9E8497003CB
:1048A800024A77900781E0F8A3E0F5838882A3A302
:1048B800E0F8A3E0F98909E845097003024A778519
:1048C8000E82850F83E0FC79018E828F83A3A3A3D8
:1048D800E0FAA3E0FB8882850983024A69EE240393
:1048E800F508EF3400F509850882F583E0FAA3E0BE
:1048F800FB121315900781E0F8A3E0F9E84970036B
:10490800024A77900781E0F8A3E0F5838882A3A3A1
:10491800E0F8A3E0F9890BE8450B7003024A778EAB
:10492800828F83A3E0FC7902850882850983E0FAF7
:10493800A3E0FB8882850B83024A697C007D00EE38
:104948002404FAEF3400FB8E828F83A3A3A3E0F93B
:1049580012125BE9F8C3940A4003024A77EE240A6C
:10496800FCEF3400FD7A0475F006E8A42425F9125A
:1049780014BF024A77EE2403F508EF3400F50985E1
:104988000882F583E0FAA3E0FB90077CE0600790DB
:104998000B5CE0F9806B900B59E07004790580613D
:1049A800120AC38A0A8B0B8E828F83A3A3A3A3A3A5
:1049B800A3A3E0A2E0504FEA450B7003024A778AAE
:1049C800828B83A3A3A3A3E0F9603B8E828F83A38A
:1049D800A3A3A3A3A3A3A3A3E054107029740E1246
:1049E800195AAC82AD83EA2405FAEB3400FB1212A3
:1049F8005BE970127903850882850983E0FAA3E0F0
:104A0800FB12059B8069EE2405FCEF3400FD850A46
:104A180082850B83A3A3A3A3E0F985088285098374
:104A2800E0FAA3E0FB1212FD900781E0F8A3E0F999
:104A3800E849603B900781E0F8A3E0F5838882A30A
:104A4800A3E0F8A3E0F9E8FEE9FFEE4F60217C005F
:104A58007900850882850983E0FAA3E0FB8E828FBE
:104A6800831219648009120661E970031212B57481
:104A7800141219257F08021A3874F412196674F290
:104A880012190FEAFE8C0975F006E9A42420F5082E
:104A9800851082851183AC82AD837A0EF91214C514
:104AA800E970597C0679FF851082851183AA82AB4B
:104AB80083121195E97045740C12195AE0F8A3E0B5
:104AC800F9E8F50BE5096005EE420B8004EEF452B7
:104AD8000B850B82AA82E86A7001E9601B740C12CC
:104AE800195AEAF0A3E4F0851082851183AC82ADEF
:104AF800837A0EA9081214BF790180027900740E16
:104B08001219257F04021A3874F012196674E61215
:104B1800190F890C8A0E8B0FECFEEDFF740C12191D
:104B28005AAC82AD837A0E75F006E9A42420F912F6
:104B380014C5E96003024C3F7C0679FF740C121916
:104B48005AAA82AB83121195E96003024C3F747034
:104B5800250CF509851082851183AC82AD837A0C0A
:104B6800F91214C5E96003024C3B750800851082F0
:104B7800851183AA82AB8312128BE50E450F70292B
:104B88007C0C7900851082851183AA82AB8312116F
:104B980095E9707D7C0C7D007900851082851183F4
:104BA800AA82AB831211298065851082851183AC96
:104BB80082AD83AA0EAB0F1212858A0A8B0BA80A44
:104BC800A90BE8497028EE4F606D85108285118326
:104BD800AC82AD837A007B00121285EAF8EBF9EA21
:104BE8004B605488828983E50EF0A3E50FF0E82432
:104BF80002F582E93400F583E0FAEE6A7001EF60AD
:104C080010EEF04F700888828983E4F0A3F07508ED
:104C180001E508601E851082851183AA82AB831284
:104C2800128B851082851183AC82AD837A0CA90919
:104C38001214BF790180027900741A1219257F08AD
:104C4800021A3874F71219667F0080010FEFC394B7
:104C5800045021EF75F003A4F8A9F0EC28F8ED3919
:104C6800F988828983E06A7003A3E06B70DEE8FA52
:104C7800E9FB80047A007B007F01021A3874F7127E
:104C880019667E008030EE75F003A4F8A9F0EA28D2
:104C9800F8EB39F988828983E0F4FCA3E0F4FD8815
:104CA800828983ECF0A3EDF0E82402F582E9340070
:104CB800F583E0F4F00EEEC3940440CA7F01021AB3
:104CC8003874F412196674F412190FEAFEEBFF8CAB
:104CD8000A8D0BEE4F7005790A024DE11212A9E90F
:104CE800F508C3940A40061212BBE9F508E508C3A3
:104CF800940A4003024DDF75F006E508A4F509EEB5
:104D0800FCEFFD7A0E74202509F91214BFE50A4557
:104D18000B600EAC0AAD0B7A1B74212509F912142D
:104D2800BF741812195AE0FCA3E0FDEC4D600A7A32
:104D38001B74222509F91214BF741A12195AE0FCBF
:104D4800A3E0FDEC4D600A7A1074232509F91214CA
:104D5800BF741C12195AE0FCA3E0FDEC4D601D7AEB
:104D68001074242509F91214BF741E12195AAC8242
:104D7800AD837A0474252509F91214BF7C0C7D00D3
:104D880079FF851082851183AA82AB831211298548
:104D98001082851183AC82AD837A0C74702508F972
:104DA8001214BF750A0E750B00780A121B79EEFCF7
:104DB800EFFDE50875F00EA4F8A9F0748328FA74DD
:104DC8000739FB121111740212192590080FE060BF
:104DD8000312130F1212F7A908740C1219257F0475
:104DE800021A3874F712196674F212190FE985104D
:104DF80082851183AC82AD837A0E75F006A42420D7
:104E0800F91214C5740C12195AE0F9740E12192506
:104E18007F01021A3874F412196674F212190FEA33
:104E2800FEEBFFE9C3940A5004EE4F700479028048
:104E38003E851082851183AC82AD837A0E75F006AB
:104E4800E9A42420F91214C5E9F5087020750A10A0
:104E5800750B00780A121B79740212195AAC82ADCC
:104E680083EEFAEFFB1211117402121925A90874C6
:104E78000E1219257F04021A3874F4121966EAFE14
:104E8800EBFF75080080020508E508C3940A502F57
:104E9800750A10750B00780A121B79EEFCEFFDE518
:104EA8000875F00EA4F8A9F0748928FA740739FB7C
:104EB8001211237402121925E960CCA9088002791D
:104EC8000A7F04021A3874F4121966EAFEEBFF75B9
:104ED800080080020508E508C3940A502F750A06E1
:104EE800750B00780A121B79EEFCEFFDE50875F0EA
:104EF8000EA4F8A9F0748328FA740739FB12112359
:104F08007402121925E960CCA9088002790A7F0485
:104F1800021A3874F712196674F012190FEAFEEBC8
:104F2800FF75080080020508E508C3940A50448507
:104F38001082851183AC82AD837A1075F006E5087E
:104F4800A42423F91214C57C1079FF8510828511D9
:104F580083AA82AB83121195E970CBEEFCEFFD8535
:104F68001082851183AA82AB83120571E970B7A9F3
:104F7800088002790A74101219257F01021A387400
:104F8800F71219667C8C7D0079007A837B071211F1
:104F9800297E00801EEE75F00EA4F8A9F07483280F
:104FA800FC740739FD7A0E75F006EEA42420F91278
:104FB80014C50EEEC3940A40DC90080FE06003129B
:104FC800130F1212F77F01021A3874F71219667E4E
:104FD8000080010EEEC3940A501E7C0679FFEE7520
:104FE800F00EA4FAABF074832AFA74073BFB121193
:104FF80095E960DFEEF98002790A7F01021A3874B8
:10500800F71219667E007F00801C7C0679FFEF7519
:10501800F00EA4FAABF074832AFA74073BFB121162
:1050280095E970010E0FEFC3940A40DEEEF97F0197
:10503800021A3874F712196679007E008006EEF9B4
:105048001212CD0EEEC3940A5003E960F17F0102FB
:105058001A3874F712196674CB12190FE9FE7C0E10
:105068007D0079FF742712195AAA82AB831211297D
:105078007C1B7D0079FF740C12195AAA82AB83122B
:1050880011297C0C7D0079FF851082851183AA8205
:10509800AB8312112975F006EEA4FF742712195A72
:1050A800AC82AD837A0E74202FF91214BFE9F5088B
:1050B800740C12195AAC82AD837A1B74212FF91221
:1050C80014BFE94208740C12195AAC82AD837A1BDA
:1050D80074222FF91214BFE94208740C12195AAC41
:1050E80082AD837A1074232FF91214BFE942087431
:1050F8000C12195AAC82AD837A1074242FF9121449
:10510800BFE94208740C12195AAC82AD837A047450
:10511800252FF91214BFE94208851082851183AC46
:1051280082AD837A0C74702EF91214BFE94208A973
:105138000874351219257F01021A3874F712196696
:1051480074F212190FE9900767F0851082851183B0
:10515800AC82AD837A0E79201214C5E9600312126D
:10516800C779011208A11212B5740E1219257F0110
:10517800021A3874F6121966EAFEEBFF54806024AE
:10518800900767E0F91211598A088B09A909EA49B9
:10519800600A1212DFAA08AB09121141EEFAEF6495
:1051A80080FB80047A007B007F02021A38C082C02C
:1051B800838A828B83E02450600C14600E24E17093
:1051C8000D12127380081212E580031212EBD083BD
:1051D800D082020114C082C0838A828B83A3A3A3D6
:1051E800A3E0641E701079008A828B83A3A3E0FA7F
:1051F800A3E0FB121261D083D082020114C082C0E6
:10520800838A828B83A3A3A3A3E0702F8A828B83D4
:10521800A3A3A3A3A3A3A3121B908A828B83A3A3F4
:10522800A3A3A3E0FCA3E0FD8A828B83A3A3E0FAF7
:10523800A3E0FB1212677402121925D083D08202F0
:105248000114C082C083900767E0F98A828B83A328
:10525800E0FAA3E0FB1207E7D083D082020114C072
:1052680082C08374FF12190F1212C1E9C394028518
:105278001082851183400474028002740AF0AC82A3
:10528800AD837A0179051206797401121925D08344
:10529800D08202011474F412196674E812190F8A84
:1052A800088B09E9FE8C0A8D0B7C187D0079008536
:1052B8001082851183AA82AB8312112985108285F9
:1052C8001183E508F0A3E509F0900769E0C0E074F0
:1052D8000212195AD0E0F090076AE0C0E074031295
:1052E800195AD0E0F0900B5EE0C0E0741712195A1A
:1052F800D0E0F0741512195AE054FEF8A3E0F990C2
:105308000B5DE0A2E0E433FAE84AF8741512195A82
:10531800E8F0A3E9F0900B5DE0A2E15004D2F08040
:1053280002C2F0741512195AE054FDFAA3E0FBA268
:10533800F0E43333F8EA48F8EBF9741512195AE82F
:10534800F0A3E9F0900B5DE0A2E35004D2F08002F4
:10535800C2F0E854F7FAA2F0E433F50875090074CE
:105368000378081218FCEA4508F8741512195AE867
:10537800F0A3E9F0900B5DE0A2E45004D2F08002C3
:10538800C2F0E854EFFAA2F0E433F50874047808A0
:105398001218FCEA4508F8741512195AE8F0A3E93E
:1053A800F0900B5DE0A2E55004D2F08002C2F0E874
:1053B80054DFFAA2F0E433F508740578081218FCF3
:1053C800EA4508F8741512195AE8F0A3E9F0900BA9
:1053D8005DE0A2E25004D2F08002C2F0E854FBFA89
:1053E800A2F0E433F508740278081218FCEA4508BC
:1053F800F8741512195AE8F0A3E9F090076AE0600A
:105408001D7508107808121B797C6B7D07740612CD
:10541800195AAA82AB831211117402121925900726
:105428007BE0600CEE6009741512195AE04402F032
:1054380090077BE0600478018002780074141219E8
:105448005AE048F0900768E0600478048002780029
:10545800741412195AE048F0AC0AAD0B8510828515
:105468001183AA82AB8312059574181219257F043B
:10547800021A38C082C08390077BE06004790180FB
:10548800027900900768E060047C0480027C00ECEC
:10549800C949F9120649D083D08202011474F41262
:1054A800196674E512190F8A0A8B0BECFEEDFF756D
:1054B800F006E9A4F874086F70047422800274215D
:1054C80028F5087C1B7D007900851082851183AA48
:1054D80082AB83121129851082851183AC82AD833A
:1054E8007A1BA9081214C5E97024741A12195AE013
:1054F80024F9C3940A5017851082851183AC82ADB4
:1055080083EEA2E0E433F9AA0AAB0B1205A7741BD9
:105518001219257F04021A3874F7121966120865E1
:10552800750800802AE50875F00EA4F8A9F07483C0
:1055380028FE740739FF7C0679FFEEFAEFFB12119B
:1055480095E97009EEFAEFFB790012086B0508E59A
:1055580008C3940A40CF7F01021A3874F4121966FE
:1055680074FB12190F8A088B09740312195A858261
:105578000A85830B780A121B79750A02750B007865
:105588000A121B79750A2A750B83780A121B797C13
:10559800FF7DFF7A017B001206B5740612192502F9
:1055A800564EE4F50AF50B780A121B7974041219A1
:1055B8005A85820A85830B780A121B79740412199A
:1055C8005A85820A85830B780A121B797409121985
:1055D8005A121B907902EEFCEFFDAA08AB091207DC
:1055E800D57408121925E9703B851082851183E06E
:1055F800FA740112195AE0F9EA2400F50AE439F5B7
:105608000BEA450B601E780A121B798E828F83A3E2
:10561800A3A3A3E0FCA3E0FDAA08AB0912126774D8
:1056280002121925E4F50AF50B780A121B7974059C
:1056380012195A121B907CFF7DFFEEFAEFFB12063F
:10564800C174041219258A0A8B0BAE0AAF0BEE4FF0
:1056580060030255AA74051219257F04021A38C07E
:1056680082C0839061907404F0A37448F0A374021C
:10567800F09061807440F09061BC7403F090618791
:105688007419F0906265741BF07900120C0D7902A0
:10569800120C139026E8E493F46006E493F9120BD5
:1056A800E97905120EEF025FA6C082C083E9540FA4
:1056B800F9906185E0696012E5C654804449F5C6F1
:1056C800E59E547F644970F8E9F053C680E59E541E
:1056D8007F70FA025FA674F7121966E5A8FE53A850
:1056E8007E120BF5C2BA539AFEC289759B00C2C2DC
:1056F800120BFB75A91175B905120C01D2BA439AA0
:105708000174805E42A80260BCC082C0839061813F
:10571800E4F0A3025FA375E90075910075BF00026C
:105728000114C082C083906181E4F0A374C0F0A327
:10573800E4025FA5C082C08374F812190F9003C1F8
:10574800E070030257D8A2E65023790885108285B5
:105758001183AA82AB83120CFD851082851183AA5E
:1057680082AB831208D79003C1E0C2E6F0E0A2E75B
:105778005010790C7A6D7B05120CFD9003C1E0C2C4
:10578800E7F0E0A2E0500879001257E0C2E0F0E04C
:10579800A2E1500879011257E0C2E1F0E0A2E2501C
:1057A8000879001257EBC2E2F0E0A2E35008790151
:1057B8001257EBC2E3F0E0A2E4500879021257EB6B
:1057C800C2E4F0E0A2E5500879031257EBC2E5F015
:1057D8007408121925025FA6120C0D1208DD900339
:1057E800C1E022120C131208E39003C1E022C08228
:1057F800C083E96005146019802D90619A7433F0B4
:10580800A37455F09061A0743AF09003C27461805B
:105818001590619A743FF0A3745AF09061A0747F58
:10582800F09003C2746AF0025FA6C082C083E96088
:105838000814600A14600C80139026F080089026E3
:10584800F180039026F2E493906186F0025FA674DB
:10585800F4121966906186E0F8750A00850A0874E2
:10586800F01265EF74261264A4E49368700E7470E5
:10587800250AF582748212638CF9800B050AE50A01
:10588800C3940340D77980025EC974F11219667413
:10589800F412190F851082851183AC82AD8375834C
:1058A800827582BA74041218229026F093F4600369
:1058B800025A5E907808E0C394025003025A3E747C
:1058C8000412195AAC82AD837583827582347408C8
:1058D800121822FC7EFF7FFF8E0E79008018740854
:1058E8006970030259EC74096970030259EC740A6F
:1058F8006970030259EC8908750900740278081266
:1059080018FC125A7512195A125A68C082C0838A32
:10591800828B8378081217DF740878081216E285DC
:10592800080C85090D8A828B8378081217DF741892
:1059380078081216E2E50C4508FAAB0DD083D08240
:10594800C3E09AA3E09B890874027808403C1218C7
:10595800FC125A7512195A125A68C082C0838A8278
:105968008B8378081217DF8A828B8378081217DFF7
:10597800741878081216E2E50C4508FAAB0DD083C6
:10598800D082E0C39AFAA3E0804B1218FC125A8323
:105998008A828B8378081217DF8A828B83780812B1
:1059A80017DF741878081216E2E50C4508F508E5C3
:1059B8000DF509ECC333FAE433FB740412195AE504
:1059C800822AF582E5833BF583E0FAA3E0FBE5084C
:1059D800C39AFAE5099BFBC3EA9EEB9F5006EAFED1
:1059E800EBFF890E09E9C3941350030258E674FFCC
:1059F8006E700374FF6F6034850E087509007402B9
:105A080078081218FC74481265EF74783509F58324
:105A180078081217DFC0088C08851082851183E585
:105A2800821265EFE5831264A4D0E0F00CECC39415
:105A38000450030258DC7508017509007808121B28
:105A480079740212195AAC82AD837ABC7B0912139D
:105A5800577402121925740C1219257F07021A3877
:105A6800E5822508F582E5833509F58322125A83F4
:105A7800EC33F508E433F50974042274482508FA70
:105A880074783509FB2274F412196674FC12190F24
:105A98009026ECC0829082C278081217DF758326A0
:105AA800D082780812159A6003025B3DE5C65480DF
:105AB8004449F5C6E59E547F644970F875E5047558
:105AC800DA0075DB0C75AF0075E40975E200E5AF27
:105AD800A2E050FA75E20053C680E59E547F70FA42
:105AE80075E400E5E2851082851183F0E5E3740131
:105AF80012195A125B4578081217DF7401780812D8
:105B080016FB9082BE78081217B98510828511831A
:105B180078081217EE7508017509007808121B79C4
:105B2800740212195AAC82AD837ABB7B09121357DF
