:020000040000FA
:060000000200FC021F08D3
:03002B000226E4C6
:030033000226CAD8
:03005300021F7E0B
:03006B000226B0BA
:10008300021E6BE5C754F84401F5C779012200004D
:100093000080FB120086B900030200E6E4791278BF
:1000A30008B800028004F709D8FCE490028178368E
:1000B30079088002F0A3D8FCD9FA9009B6AA82ABDA
:1000C3008390012C78F079038015E493A3AC82AD7F
:1000D300838A828B83F0A3AA82AB838C828D83D89D
:1000E300E9D9E77582F67583A3740312010E75824D
:1000F30091758300740012010E75D00075813F75F0
:100103001081751102759F00020096C09FF59FE450
:1001130073D09F22D083D082C09FE493C0E0740148
:1001230093C0E0740293F59F22FF0000007800283B
:10013300002800283075A000A000A000A00000083F
:100143000008E001F0001000100010001000100083
:10015300100050005000500010001000D0070000A5
:10016300000000000F0030750700100001000000C0
:10017300FF130631061906FF02020A0A025000A005
:10018300000000E8030230830100002083025A8349
:10019300010000050A022883010000B002025A830D
:1001A300010000060A022683010000C502025A83E9
:1001B300010000070A025883030000C702025A83A2
:1001C300010000080A024E83030000C802025A839A
:1001D300010000090A0238830100000A0AFF010036
:1001E300FF200230830100001D83025A83010000B7
:1001F3006E0A0236830000000000022A8303000017
:100203001503690D690D690D690D690D690D690D99
:10021300690D690D690D690D690D690D45105D1055
:100223003F10FFFF020202020202020202010D005E
:10023300000010010230830100002383025A83016E
:100243000000B10A0246830100005F07025A8301DE
:100253000000B20A024483010000D881025A8301DC
:100263000000B30A024283010000BC81025A8301E9
:100273000000B40A0240830100002E81025A830168
:100283000000B50A023E83010000E680025A8301A2
:100293000000B60A023C830100000A81025A83016E
:1002A3000000B70A023A830100001C81025A83014D
:1002B3000000B80A025083010000AE81025A830194
:1002C3000000B90A026083010000BA0A01E80305CD
:1002D3003F10FF000130750302010600000000001B
:1002E300000000000000000000000000000000000B
:1002F30000000000000000FFFF06001000E80309F3
:1003030009426C696E6747494E410512500020034C
:10031300020A000201060302F0FF53696D706C6567
:1003230020424C45205065726970686572616C0BA0
:100333002B15000037150A43686172616374657297
:100343006973746963203100024368617261637485
:10035300657269737469632032000843686172616E
:100363006374657269737469632033001043686151
:100373007261637465726973746963203400024344
:1003830068617261637465726973746963203500AF
:100393000230830100001A83025A83010000C30B59
:1003A300025E830300009D09022C83010000C40B3D
:1003B300025A83010000D50B024C830100009E0901
:1003C300022C83010000D60B025A83010000E70BC5
:1003D300024A830200009F09022C83010000E80BFC
:1003E300025A83010000F90B025483000000A009A4
:1003F300022A83030000A109022C83010000FA0BE7
:10040300025A830100000B0C025683040000A70963
:10041300022C830100000C0C1201174A95031201F0
:1004230017619503120117909503120117C99503DC
:10043300120117F195031201171F960312011736C4
:1004430096031201174D96031201176396031201C7
:10045300178A96031201179D9603120117B3960389
:10046300120117C69603120117EB96031201172FF9
:100473008B02120117308C02120117658C021201D4
:1004830017868C02120117968C02120117B78C0281
:10049300120117BF8D02120117858E02120117393F
:1004A3008F02120117BB8F02120117BE8F021201B6
:1004B30017F58F021201171D9002120117FD90020A
:1004C3001201175E9102120117CB91021201174517
:1004D30092021201174892021201174B9202120163
:1004E30017F592021201170D9302120117379302A7
:1004F300120117609302120117389402120117F5C3
:10050300940212011787E002120117AFE0021201F1
:1005130017DDE00212011714E1021201177CE10258
:10052300120117C5E10212011715E2021201175356
:10053300E20212011790E202120117BEE202120157
:10054300174DE30212011757E30212011764E30286
:1005530012011797E30212011763E4021201176FE6
:10056300E40212011787E40212011791E402120157
:10057300178FA0031201179DA003120117B5A00343
:10058300120117CDA003120117B5A20112011757CB
:10059300A301120117CFA301120117EDA401120148
:1005A3001710A501120117AFA50112011786A601A5
:1005B300120117BFA70112011763A801120117D572
:1005C300A801120117D8A90112011727AA011201C4
:1005D300174BAA0112011772AC01120117B6AC0135
:1005E300120117D8AC0112011726AD011201172809
:1005F300AE0112011715AF0112011730D00212011B
:100603001702D102120117CBD10212011708D2022D
:1006130012011795D20212011721D302120117F802
:10062300D30212011727D402120117E8D4021201D0
:100633001727D502120117B3D502120117F7D502F6
:100643001201171DD60212011770A303120117DB43
:10065300F102120117F1F10212011717F20212014E
:100663001732F3021201173CF30212011787F40247
:1006730012011787F50212011753E5021201174BF6
:10068300E60212011777E60212011729E8021201A6
:1006930017469301120117A99301120117E9940157
:1006A300120117F994011201171C95011201176722
:1006B30095011201170E96011201172297011201DB
:1006C30017F697011201176A9901120117A39901ED
:1006D300120117449A01120117919A01120117B7D7
:1006E3009A011201178A9C011201178F9C011201B2
:1006F30017769E01120117BD9E011201172C9F014F
:10070300120117549F01120117F39F01120117B52C
:10071300A001120117E6A001120117E9A0011201BD
:100723001731A10112011773A101120117E0A101F1
:10073300120117DC8C03120117EF8C031201170847
:100743008D031201174D8D03120117268E0312011B
:1007530017CB8E03120117188F03120117F8260007
:100763001201170427001201173D27001201177FFA
:100773002700120117362800120117B828001201AA
:10078300170E2900120117382900120117712900C9
:10079300120117A92B00120117902D0012011763E4
:1007A3002F00120117973000120117EE32001201C9
:1007B30017FC33001201174735001201176C36007E
:1007C300120117893600120117C13600120117DB17
:1007D3003600120117513700120117563C0012015F
:1007E30017F93C00120117593D00120117803D0013
:1007F300120117D13D00120117EF3D001201174DF1
:100803003E00120117243F00120117A040001201FD
:1008130017224100120117159F021201171F9F0291
:10082300120117D99F0212011711A0021201173EDC
:10083300A0021201179DA002120117C3A002120108
:100843001716A10212011752A1021201177AA1026F
:10085300120117ACA202120117D7A202120117113B
:10086300A30212011751A30212011775A302120169
:1008730017BFA302120117F9A3021201173BA40227
:100883001201176EA40212011799A402120117F4A0
:10089300A4021201172DA502120117A6A502120127
:1008A30017E5A50212011724A6021201176BA6026F
:1008B30012011795A602120117D2A602120117FC04
:1008C300A6021201172DA7021201176CA70212012B
:1008D300179FA702120117E8A70212011731A802F6
:1008E3001201175BA80212011702EE021201174050
:1008F300EE02120117A3EE021201175FEF021201BB
:100903001740F0021201176EF0021201175BF10299
:10091300120117C1CE01120117DACE01120117120B
:10092300D001120117FBD0011201171AD1011201D4
:1009330017DBD10112011721D301120117FFD301D4
:1009430012011779D70112011706D801120117CA2C
:10095300D801120117BAD90112011726DB011201BE
:1009630017BCDB0112011737DC0112011791F502E5
:10097300120117BEF50212011722F6021201172DFA
:10098300F60212011738F60212011743F60212019A
:100993001775F60212011747F702120117C4F7027F
:1009A30012011754F8021201175DF8021201177DA4
:1009B300F8021201178CF802120117A4F8021201AF
:1009C30017ADF802120117C4F802120117E5F80275
:1009D300120117EEF802120117FAF80212011703B7
:1009E300F90212011713F9021201171DF90212017C
:1009F3001727F90212011737F902120117699D032C
:100A0300120117D29D03120117269E031201174DDF
:100A13009E03120117B4E90212011721EA0212011F
:100A23001763EA0212011758EB021201175BEC027B
:100A330012011745ED021201172EB10212011770B0
:100A4300B10212011759B20212011739B30212018E
:100A53001734B40212011714B50212011780B5023C
:100A63001201173EB602120117AEB6021201171594
:100A7300B70212011740B702120117A6B7021201FB
:100A8300174EB802120117BFB802120117D8B802E5
:100A93001201171CB90212011735B902120117947A
:100AA300B90212011797B902120117E5FC021201EC
:100AB300170DFD021201174BFD02120117F8FD027B
:100AC3001201176CFE0212011788FE02120117B001
:100AD300FE02120117E0FE02120117EFFE021201DD
:100AE3001763FF0212011789FF02120117836A00BD
:100AF3001201178D6B00120117E06C001201179D94
:100B03006D00120117E46D00120117136E0012013C
:100B130017316E00120117736E00120117896E00F0
:100B2300120117D56E001201170A6F001201173355
:100B33006F001201179B6F00120117007000120162
:100B430017C17300120117C674001201172B750029
:100B5300120117AD75001201175D7700120117AC72
:100B63007700120117F1780012011744790012017E
:100B730017CB79001201171A7A00120117417A0074
:100B83001201170B7B001201172A7B001201175F5A
:100B93007B00120117C67B00120117517C00120162
:100BA30017957C00120117B77C00120117C17D0055
:100BB300120117EE7D001201174C7E00120117BBC4
:100BC300B902120117DDB90212011753BF02120154
:100BD30017EFBF0212011760C102120117E8C10229
:100BE3001201176B5600120117B55600120117E2D6
:100BF3005600120117155700120117225700120150
:100C0300172E5700120117405700120117FA570009
:100C13001201173658001201175B5800120117967C
:100C23005800120117925A00120117525B00120169
:100C330017C05B00120117585C00120117135D0007
:100C4300120117A35D00120117675E0012011776E8
:100C53005E00120117E25E00120117835F001201AA
:100C630017B15F001201174C6000120117A5600055
:100C7300120117CE600012011780610012011733B1
:100C83006200120117D262001201173E63001201C3
:100C930017946300120117EC63001201170F64002D
:100CA300120117C7640012011708660012011751D9
:100CB30066001201176E66001201178D660012019D
:100CC30017E4660012011711670012011786670007
:100CD300120117C16700120117C968001201175CDE
:100CE30069001201171E6A00120117556A001201EA
:100CF30017609502120117B19502120117BD9502F3
:100D03001201179B9602120117C19602120117F1E5
:100D130096021201175D97021201178F97021201B3
:100D230017C89702120117E09702120117359802AC
:100D33001201174E9802120117979802120117AA6F
:100D43009802120117C49802120117DA98021201CD
:100D530017E29902120117279B02120117519C02F5
:100D63001201173A9D02120117F27F001201171B9D
:100D7300EA0112011765EA0112011764ED0112017C
:100D830017C5EE011201179AEF011201171FF101A6
:100D9300120117F4F1011201172EF201120117517A
:100DA300F2011201178CF20112011795F2011201DF
:100DB30017D8F201120117E2F20112011791F301A0
:100DC3001201176DF401120117CDF4011201172757
:100DD300F5011201176AF50112011799F5011201C4
:100DE30017EDF501120117678301120117238A0119
:100DF300120117298A01120117638F01120117AB20
:100E03009201120117118703120117878703120139
:100E1300179D87031201172688031201176B880396
:100E2300120117A68803120117F688031201176D22
:100E330089031201177689031201178289031201AC
:100E430017958903120117BA8903120117D0890371
:100E5300120117338A0312011792D6021201179F48
:100E6300D602120117B9D602120117F8D6021201DF
:100E73001736D7021201179BD702120117B0D702F8
:100E8300120117BBD702120117C8D702120117DFCD
:100E9300D702120117EDD702120117F8D702120178
:100EA3001704D80212011713D8021201171ED80211
:100EB30012011741D802120117EDD802120117FDD2
:100EC300D8021201171CD90212011739D9021201D3
:100ED300174AD90212011766D90212011774D902EF
:100EE3001201177ED90212011792D902120117B308
:100EF300D90212011714DA021201171ADA021201C7
:100F03001720DA0212011726DA021201172CDA026D
:100F130012011753DA021201178EDA02120117A80F
:100F2300DA02120117F3DA0212011726DB021201A9
:100F33001751C001120117D3C0011201178FC1014C
:100F430012011721C30112011777C5011201174AB4
:100F5300C6011201177FC601120117BDC601120196
:100F6300172DC701120117EAC80112011713C9018E
:100F73001201179FC901120117D1C901120117DE0E
:100F8300C90112011729CA011201174FCA0112011F
:100F9300171BCD0112011718CE0112011774CE01D0
:100FA3001201179CB101120117C7B201120117B642
:100FB300B301120117C0B301120117E2B301120109
:100FC30017EEB30112011787B501120117B4B5016A
:100FD300120117CDB60112011728B7011201179498
:100FE300B8011201176EB901120117D6B901120126
:100FF300173EBA0112011773BA01120117B6BA01EB
:101003001201176CBD0112011784BD0112011719DA
:10101300BE0112011727BE0112011774BE0112018E
:101023001782BE01120117EDBE011201175EBF0147
:10103300120117B5BF011201170080021201172216
:10104300800212011733820212011708850212016E
:1010530017278602120117E58602120117DB8702A2
:10106300120117FD9603120117229703120117901D
:1010730097031201170AC20212011713C2021201C7
:10108300171CC202120117FEC202120117B3C402D7
:10109300120117E7C40212011716C5021201174AFB
:1010A300C50212011779C502120117ADC50212015B
:1010B30017D9C5021201171CC6021201174BC6022B
:1010C30012011792C602120117E8C6021201171B7A
:1010D300C7021201176BC7021201179AC702120146
:1010E30017E9C7021201172CC8021201175BC802C5
:1010F3001201178CC802120117C2C802120117800D
:1011030093031201170E950312011732950312016F
:1011130017C4F601120117D2F60112011714F701D1
:101123001201175FF70112011799F701120117F363
:10113300F70112011716F8011201175BFB011201E7
:101143001769FB01120117BEFB01120117F0FB0126
:10115300120117FFFB011201170EFC011201178385
:10116300FC011201170DFD0112011759FD011201B6
:101173001790FD0112011709FE011201174BFE0121
:1011830012011793FE01120117A5FE01120117C8E0
:10119300FE01120117D1FE011201178FFF01120187
:1011A300177E9E03120117319F03120117819103CA
:1011B300120117B79103120117ED910312011742A0
:1011C3009303120117D2A203120117E8A20312011B
:1011D30017F8A20312011742A30312011763A40312
:1011E300120117B1DB02120117C6DB021201177AD3
:1011F300DC02120117BEDC02120117DBDC02120152
:101203001716DD0212011763DD0212011797DD02C3
:10121300120117D5DD021201171AE002120117E2BB
:101223009B031201170B9C031201173A9C03120133
:1012330017E09C03120117229D031201178F8303EA
:10124300120117B48303120117E08303120117CAB3
:10125300A4031201178B41001201175C4300120112
:1012630017CD4400120117394500120117C145007B
:101273001201174046001201176946001201178533
:101283004A00120117144B001201174F4C001201B0
:1012930017894C00120117CD4C00120117EF4D00B6
:1012A300120117214E00120117854E00120117D2A9
:1012B3004E001201171F4F001201178B4F0012012E
:1012C30017D64F001201170B50001201173F5000A1
:1012D3001201175E50001201174751001201177FC8
:1012E3005100120117B95100120117E15100120107
:1012F300170952001201174E52001201176B5200C8
:10130300120117A152001201177F5400120117A9ED
:1013130054001201172455001201176755001201DA
:101323001787A10312011798A103120117A77F00C2
:10133300120117E47F00120117DCA5031201173312
:10134300A20312011743A2031201175DA2031201A4
:1013530017CFA203120117899F031201170EA003CF
:1013630012011776A003120117AC9803120117D2CA
:1013730098031201173899031201175899031201A0
:1013830017AA9903120117079A03120117439A0325
:10139300120117469A031201170080031201171551
:1013A3008003120117468103120117D4810312012E
:1013B30017EF81031201170A8203120117588203E0
:1013C3001201177282031201178C8203120117A2F2
:1013D3008203120117C18203120117E08203120173
:1013E300170983031201175A8303120117B5A503C3
:1013F300120117C5A503120117C8A503120117F897
:101403007F00120117428F03120117D790031201B5
:10141300173891031201177E9103120117F5FF018B
:10142300120117907E00120117A27E00120117FE0F
:101433007E00120117CBA503120117D6A5031201D3
:1014430017549A03120117AB9A03120117269B0331
:101453001201178F9B03120117638A031201178D61
:101463008A03120117648B031201176A8C0312019A
:101473001780A80212011751A90212011792A9029B
:10148300120117C8A9021201172DAA021201178807
:10149300AA02120117FDAA0212011798AB02120148
:1014A300177CAC0212011708AD0212011754AE02E9
:1014B300120117E1AE0212011748AF02120117B36E
:1014C300AF02120117C1AF02120117E4B0021201F9
:1014D3001774DC01120117B2DF0112011739E101A0
:1014E3001201175FE10112011786E10112011709C9
:1014F300E2011201179FE30112011757E4011201E0
:10150300174FE80112011787E80112011761C90299
:101513001201176FC902120117EDCB021201177BDB
:10152300CC02120117AFCC0212011701CD02120136
:101533001727CE0212011717CF021201178ACF0203
:1015430012011741F90212011786F902120117A3BA
:10155300F90212011758FA02120117ABFA0212012B
:10156300178EFB02120117ACFC0212011729A50307
:10157300120117D1FF02120117BFFF011201176FEA
:10158300A50312011797A503E066701008A3E06690
:10159300700A08A3E066700408A3E06622E4936679
:1015A30070130874019366700C08740293667005D7
:1015B300087403936622C3E7960809E7960809E7C8
:1015C300960809E79622C3E09608A3E09608A3E0ED
:1015D3009608A3E09622C008C3E096F50808A3E0A6
:1015E30096420808A3E096420808A3E096450870CF
:1015F30001D3D00822080808EAC0E0EBC0E086F077
:10160300E7A4FA180986F0E7A42AFA180986F0E78E
:10161300A42AFA180986F0E7A42AFA1986F0E7A49F
:10162300FBE5F02AFA190886F0E7A42BFBE5F03A6C
:10163300FA190886F0E7A42BFBE5F03AFA18180923
:1016430086F0E7A4C5F02BFBE43AFA1908E7C5F0E6
:10165300C6A426F6E5F03BFBE43AFA1886F0E7A4C5
:10166300F6E5F00826F6E43B08F6E43A08F6D0E09F
:10167300FBD0E0FA22E4CFC0E0E4CEC0E0E4CDC08A
:10168300E0E4CCC0E075F020C3E633F608E633F6B9
:1016930008E633F608E633F6181818EC33FCED3396
:1016A300FDEE33FEEF33FFC3EC9709ED9709EE9799
:1016B30009EF97191919400FFFEC97FC09ED97FDF6
:1016C30009EE97FE191906D5F0BEECF709EDF709F7
:1016D300EEF709EFF7191919D0E0FCD0E0FDD0E0DF
:1016E300FED0E0FF226016080808C6C313C618C65A
:1016F30013C618C613C618C613C6D5E0EA22700966
:10170300080808226016181818C6C333C608C6335B
:10171300C608C633C608C633C6D5E0EA22E627F6AE
:101723000809E637F60809E637F60809E637F62228
:10173300E026F608A3E036F608A3E036F608A3E0B1
:1017430036F622E026F008A3E036F008A3E036F0F0
:1017530008A3E036F022C3E697F60809E697F608F1
:1017630009E697F60809E697F622C3E0C696F60857
:10177300A3E0C696F608A3E0C696F608A3E0C696CD
:10178300F622C3E096F008A3E096F008A3E096F0F3
:1017930008A3E096F022E056F608A3E056F608A365
:1017A300E056F608A3E056F622E056F008A3E0560A
:1017B300F008A3E056F008A3E056F022E046F6084E
:1017C300A3E046F608A3E046F608A3E046F622E0C7
:1017D30046F008A3E046F008A3E046F008A3E0467D
:1017E300F022E0F608A3E0F608A3E0F608A3E0F68B
:1017F30022E6F008A3E6F008A3E6F008A3E6F02249
:10180300E0FAA3E0FBA3E0FCA3E0FD22EAF0A3EBF4
:10181300F0A3ECF0A3EDF022CAC0E0E6F0A308DAEF
:10182300FAD0E0FA22CAC0E0E0A3C582CCC582C5E3
:1018330083CDC583F0A3C582CCC582C583CDC583C3
:10184300DAE6D0E0CA22C3E498F8E499F912188AD8
:101853008026C3E49AFAE49BFBE920E7E912188A9D
:10186300E498F8E499F922C3E498F8E499F9121892
:101873008AE498F8E499F9C3E49AFAE49BFB22EB2F
:1018830020E7CFE920E7E0B90010BB0008E88AF0C1
:1018930084F8AAF022E4FBC8FA22EB70227B10C87A
:1018A30033C8C933C9335007C39AC3DBF280069ADE
:1018B30050012ADBEAC833F4C8C933F4C9FA2275E4
:1018C300F008E4C833C8C933C933C99AC99B500463
:1018D300C92AC93BD5F0ECFBC833F4C8E4C9FA22E2
:1018E300600D08C6A2E713C618C613C6D5E0F322D7
:1018F300600C08C6C313C618C613C6D5E0F422701D
:101903000422600D18C6C333C608C633C6D5E0F437
:101913001822251010AF08F510400215118008F5A4
:101923001040021511D2AF22C0D0251010AF08F518
:1019330010500205118008F51050020511D2AFD0E6
:10194300D0222510F58210AF08F510400215118042
:1019530008F51040021511D2AF851183222510F529
:1019630082E43511F58322E4732510C582C0E0E5D6
:101973001134FFC583C0E0E510C3958224F810AF8E
:10198300088583118582108008858311858210D292
:10199300AFCEF0A3E520F0A37808E608F0A3DEFAC3
:1019A300EFF0A3E58124FAF8E608F0A3E608F0A334
:1019B300E608F0A30808E608F0A3E608F0A31581FB
:1019C3001581D0E0FED0E0F8158115811581E8C0BE
:1019D300E0EEC0E0222510C582C0E0E51134FFC56A
:1019E30083C0E0E510C3958224F910AF0885831105
:1019F3008582108008858311858210D2AFCEF0A333
:101A0300E520F0A37808E608F0A3DEFAEFF0A3E5FB
:101A13008124FBF8E608F0A3E608F0A30808E6082B
:101A2300F0A3E608F0A315811581D0E0FED0E0F81D
:101A330015811581E8C0E0EEC0E022851183851091
:101A430082E0A3FEE0A3F5207808E0A3F608DFFA1E
:101A5300E0A3FFE0A3C0E0E0A3C0E0E0A3C0E0E0B8
:101A6300A3C0E0E0A3C0E010AF0885821085831116
:101A73008008858210858311D2AFD083D082020182
:101A830014851183851082E0A3FEE0A3F520780876
:101A9300E0A3F608DFFAE0A3FFE0A3C0E0E0A3C001
:101AA300E0E0A3C0E0E0A3C0E010AF0885821085AA
:101AB30083118008858210858311D2AFD083D082B1
:101AC30022C0D02510C582C0E0E51134FFC583C014
:101AD300E0E510C3958224F310AF08858311858256
:101AE300108008858311858210D2AFC8F0A3E9F076
:101AF300A3EAF0A3EBF0A37908E709F0A3D8FAEC83
:101B0300F0A3EDF0A3EEF0A3EFF0A3D0E0F0A3D0A9
:101B1300E0F0A3D0E0F0A3E520F0A3E5F0F0A322EA
:101B2300851183851082E0C0E0A3E0F9A3E0FAA366
:101B3300E0FBA37808E0F608A3DFFAE0FCA3E0FDEE
:101B4300A3E0FEA3E0FFA3E0C0E0A3E0C0E0A3E0C6
:101B5300F5D0A3E0F520A3E0A3F5F010AF0885834B
:101B6300118582108008858311858210D2AFD082BF
:101B7300D083D0E0F8D0E03274048006740280028F
:101B83007401C0E0F404121945D0E012181B22744A
:101B930004800474028000CCC0E0EDC0E0E510C313
:101BA3009CCCAD1150011D10AF068C108D11800619
:101BB3008C108D11D2AF121828D0E0FDD0E0FC229A
:101BC300D083D082E9C0E0E493A3C386F0C5F09547
:101BD300F0F908E493A386F0C5F095F0700BE49355
:101BE300A3C3994005E9048002A3E475F002A42588
:101BF30082F582E5F03583F583D0E0F9E493A3C061
:101C0300E0E493C0E022D083D082ECC0E0EDC0E0FA
:101C1300E493A3FCE493A3FDED4C600D121C55EC7F
:101C230024FFFCED34FFFD80EFE493A3FCE493A3D6
:101C3300FDED4C600D121C94EC24FFFCED34FFFD14
:101C430080EFD0E0FDD0E0FCE493A3C0E0E493C0D8
:101C5300E022C0E0C3E49396087401939618400F02
:101C6300E49366700808740193661870007019A3F2
:101C7300A3C3E49396087401939618A3A3400DD0CD
:101C8300E0D0E0D0E0021C45A3A3A3A3A3A3D0E02C
:101C930022C0E0C0F088F0E49366700808740193F2
:101CA30066187000A8F0A3A3700BD0F0D0E0D0E0CA
:0C1CB300D0E0021C45A3A3D0F0D0E0223A
:101CC00074F51219D8EAFEEBFFEE2434F8EF340075
:101CD000F988088909EE2435121E1AF8EE24371205
:101CE0001E1AF50AEC850AF0A4FCAAF0850AF0EDAC
:101CF000A42AFDE82CF8E43DF97A257B0012188A25
:101D0000EA850882850983F05407F87401B8000257
:101D10008004C333D8FCC0E0E0131313541FF8EE63
:101D200028F8EF3400F9E8245DF582E93400F58302
:101D3000D0E0F8E0586008EE2434F582EF8019EE28
:101D40002436121E1AF5F0EA84A8F0EE28F8EF34D3
:101D500000F9E82438F582E9121E1DF97F04021A01
:101D60008474F71219D88A088B09EA2434F582EBB7
:101D7000121E1DC0E0EA2435F582EB3400F583D055
:101D8000E0F08A828B83A3A3A3A3A3A3A3C082C0F2
:101D9000838A828B83A3A3A3A3A3E0F8A3E0F9D053
:101DA00083D082E0C398FEA3E099FFEA2480F58205
:101DB000EB121E1D6401704FEA2481F582EB3400A2
:101DC000F583121B968A828B83A3A3A3A3A3A3A349
:101DD000E0FCA3E0FD8A828B83A3A3A3A3A3E0FA84
:101DE000A3E0FB121E23740212192BE960197CF286
:101DF0007D04AA08AB09120C9DE5082480F582E554
:101E0000093400F583E4F0EEFCEFFDAA08AB0912FB
:101E10001CC01226A27F02021A84F582EF3400F55C
:101E200083E022C082C083851082851183E0F8A3FD
:101E3000E0F9C3EA9CEB9D500BC3EC98ED9940127E
:101E400079018010C3EA98EB9940F5C3EC98ED99BD
:101E500050EE7900D083D08222EAC39CFAEB9DFB3E
:101E6000220000008512878513C622C0E074F2129A
:101E70001AC4759B00906182E0A2E6503DE591A2F4
:101E8000E650377591BF9003BFE064057008120EED
:101E90002F120E3B8003120E35751200120E95E9BB
:101EA0009003C0F07900120E89120C077A017B00B2
:101EB0009003BEE0F91211778049E0A2E55024E5D5
:101EC00091A2E5501E7591DF9003BFE0640D701381
:101ED0009003E0E004F064287002E4F07A00E0F996
:101EE000120F25906181E0A2E35009E5E9A2E350D9
:101EF0000375E9F7A3E0A2E75009E591A2E75003D3
:101F000075917F7F01021B23C0E0C0D0C082C083D7
:101F1000906183E0A2E05009E5BFA2E0500375BFE5
:101F2000FEE0A2E15009E5BFA2E1500375BFFDE06C
:101F3000A2E25009E5BFA2E2500375BFFBE0A2E3B5
:101F40005009E5BFA2E3500375BFF7E0A2E45009D2
:101F5000E5BFA2E4500375BFEFE0A2E55009E5BF7D
:101F6000A2E5500375BFDFE0A2E65009E5BFA2E697
:101F7000500375BFBFD083D082D0D0D0E032C0E054
:101F800074F2121AC4E5A7A2E6500FE5A1A2E6502A
:101F90000953A7BF75A1BF121FD0E5A7A2E5500C3A
:101FA000E5A1A2E5500653A7DF75A1DFE5A7A2E1F1
:101FB0005009E5A1A2E1500375A1FDE5A7A2E250F9
:101FC0000CE5A1A2E2500653A7FB75A1FB021F037B
:101FD00074F81219D87512019003BFE064067015E9
:101FE000120D998A828B83A3A3A3A3A3A3E0FAA3D0
:101FF000E0FB120E1DA2AFE433FED2AF9003C4E0AB
:10200000640170187A207B009003BEE0F912120779
:102010007A207B009003BEE0F912117D906182E08E
:10202000D2E6F085C61380169003C3E06401700801
:10203000E5C654F84405F5C653BEFC121E6474018F
:10204000651260E453BEFCEEA2E092AF7F01021A7B
:10205000840000008E148F158582198583188510E1
:1020600082851183E0CEA3E0CF851982851883EBAA
:10207000C9EAC8EDCBECCA75F010C3E833C8E93340
:10208000C9EA33CAEB33CBC3EA9EF517EB9FF516CB
:10209000B35004AB16AA17EC33CCED33CDD5F0DA40
:1020A000AE14AF152274F11219D874F21219157406
:1020B00006121960ECF0A3EDF0EAFEEBFF9003BF0F
:1020C000E024F7C39405500690828602223E120D4A
:1020D00099851082851183EAF0A3EBF08510828543
:1020E0001183E0F8A3E0F9E849700302223BEEFC1B
:1020F000EFFD7408121960AA82AB83120E4D1222F2
:102100006478081217E59082A6780812179974026D
:1021100012196078081217F47408121960780C12FA
:1021200017E59082A6780C1217997402121960783C
:102130000C1215D94029740212196078081217E59B
:102140007808790C12175985080C85090D850A0E37
:10215000850B0F9082D2780C1215D94041804785AB
:102160000C08850D09850E0A850F0B740212196083
:10217000780812176D9082D278081215D9501F7501
:102180000800750900750A00750B017808790C12B2
:102190001759740212196078081217338008908258
:1021A0008678081217E5750C19750D00780C121B4E
:1021B0007F74097808121701FAAB09AC0AAD0B124B
:1021C0002054740212192B8A0C8B0D8C0E8D0F74F7
:1021D00010780C1216E8122264A3A3A3A312225AA9
:1021E00012188A88088909E4F50AF50B780C790831
:1021F000121720740C12196012225A12188AE8FA67
:102200008A08E4F509780C79081215B95007780C9A
:1022100079081217599003BFE06408600AE0640669
:102220006005E06405701C9082CE780C1215D950C0
:10223000129082C6780C121733800890828A780C2C
:102240001217E57406121960122270780C1217F436
:10225000740E12192B7F08021A84E0F8A3E0F97AB1
:10226000D07B0322851082851183122270A3A322C2
:10227000E0F8A3E0F58388822274F71219D8120ED1
:102280005F120E0BE5C654804449F5C6E59E547FA7
:10229000644970F8906185740FF090054BE0F4701C
:1022A00002A3E0604E90054CE0600814601B1460CF
:1022B0002E804075080175090090054BE0780812E2
:1022C0001902E508F45280802A750801750900900A
:1022D000054BE07808121902E508F4529080147555
:1022E000080175090090054BE07808121902E5080D
:1022F000F452A079007F02021A8474F71219D8E907
:10230000FE9026ECE493F46008E493F9120BE98064
:102310000953C680E59E547F70FA120E1190054B4A
:10232000E0F47002A3E0604B90054CE0600814609C
:102330001A14602C803D75080175090090054BE06A
:102340007808121902E5084280802875080175098D
:102350000090054BE07808121902E50842908013BE
:1023600075080175090090054BE07808121902E51F
:102370000842A0120E5F120D998A088B09A808A9BD
:1023800009E8496015E5E170FCE82414F582E934B8
:1023900000F583E0F46003E0F5E174016E700A7A01
:1023A000019003BEE0F91211D10222F574F1121965
:1023B000D88A0C8B0D8C0E8D0F740F121960780853
:1023C0001217E59082A6780C1217999082A67808C9
:1023D000121799780C79081215B95015780C7908EC
:1023E00012175990829A780C1215D94015790180EC
:1023F000137808790C12175990829A78081215D917
:1024000040EB79007F08021A8474F11219D874FC29
:10241000121915851082851183EAF0A3EBF0A3EC65
:10242000F0A3EDF0741312196078081217E590828A
:10243000A6780C1217E5851082851183780C121787
:10244000AC9082A67808121799851082851183783E
:10245000081215C94014851082851183780C121753
:10246000E5780C7908121759801E750C00750D005F
:10247000750E00750F01780C7908121759851082B6
:10248000851183780C121733AA0CAB0DAC0EAD0F6F
:10249000740412192B02240474F11219D88A0C8BBB
:1024A0000D8C0E8D0F740F12196078081217E590BD
:1024B00082A6780C1217999082A67808121799783C
:1024C00008790C1215B94011780C7908121759AA1D
:1024D0000CAB0DAC0EAD0F800F7808790C121759AC
:1024E000AA08AB09AC0AAD0B0224049082A67808B6
:1024F0001217E58A828B8378081217AC7F04021AC0
:102500008474F51219D88C828D8378081217E58AA5
:10251000828B837808121785122559C3E09CF0A39B
:10252000E09D12254B40229082C278081217E58A5E
:10253000828B8378081217468A828B83A3A3A3A376
:10254000E02420F0A3E0344EF080A0F0888289835C
:10255000C3E09420A3E0944E22EA2404F8EB340074
:10256000F98C828D83A3A3A3A3E0FCA3E0FD888262
:1025700089832274F51219D8E9FE7A007B0090074E
:1025800055E064017008900508E0FAA3E0FBEEC393
:1025900033F8E433F9746128F582748139F583E006
:1025A0002AF508A3E03BF5097808121B7F9082F218
:1025B000121803122054740212192B8A088B098CEA
:1025C0000A8D0B741078081216E8AA08AB097F046C
:1025D000021A8474F11219D88A0C8B0D8C0E8D0F8F
:1025E000740F121960E0FAA3E0FB7411121960E095
:1025F000F508A3E0F5097413121960E0FEA3E0FFEB
:102600007808121B7F122697E4F50AF50B780C79EF
:10261000081215F890827A78081217E5780C790874
:102620001215F8AA0CAB0DAC0EAD0F1220547402AB
:1026300012192B8A088B098C0A8D0B8B0DEA450D1C
:1026400060047A0180027A00741078081216E8ECAF
:102650002AFCED3400FDECF8EDF97A717B021218DA
:102660008A880889098E828F8378081217F4ECF81B
:10267000EDF97A717B0212188A1226977405780890
:102680001219028E828F83A3A3A3A3E508F0A3E50A
:1026900009F07F08021A84EA2401F508EB3400F5FA
:1026A0000922C082C083E9906000F0D083D08222EA
:1026B000C0E074F2121AC4E589A2E1500312138734
:1026C000758900C2C57F01021B23C0E074F2121A93
:1026D000C4E58BA2E05003121387758B00C2E87F1C
:0A26E00001021B23C2C753BEFC32E7
:1026EC00FFFFFFFFFFFFFFFFFFFFFFFFC082C08365
:1026FC00E9900A6DF002296474F712196CE99002E2
:10270C00DDF07C157D037AFF7BFF1207ED9002DE76
:10271C0074FFF0A3F0A3E4F0A3F079051207759011
:10272C0002DDE0F912069D7A0B7B08120AB1023623
:10273C00BC74F412196CEAFEEBFF5480602C90020E
:10274C00DDE0F912115F8A088B09EA450960138AEA
:10275C00828B83E064B0700312078DAA08AB091258
:10276C001147EEFAEF6480FB80047A007B007F0453
:10277C00021A3E74F212196C74FC121915EAFEEB73
:10278C00FF7412121960122F4FEE4F7003022822A1
:10279C007402121960EEF0A3EF12408A8510828544
:1027AC001183AA82AB83120697E9F50A706BE508D0
:1027BC00450960658E828F83124181EE4F60577A96
:1027CC00067B001211B98A0C8B0DA80CA90DE849D7
:1027DC007005750A13804288828983E4F012282AD6
:1027EC00A3EEF0A3EFF088828983123E419002E3BE
:1027FC001228B29002E3700512409A801CE0FCA3F0
:10280C00E08003EAFCEBFD8C828D831228B270F31E
:10281C008C828D8380E2750A02A90A023747A312C3
:10282C00282F22F088828983A32274F212196C89D2
:10283C000AE975F017A4FEAFF09002E2E4F0900202
:10284C00E01228B2600A1211BF9002E0E4F0A3F08B
:10285C00EEFAEFFB1211B98A088B09EA4509602BD5
:10286C00EEFCEFFD790012112F9002E0123E457B39
:10287C0000800812289CE4F0A3F00BEBC3950A40EF
:10288C00F2E50A9002E2F079008002791302374CEB
:10289C00EB75F017A4F8A9F09002E0E028FAA3E099
:1028AC00398A82F5832212364CEA4B2274F21219C1
:1028BC006CEAFEEBFF740E121960123CDE75080018
:1028CC007509008003122F42C3E5089CE5099D5051
:1028DC002A85080A85090B7403780A121902EE2559
:1028EC000AFAEF350BFB8A828B83A3A3123D4BE5CF
:1028FC000C687003E50D6970CC80047A007B0002D3
:10290C00374C74F412196C7900EAA2E0501B75086C
:10291C00747509827808121B7F7C047D007A6F7BAA
:10292C000A12076F740212192B02277AC082C08315
:10293C009002E312296B601C88828983A3A3E06A4E
:10294C007003A3E06B8882898370E8A3A3A3A3120E
:10295C00364880047A007B00D083D08202011412A6
:10296C003D53E8492274F012196C74FC1219158A43
:10297C00088B09851082851183E4F0A3F0EA240208
:10298C00F50CEB3400F50D1230838A828B83A3A3F4
:10299C00A3A3E024FE603924FC604624FE6052248C
:1029AC00FE605E24FE7003022A8924FE7003022B53
:1029BC000B24FE7003022B1A24FE7003022B292415
:1029CC00FC7003022B3824FE7003022B47022B8B66
:1029DC009002FC7417F0A3E4122B9A120421022B20
:1029EC008B851082851183AC82AD83120793022BE9
:1029FC0054851082851183AC82AD83120799022B0A
:102A0C00547402121960AC82AD83850A82850B83E3
:102A1C001233E28A0E8B0FAC0EAD0FEC4D604CE412
:102A2C00F50EF50F780E121B7F750EFC750F0278E4
:102A3C000E121B7F750EFD750F02780E121B7F7424
:102A4C0008121960121B967916850C82850D83125B
:102A5C00408112192BE9FF70147CFC7D02850C82DD
:102A6C00850D83123648120439800E7F01850A8247
:102A7C00850B83122B8E12409AEF022B55850A0E72
:102A8C00850B0F7402121960AC82AD83850E8285A2
:102A9C000F831233E28A0A8B0BAC0AAD0BEC4D6040
:102AAC004D850E82850F83A3A3121B96750AFC75A8
:102ABC000B02780A121B7F750AFD750B02780A123D
:102ACC001B7F7408121960121B967916850C82856F
:102ADC000D8312408112192BE9FF70147CFC7D02CE
:102AEC00850C82850D8312364812043F808B7F0142
:102AFC00850E82850F83122B8E12409A022A8585B1
:102B0C001082851183AC82AD8312079F803A8510A9
:102B1C0082851183AC82AD831207A5802B85108230
:102B2C00851183AC82AD831207AB801C8510828526
:102B3C001183AC82AD831207B1800D851082851193
:102B4C0083AC82AD831207B7E9FEEE603285088252
:102B5C00850983A3E064146026850882850983A314
:102B6C00A3A3A3E09002FCF0851082851183123D93
:102B7C004F9002FD12409AEEA3122B9A12041B02E4
:102B8C002D86E0F8A3E0F985108285118322F07C74
:102B9C00FC7D02850C82850D8312364C2274F0125A
:102BAC00196C74FA12191574041219601233EFF5BA
:102BBC0008EB3400F5097C157D0079007AFC7B026A
:102BCC0012112FE508240212351685108285118307
:102BDC0085820C85830D780C121B7F8508828509F4
:102BEC0083123C07121B7FE5082405F50CE509341C
:102BFC0000F50D780C121B7F123C1E85088285098E
:102C0C00831232A412192B8A0C8B0DAE0CAF0DE56E
:102C1C000A2402F50AE50B123089EE4F7003022DDF
:102C2C005F801574021219601236488882898312EB
:102C3C0032DF9002FCE004F09002FCE0C39405400B
:102C4C0003022D5FE4F50CF50D780C121B7F750C4F
:102C5C00E5750D02780C121B7F750CE6750D02786C
:102C6C000C121B7F7406121960121B967910EEFC65
:102C7C00EFFD850A82850B8312408112192BE970B6
:102C8C005C850882850983A3A3A3A3A3A3A3E0F86F
:102C9C009002E5E0687046123C0B121B7F7CE67DCF
:102CAC0002E5082408FAE5093400FB121129740224
:102CBC0012192BE960278E828F83A3A3A3A312364C
:102CCC00489002FCE0F50C7402780C12190274FDA9
:102CDC00250CF5827402350DF5831232DF74021265
:102CEC00196085820C85830D780C121B7F7402127F
:102CFC001960121B96123C1EEEFAEFFB1206C17401
:102D0C000412192B8A0C8B0DAE0CAF0D9002FCE04B
:102D1C00F50C750D007402780C12190274FC250C5C
:102D2C00F87402350DF988828983A31228B27003D6
:102D3C00022C26E82403080808E93400F9EE4F6059
:102D4C0003022C2F8882898374FFF0A3F09002FC7D
:102D5C00E004F09002FCE0600A12363E12042D7979
:102D6C00008013850882850983123D4F7404121963
:102D7C0060124097790A74068002740412192B7F32
:102D8C0008021A3E74F012196C74F81219157402B8
:102D9C001219601232DF7406121960123541740276
:102DAC00121960E02405F8A3E012363412409A851B
:102DBC001082851183123667F508A3E0F5097E00B1
:102DCC007F00740412196085820A85830B780A12BD
:102DDC001B7F7402121960123BF3F50A750B007815
:102DEC000A121B7F7404121960E02405F50AA3E093
:102DFC00123089780A121B7F7406121960123BD2AA
:102E0C00122F571206B5740612192B8A0C8B0DEA69
:102E1C00450D7003022EF4EA2404122F20122F4FBA
:102E2C008A828B83A3A3A3E0F97402121960123275
:102E3C00CB6003022EF4E4F50AF50B780A121B7F23
:102E4C00750AE5750B02780A121B7F750AE6750B7D
:102E5C0002780A121B7F740A121960121B967913DE
:102E6C00AC0CAD0D740A12196012407C12192BE9CE
:102E7C00FF70759002E5E0F8EE7009E02402900214
:102E8C00FDF080149002FDE0FCE82402FAE434002A
:102E9C00FBEA6C7001EB70538E82AA8212308E9416
:102EAC001412307B5042850E82850F83E0C0E012F5
:102EBC003289D0E01232D4C0E0123295D0E0123216
:102ECC00E5121B7F122F2C12192B9002E5E02EFE1F
:102EDC0074FF6508700474FF6509600C122F42EED4
:102EEC00C394145003022DCEEE60121232AD740254
:102EFC001219601232BE12043379008012EF700284
:102F0C007F0A7406121960123BD2123E45EFF97417
:102F1C0008022D88F50EEB12351A850E82F58322E8
:102F2C007CE67D028E0A74FE250AFA74023400FBDC
:102F3C00121117740222E5082401F508E509340082
:102F4C00F50922E0F508A3E0F50922A3A3E0FCA310
:102F5C00E0FDAA08AB092274F012196C74FC12196A
:102F6C00157402121960123541EA2405F50EEB12A4
:102F7C00351A7F009002FCE4F0FEEA24021230863F
:102F8C0080489002FCE0FA9002E5E0F812308E9452
:102F9C001712307B400D9002FCE0F87416C3989029
:102FAC0002E5F0E0F5087509007808121B7F7CE655
:102FBC007D0274FD2AFA7402122F3912192B900219
:102FCC00E5E0F89002FCE028F00EE50E2416F58200
:102FDC00E50F3400F583E0F8EEC39840030230703F
:102FEC009002FCE0C39416507BEEC333F8E433F943
:102FFC00E50E28F508E50F39F50985108285118352
:10300C00AC82AD83850882123537AC0CAD0DEC4D1E
:10301C0070137F018508828509831233DC121960D5
:10302C001240978045E4F50CF50D780C121B7F755A
:10303C000CE5750D02780C121B7F750CE6750D02F4
:10304C00780C121B7F7406121960121B9679168568
:10305C000A82850B8312408112192BE9FF7003023F
:10306C002F8E80B012363E120445EFF9022D86E900
:10307C009400C365D03322EA2405F50AEB3400F53D
:10308C000B22EA28F8E43400F9E82274F012196CE7
:10309C0074F81219158510828511831232DF7406AB
:1030AC00121960123541851082851183E02405F5D3
:1030BC000CA3E03400F50D7E007F0074041219603F
:1030CC008582088583097808121B7F850C82850D03
:1030DC0083A3A3A3A3E0F5088E097808121B7FE550
:1030EC000C2405F508E50D3400F5097808121B7F52
:1030FC00850C82850D83A3A3123C24850C82850D3F
:10310C00831232A412192B8A088B09801F8882899A
:10311C008374FFF00E12329574FF1232E5121B7F8E
:10312C00122F2C12192B9002E5E02EFEE508450912
:10313C006029850882850983A3A3122B901232CBB8
:10314C00E5082404123516EF602B850E82850F835B
:10315C00123D4F7406121960124097EE7003023242
:10316C006E1232AD8510828511831232BE12044B61
:10317C007900023286E4F50AF50B780A121B7F758A
:10318C000AE5750B02780A121B7F750AE6750B02AD
:10319C00780A121B7F740A121960121B967911ACF3
:1031AC0008AD09740812196012407C12192BE9FF42
:1031BC0070988E82AA82EE9002E57009E024049049
:1031CC0002FDF08025E0F89002FDE0F50AE8240409
:1031DC00FCE43400FDEC650A7001ED708412308E55
:1031EC00941212307B400302316D850E82850F8361
:1031FC00E0C0E0123289D0E01232D4C0E012329535
:10320C00D0E0F00E740212196085820A85830B7867
:10321C000A121B7F7406121960121B96850C82858C
:10322C000D83122F571206C1740412192B8A088BA6
:10323C00098E0A74FE250AF874023400F9EA45096D
:10324C0070030231197402121960E088828983F0CC
:10325C000E7402121960A3E0C0E0123295D0E002A5
:10326C003126EF70027F0A850C82850D83123D4F4B
:10327C007406121960124097EFF9022F1B74FE2A84
:10328C00F58274023400F583228E0A74FE250AF549
:10329C008274023400F5832212364C1206B5740681
:1032AC00229002FDE0F5F0EE849002FCF07CFC7DB7
:1032BC0002221232C222124076E0FAA3E0FB221262
:1032CC0032C21206A3E9FF22F00E850E82850F830F
:1032DC00A3E022EAF0A3EBF022F00E9002E5123C00
:1032EC003C2274F012196C74FC1219157402121928
:1032FC00601233EFFEEB3400FF851082851183AC36
:10330C0082AD838E828F831233E28A088B09EA4561
:10331C000970030233ACE50A2402F50EE50B1235F5
:10332C001A8A828B83A3A3A3E0A2E5502285108284
:10333C00851183123BF960637912AC08AD09850ED7
:10334C0082850F83123C1412196AE9F5087056E451
:10335C00F508F5097808121B7F8E828F83A3A3E0F2
:10336C00F5087808121B7FEE2403F508EF3400F5FE
:10337C00097808121B7F8E828F83123C24123652DE
:10338C0012192BE9F508701D1233D07029850E82A5
:10339C00850F83123648120451801B75080E800964
:1033AC007508018004E508600D8E828F831233DC72
:1033BC001219601240971233D0600479008002A970
:1033CC0008022D86EE2418F582EF3400F583E022F6
:1033DC00123D537402221233E622E0FAA3E0FB12F0
:1033EC0006BB22ECF0A3EDF08A0A8B0BEA24052233
:1033FC0074F012196C74FC12191574021219601203
:10340C0035418A0E8B0F123083750800851082852A
:10341C001183AC82AD83850A82123537AE0CAF0DA9
:10342C00EE4F70030234FFE50E2402F50EE50F1289
:10343C00351A8E828F83A3A3A3E0A2E5502F8510AB
:10344C00828511831236481207C98A088B09EA450E
:10345C000960427912EEFCEFFD850E82850F831216
:10346C00352D12196AE9F5086003023502850E82C2
:10347C00850F83124185EEFAEFFB12351F70127A1D
:10348C00FF7BFF12351F606688828983EEF0A3EF05
:10349C00F07E00800675080E805C0E9002E2E0FA69
:1034AC00EEC39A5049EE75F017A4FAABF0888289F6
:1034BC0083A3A3E02AFAA3E03BFB8A828B83123C12
:1034CC0024EC4D70D5750C17750D00780C121B7F04
:1034DC00AC0AAD0B121117740212192BAC0AAD0BFE
:1034EC00850E82850F831236481204578017750893
:1034FC00098003750801850A82850B831233DC125F
:10350C001960124097A908022D86F50EE5093400C2
:10351C00F50F221207BD8A0C8B0DA80CA90DE849DA
:10352C002212364C85088285098322F5831233E6F4
:10353C008A0C8B0D22ECF0A3EDF02274F012196CB6
:10354C0074FC1219157402121960123541EA240523
:10355C00F8EB12363412409A750900EA2402122F45
:10356C00201236481241177003023623750800806A
:10357C006E8510828511831236676401704A8E82C3
:10358C008F83A3A3121B968E828F83123C07121B70
:10359C007FEE2405F50CEF3400F50D780C121B7F33
:1035AC0012365212192BE9F509601D85108285110E
:1035BC0083123BD2E4F08E828F831236487402124F
:1035CC001960123BD21232DF7C177D007900EEFAC3
:1035DC00EFFB12112F8E828F83E4F0A3F00508907D
:1035EC0002E2E0F8E508C398501EE50875F017A450
:1035FC00F8A9F0850A82850B83A3A3124061123CC3
:10360C0024EC4D600302357D850A82850B8374FFA3
:10361C00F0A3F0E509700C850E82850F83123648F5
:10362C0012045DA909022D863400F98510828511DA
:10363C0083227CFC7D02850A82850B8312364C2208
:10364C00E0FAA3E0FB22850E82850F8312364C1222
:10365C0007DB740622850A82850B83123BD6E02297
:10366C00C082C0839002DEE06A7003A3E06B700638
:10367C007ADE7B0280047A007B0002296474F712E4
:10368C00196C7F00EF75F003A4F8A9F0EC28F8EDA5
:10369C0039F988828983E06A7003A3E06B7006E8CD
:1036AC00FAE9FB800B0FEFC3940240D87A007B0041
:1036BC007F01021A3E74F612196C123CED70067AF8
:1036CC00007B008007A3A3A3A3123648023DBD7460
:1036DC00F212196CE9FE740E121960E0F50AA3E0FF
:1036EC00F50B7410121960E0F50CA3E0F50D8C824B
:1036FC008D83E064027040123D4E88828983E0F530
:10370C0008A3E0F9A808740268700374296970278B
:10371C007508027509007808121B7F850C08850D49
:10372C00097808121B7F780A121B7FEEF91207FF2B
:10373C00740612192B800279018005740412192B5E
:10374C007F06021A3E74F012196C74F61219157475
:10375C00061219601232DF740212196012354174AC
:10376C0001121960E9F0741C121960122F4F7420A9
:10377C00121960124185851082851183E4F0740260
:10378C0012196012406DE0A2E4502F741A121960E5
:10379C00123BF9700302387E790A74021219601216
:1037AC003C247406121960123C1412196AE9851033
:1037BC0082851183F060030238877402121960123B
:1037CC00366764026003023B657402121960A3E061
:1037DC00F5838882123D4E850882850983A38582F4
:1037EC000E85830F7402121960E02406F50AA3E01B
:1037FC0012308988828983E0FAA3E0F9EA2400F583
:10380C000CE439F50D780C121C0901000028012874
:10381C003E3807000228363903289E380029713AB1
:10382C000129993A0229393A0329713A0429023BB0
:10383C00653BEE4F7052850A82850B83123D4FE833
:10384C00FAE9FB8A828B83E0C0E0741E12196012C5
:10385C003BD2D0E0123C33121B7F8A828B83A3E0D5
:10386C00FCA3E0FDAA08AB09121117740212192B64
:10387C008009851082851183740EF0851082851164
:10388C0083E0F9740A022D88851082851183740BEC
:10389C0080E8EE4F70F2741E121960123BD2740164
:1038AC00F0123661850882850983F07C007D0074F6
:1038BC0002121960123BF32401FAA3E03400FB124C
:1038CC0006BBEA4B60498A828B83E02402F8741EA3
:1038DC00121960E0F9A3E0F5838982E028F0EA246C
:1038EC0004F8EB3400F988828983E0850E82850F19
:1038FC0083123C45123C33121B7F8A828B83A312AA
:10390C003C24E5082403FAE5093400FB02387474FE
:10391C001E1219601236672404F07C047D007900B5
:10392C00AA0EAB0F12112F023887EE4F600302382C
:10393C0094123661FEA3E0FF741E121960123BD282
:10394C007404F0EE850882850983F0EF850E82857C
:10395C000F83F07408121960AC82AD83EEFAEFFBA2
:10396C001206BB8A0A8B0BEA450B7003023A178AC4
:10397C00828B83A3A3124181740412196085820C7B
:10398C0085830D780C121B7F740A121960121B961A
:10399C007CFF7DFF1206C1740412192B8B0DEA45B6
:1039AC000D7033850A82850B83123C0B121B7F85AD
:1039BC000A82850B83A3121B967C027D007A2E7BD8
:1039CC00831204F9740412192BE9700A7404121985
:1039DC006074FFF0A3F08E828F83E0640270367502
:1039EC000A02750B00780A121B7F8E828F83A3123A
:1039FC003C24E5082404FAE509122F3912192B741A
:103A0C001E121960123667240280097404121960A0
:103A1C00EEF0A3EFF07404121960123BC8F07404BA
:103A2C00121960A3123BC0A3A3A3023886EE4F6009
:103A3C0003023894850A82850B83123C2474061287
:103A4C0019601236481207F38A0A741E1219601292
:103A5C003BE3E50A850882850983F0850E82850F94
:103A6C0083EB023886EE4F6003023894123661F80D
:103A7C00A3E0F9741E121960123BE3E885088285F5
:103A8C000983F0E9850E82850F830238861236424F
:103A9C00121111EAFC8C82A882C39EE49F404CE870
:103AAC006E7001EF70047C00801E7401121960E0CE
:103ABC00FAEE2AFAEF3400FBC3EA98EB94005003B9
:103ACC00E08004EECCC39CFC741E121960123BD235
:103ADC00ECF08C0C750D00780C121B7F850A82851E
:103AEC000B83E02EFCA3E03F02386F85108285111A
:103AFC00837407023886EE4F6003023894850A827D
:103B0C00850B83123D4F741E121960123BEA740729
:103B1C00F088828983123BC012282BE0850E8285A7
:103B2C000F83F0E82402FAE93400FB8A828B8312BB
:103B3C003BC0123C2A123BC812282AA3A3A3123B57
:103B4C00CCF0E82405F8E93400F988828983123B2B
:103B5C00CCA3123C45A3023A33741A121960123CDE
:103B6C00E6700302387E123D4F880A890BE8450B3C
:103B7C00700302387E8E0C8F0D780C121B7F742014
:103B8C00121960121B967808121B7F7407121960A9
:103B9C00E0F97408121960123C24740C12196012AA
:103BAC003C1412196A740612192BE98510828511BE
:103BBC0083023886E085088285098322123C4C22D8
:103BCC00123C4CA3A322123BD622123BDA22E0F881
:103BDC00A3E0F583888222123BEA7402F022E0FA19
:103BEC00A3E0F5838A8222124071A3E02212364CA4
:103BFC001207C98A0A8B0BEA450B22A3A3A3A3E0E5
:103C0C00F50C750D00780C2212364C850A82850B4A
:103C1C008322850E82850F83E0FCA3E0FD22A3A303
:103C2C00F08A828B83A322F08A828B83123C3C2203
:103C3C00E0F50A750B00780A2212282F123C4C2250
:103C4C00E0850882850983A3A32274F212196C748F
:103C5C00FC12191574021219601232DFECFAEDFB2A
:103C6C007414121960E0FE7416121960E0F50AA3C0
:103C7C00E0F50B851082851183AC82AD831206BBF7
:103C8C008A088B09EA4509604485108285118312E4
:103C9C003CE66035A3A3123CDEE8450D602B780AA8
:103CAC00121B7F7414121960121B96EEF9AC08AD3E
:103CBC00097406121960123648850C82850D831220
:103CCC00196A740412192B8006790E80027901028C
:103CDC003747123D53880C890D2212364C123CED9D
:103CEC00221207878A828B83E58245832274F6121F
:103CFC00196C74FE121915740C121960123D4FE8F0
:103D0C00851082851183F07401121960E9F0E4F5D5
:103D1C0008F5097808121B7F7508027808121B7FBA
:103D2C0074041219608582088583097808121B7F38
:103D3C001207DB740612192B740212192B8072A352
:103D4C00A3A3A3123D5322E0F8A3E0F92274F712C7
:103D5C00196CEAFEEBFF89087C157D031207F3EA68
:103D6C005402600BA908EEFAEFFB1206AF80027941
:103D7C00010236BC74F612196C74FF6A700374FF7E
:103D8C006B701C7B00EB75F003A4F8A9F0EC28F821
:103D9C00ED39F9123DC20BEBC39402501480E612BC
:103DAC0007C38A088B09A808A909E8496003123DD2
:103DBC00C27F02021A3E8882898374FFF0A3122804
:103DCC002FA3E4F02274F612196C1207C38A828BAB
:103DDC0083E58245836006A3A3E0FA80027A007B28
:103DEC000080CE74F212196C8A088B098C0A8D0B28
:103DFC00740E121960E0FE1207C38A0C8B0DA80C0E
:103E0C00A90DE8497022AC0AAD0B7AFF7BFF1207B3
:103E1C00C38A0A8B0BA80AA90BE849700479118094
:103E2C001188828983123E45EE88828983A3A3F090
:103E3C00790002374CA3A3A3A3E508F0A3E509F08E
:103E4C002274F012196C74FE1219158510828511EA
:103E5C00831235418A088B09890B7412121960126E
:103E6C003D4F7414121960123C247416121960120E
:103E7C003648750A00EC4D6003023F1A7402650B5C
:103E8C006003023F1588828983E0FCA3E0F9EC24EF
:103E9C0000FEE439FFEAF4F8EBF4F9EE58F8EF59C8
:103EAC00F9E849705F851082851183E02406F50ED0
:103EBC00A3E0122F23122F591207F38A0C8B0DEE4D
:103ECC00650C7003EF650D60488E0C8F0D780C122D
:103EDC001B7F850E82850F83122F591207F97402EE
:103EEC0012192BE9F50A7029780C121B7F74021237
:103EFC001960123BD2A3A3122F571208117402128D
:103F0C00192B800D750A808008750A0D8003750ABF
:103F1C000BA90A7402022D8874F012196C74E51244
:103F2C0019157402121960EAF0A3EB12408A890E7B
:103F3C00742F121960E0F50F750800750900E5097A
:103F4C0075F003A4F8A9F07402121960124061E034
:103F5C00F47003A3E0F4700302404E8E828F83A3AF
:103F6C00A3E0700302404E851082851183121B96CC
:103F7C00742F121960123C24742D121960123648D9
:103F8C0012077B740212192B8A0C8B0DEA450D70EB
:103F9C000302404EE4F50AF50B780A121B7F7408F5
:103FAC0012196085820A85830B780A121B7F740BA9
:103FBC0012196085820A85830B780A121B7F743173
:103FCC0012196012406DA3121B967914AC0CAD0D36
:103FDC008E828F8312408112192BE97065850C82B9
:103FEC00850D83123D4B740412196012409A8E8217
:103FFC008F83A3A3E0A2E05018A90E7404121960D9
:10400C00AC82AD838E828F831236481206D3E9427E
:10401C00088E828F83A3A3E0A2E15026E50FF50A58
:10402C00780A121B83A90E7405121960AC82AD8339
:10403C008E828F831236481206CD740112192BE929
:10404C0042080509E509C394025003023F4AA90836
:10405C00741B022D88E028FEA3E039FF8E828F832B
:10406C002212407122124076A322123BDAA3A32221
:10407C00123BD6A3A312364C1207D5740822F08536
:10408C001082851183ECF0A3EDF022123BEAE8F0EC
:10409C00A3E9F02274F212196C8A088B09E9FF74F7
:1040AC00016F600D74026F705F7901120ACFE970B5
:1040BC0057AA08AB0912411760437E00800A7C178F
:1040CC007D00790012112F0E9002E2E0F8EEC398F9
:1040DC005020EE75F017A4F8A9F0850A82850B83A1
:1040EC00A3A3E028FAA3E039FB8A828B8312296B05
:1040FC0070CC850A82850B8374FFF0A3F07C157D50
:10410C0003AA08AB091207ED02374C1207BD8A0A45
:10411C008B0BEA450B2274F212196C8A0A8B0B8CEE
:10412C00088D09740E121960124185900A6DE0F425
:10413C0060407A097B00121141EA4B60358A828B10
:10414C008374B1F0A3E4123C2CA3123C2AA3E50A1D
:10415C00F0A3E50B123C2C123E418A828B83A3A365
:10416C00A3A3A3A3A3EEF0A3EFF0900A6DE0F912C2
:10417C00114D02374CA3A3A3A3E0FEA3E0FF2274CE
:10418C00F412196CE9FE7F008A088B097808121B5F
:10419C00C300040D3543BE41DB41F64113423042AE
:1041AC004D426E428B429D42C342CB42E142F742AA
:1041BC00114374016E60030243318C828D83E0F8ED
:1041CC00C394034003024331E8900B5902430E742D
:1041DC00026E60030243318C828D83E0F8A3E0F918
:1041EC00900B5AE8F0A3E902430E74016E600302CF
:1041FC0043318C828D83E0F8C39402400302433137
:10420C00E890076802430E74016E60030243318C20
:10421C00828D83E0F8C394054003024331E8900794
:10422C006902430E74016E60030243318C828D83EC
:10423C00E0F8C394024003024331E890076A02435A
:10424C000E74106E60030243317508108F097808E4
:10425C00121B7F7A6B7B07121117740212192B0237
:10426C00435574016E60030243318C828D83E0F8F8
:10427C00C394024003024331E890077B02430E745F
:10428C00016E60030243318C828D83E0900B5D8064
:10429C007174046E60030243318C828D8378081232
:1042AC0017E59082F278081215D9407990077D783D
:1042BC00081217F4024355EE706B1212CD80617424
:1042CC00016E70618C828D83E0F8C394025056E8C5
:1042DC0090077C802D74016E704B8C828D83E0F87E
:1042EC00C3940A5040E8900B5C801774016E7035D3
:1042FC008C828D83E0F874F928C3940A5027E890D7
:10430C000B5EF0804474016E701B90080FE0F88C0B
:10431C00828D83E090080FF0E8702EE06401702924
:10432C001212BB80247F188020C3EA9423EB9400E4
:10433C00501574026E70108C828D83E0FCA3E0FD2E
:10434C00120505E9FF80020F0FEFF97F04021A3EF8
:10435C0074F112196C74DA1219158C0C8D0D908283
:10436C0058C082C0837420121960AC82AD83D08394
:10437C00D08274061218287420121960AC82AD8396
:10438C00121261E9FE7435121960E0F508EEC3945F
:10439C000A40030244AC12129DE9FF7404650860E4
:1043AC0008900B59E06402700DAD08EFFCEEF9AA11
:1043BC000CAB0D12130F7C147D007900740C1219C8
:1043CC0060AA82AB8312112F75F006EEA4F5097466
:1043DC000C121960AC82AD837A1074242509F91281
:1043EC0014CBE9703C7C1079FF740C121960AA8212
:1043FC00AB8312119BE97029741C121960AC82AD4D
:10440C00837A0474252509F91214CB740C121960E3
:10441C00AC82AD83EFA2E0E433F9AA0CAB0D12052C
:10442C008F851082851183AC82AD837A0C74702ECB
:10443C00F91214CBE97058851082851183AA82ABCE
:10444C00831212917E008041EE75F003A4F8A9F05E
:10445C00851082851183E58228F8E58339F98882F5
:10446C008983E0FCA3E0FDEC4D601D88828983A369
:10447C00A3E0F50A750B00780A121B7FAA0CAB0D92
:10448C001207E1740212192B0EEEC3940440B9EF1B
:10449C00A2E1500C900767E0F9AA0CAB0D1207E7EC
:1044AC0074046508700F900B59E064027007AA0C35
:1044BC00AB0D1213097900742612192B7F07021AFF
:1044CC003E74F212196C8A088B09ECFEEDFF750A2A
:1044DC000AE9600B146008146031146033804712D1
:1044EC0012AFE9F50AC3940A503CEE4F6038750CD4
:1044FC0006750D00780C121B7FAC08AD09EEFAEFB7
:10450C00FB121117740212192B801B1212A98003B3
:10451C001212B5E9F50AC3940A500BEE4F6007EE80
:10452C00FAEFFB1212A3A90A7F06021A3E74F412C8
:10453C00196CE9FF7E1574FF6A700374FF6B7029A8
:10454C007508008011FC7A027B00A90812127FE921
:10455C0060027E000508E508C3940AEF40E7604E50
:10456C007AF77B12120AE18045120AC38A088B097A
:10457C00EA450960387C007D00EA2405FAEB34003A
:10458C00FB850882850983A3A3A3A3E0F91212611A
:10459C00E9C3940A500BEFFC7A027B0012127F7E67
:1045AC0000EF600AAA08AB091212F780011EEEF99F
:1045BC007F04021A3E74F212196C8C088D097E1558
:1045CC00740E121960E0F50AA3E0F50B74FF6A7023
:1045DC000374FF6B701D7F00EFC3940A504FAC0A3D
:1045EC00AD0BAA08AB09EFF9121285E960027E0047
:1045FC000F80E5120AC38A828B83E5824583602C87
:10460C007C007D00E5822405FAE5833400FBA3A33E
:10461C00A3A3E0F9121261E9C3940A5010AC0AADDD
:10462C000BAA08AB091212857E0080011EEEF97FE1
:10463C0006021A3EC082C083900781EAF0A3EBF019
:10464C00900767E0FC7D007A227B0012050590073D
:10465C0067E0F912075DD083D08202011474F01266
:10466C00196C74EC121915EAFEEBFF8E828F83A382
:10467C00A3E024FA7003024A7224FD700302494736
:10468C0014700302473F14601024FD70030248E9C4
:10469C00147003024981024A7B900781E0F8A3E081
:1046AC00F9E8496062900781E0F8A3E0F58388821D
:1046BC00E0F8A3E0F988088909E845096049EE2487
:1046CC000CF582EF3400F583E0F50A780A121B83AF
:1046DC00EE240BF582EF3400F583E0F98E828F83A4
:1046EC00A3A3A3A3A3A3A3A3A3E0FCA3E0FDEE2495
:1046FC0003FAEF3400FB85088285098312196A746A
:10470C000112192B024A7BEE2409FEEF3400FF8EB6
:10471C00828F83121B9690077D1218031205A174C9
:10472C000212192BE97003024A7B79018E828F8366
:10473C00024A088E828F83A385820E85830FE060E8
:10474C00030248A0EE2405F508EF3400F5098508AE
:10475C0082F583E0A2E040030248A07C0E7D007944
:10476C0000851082851183AA82AB8312112FEE244F
:10477C0008F50CEF3400F50D850C82F583E0FAA3F7
:10478C00E0FBEA4B6010750A06750B00780A121BE9
:10479C007FEA241080248E828F83A3A3A3E0FAA344
:1047AC00E0FB120AC3EA4B7003024A7B750A0675DA
:1047BC000B00780A121B7FEA2405FCEB3400FD7415
:1047CC0002121960AA82AB83121117740212192BF0
:1047DC00850882850983E0A2E25004D2F08002C2EF
:1047EC00F0A2F0E433F8740C121960E048F08E82F9
:1047FC008F83A3A3A3A3A3A3A3A3A3A3E0FAA3E0E0
:10480C00FBEA4B6011EA2410F582EB3400F5837857
:10481C00081217E5800C7508FF7509FF750AFF75FE
:10482C000BFFEA4B70047A007B00850C82850D83AC
:10483C00E0F8A3E0F9E8496006880C890D8006755C
:10484C000C00750D007808121B7B8A088B09780800
:10485C00121B7F780C121B7FEE240CF582EF3400B8
:10486C00F583121B968E828F83A3A3A3A3A3A3E02D
:10487C00FCA3E0FD740A121960AA82AB8312129792
:10488C00740A12192B8E828F83A3A3A3E0FAA3E0E0
:10489C00FB12131B900781E0F8A3E0F9E8497003C1
:1048AC00024A7B900781E0F8A3E0F5838882A3A3FA
:1048BC00E0F8A3E0F98909E845097003024A7B8511
:1048CC000E82850F83E0FC79018E828F83A3A3A3D4
:1048DC00E0FAA3E0FB8882850983024A6DEE24038B
:1048EC00F508EF3400F509850882F583E0FAA3E0BA
:1048FC00FB12131B900781E0F8A3E0F9E849700361
:10490C00024A7B900781E0F8A3E0F5838882A3A399
:10491C00E0F8A3E0F9890BE8450B7003024A7B8EA3
:10492C00828F83A3E0FC7902850882850983E0FAF3
:10493C00A3E0FB8882850B83024A6D7C007D00EE30
:10494C002404FAEF3400FB8E828F83A3A3A3E0F937
:10495C00121261E9F8C3940A4003024A7BEE240A5E
:10496C00FCEF3400FD7A0475F006E8A42425F91256
:10497C0014C5024A7BEE2403F508EF3400F50985D3
:10498C000882F583E0FAA3E0FB90077CE0600790D7
:10499C000B5CE0F9806B900B59E070047905806139
:1049AC00120AC38A0A8B0B8E828F83A3A3A3A3A3A1
:1049BC00A3A3E0A2E0504FEA450B7003024A7B8AA6
:1049CC00828B83A3A3A3A3E0F9603B8E828F83A386
:1049DC00A3A3A3A3A3A3A3A3E054107029740E1242
:1049EC001960AC82AD83EA2405FAEB3400FB121299
:1049FC0061E970127903850882850983E0FAA3E0E6
:104A0C00FB12059B8069EE2405FCEF3400FD850A42
:104A1C0082850B83A3A3A3A3E0F985088285098370
:104A2C00E0FAA3E0FB121303900781E0F8A3E0F98E
:104A3C00E849603B900781E0F8A3E0F5838882A306
:104A4C00A3E0F8A3E0F9E8FEE9FFEE4F60217C005B
:104A5C007900850882850983E0FAA3E0FB8E828FBA
:104A6C008312196A8009120661E970031212BB7471
:104A7C001412192B7F08021A3E74F412196C74F27A
:104A8C00121915EAFE8C0975F006E9A42420F50824
:104A9C00851082851183AC82AD837A0EF91214CB0A
:104AAC00E970597C0679FF851082851183AA82AB47
:104ABC008312119BE97045740C121960E0F8A3E0A5
:104ACC00F9E8F50BE5096005EE420B8004EEF452B3
:104ADC000B850B82AA82E86A7001E9601B740C12C8
:104AEC001960EAF0A3E4F0851082851183AC82ADE5
:104AFC00837A0EA9081214C5790180027900740E0C
:104B0C0012192B7F04021A3E74F012196C74E612FF
:104B1C001915890C8A0E8B0FECFEEDFF740C121913
:104B2C0060AC82AD837A0E75F006E9A42420F912EC
:104B3C0014CBE96003024C437C0679FF740C121908
:104B4C0060AA82AB8312119BE96003024C43747020
:104B5C00250CF509851082851183AC82AD837A0C06
:104B6C00F91214CBE96003024C3F750800851082E2
:104B7C00851183AA82AB83121291E50E450F702921
:104B8C007C0C7900851082851183AA82AB8312116B
:104B9C009BE9707D7C0C7D007900851082851183EA
:104BAC00AA82AB8312112F8065851082851183AC8C
:104BBC0082AD83AA0EAB0F12128B8A0A8B0BA80A3A
:104BCC00A90BE8497028EE4F606D85108285118322
:104BDC00AC82AD837A007B0012128BEAF8EBF9EA17
:104BEC004B605488828983E50EF0A3E50FF0E8242E
:104BFC0002F582E93400F583E0FAEE6A7001EF60A9
:104C0C0010EEF04F700888828983E4F0A3F07508E9
:104C1C0001E508601E851082851183AA82AB831280
:104C2C001291851082851183AC82AD837A0CA9090F
:104C3C001214C5790180027900741A12192B7F089D
:104C4C00021A3E74F712196C7F0080010FEFC394A7
:104C5C00045021EF75F003A4F8A9F0EC28F8ED3915
:104C6C00F988828983E06A7003A3E06B70DEE8FA4E
:104C7C00E9FB80047A007B007F01021A3E74F71274
:104C8C00196C7E008030EE75F003A4F8A9F0EA28C8
:104C9C00F8EB39F988828983E0F4FCA3E0F4FD8811
:104CAC00828983ECF0A3EDF0E82402F582E934006C
:104CBC00F583E0F4F00EEEC3940440CA7F01021AAF
:104CCC003E74F412196C74F4121915EAFEEBFF8C95
:104CDC000A8D0BEE4F7005790A024DE51212AFE901
:104CEC00F508C3940A40061212C1E9F508E508C399
:104CFC00940A4003024DE375F006E508A4F509EEAD
:104D0C00FCEFFD7A0E74202509F91214C5E50A454D
:104D1C000B600EAC0AAD0B7A1B74212509F9121429
:104D2C00C57418121960E0FCA3E0FDEC4D600A7A22
:104D3C001B74222509F91214C5741A121960E0FCAF
:104D4C00A3E0FDEC4D600A7A1074232509F91214C6
:104D5C00C5741C121960E0FCA3E0FDEC4D601D7ADB
:104D6C001074242509F91214C5741E121960AC8232
:104D7C00AD837A0474252509F91214C57C0C7D00C9
:104D8C0079FF851082851183AA82AB8312112F853E
:104D9C001082851183AC82AD837A0C74702508F96E
:104DAC001214C5750A0E750B00780A121B7FEEFCE7
:104DBC00EFFDE50875F00EA4F8A9F0748328FA74D9
:104DCC000739FB121117740212192B90080FE060AF
:104DDC00031213151212FDA908740C12192B7F045F
:104DEC00021A3E74F712196C74F2121915E9851037
:104DFC0082851183AC82AD837A0E75F006A42420D3
:104E0C00F91214CB740C121960E0F9740E12192BF0
:104E1C007F01021A3E74F412196C74F2121915EA1D
:104E2C00FEEBFFE9C3940A5004EE4F700479028044
:104E3C003E851082851183AC82AD837A0E75F006A7
:104E4C00E9A42420F91214CBE9F5087020750A1096
:104E5C00750B00780A121B7F7402121960AC82ADBC
:104E6C0083EEFAEFFB121117740212192BA90874B6
:104E7C000E12192B7F04021A3E74F412196CEAFEFE
:104E8C00EBFF75080080020508E508C3940A502F53
:104E9C00750A10750B00780A121B7FEEFCEFFDE50E
:104EAC000875F00EA4F8A9F0748928FA740739FB78
:104EBC00121129740212192BE960CCA9088002790D
:104ECC000A7F04021A3E74F412196CEAFEEBFF75A9
:104EDC00080080020508E508C3940A502F750A06DD
:104EEC00750B00780A121B7FEEFCEFFDE50875F0E0
:104EFC000EA4F8A9F0748328FA740739FB1211294F
:104F0C00740212192BE960CCA9088002790A7F047B
:104F1C00021A3E74F712196C74F0121915EAFEEBB2
:104F2C00FF75080080020508E508C3940A50448503
:104F3C001082851183AC82AD837A1075F006E5087A
:104F4C00A42423F91214CB7C1079FF8510828511CF
:104F5C0083AA82AB8312119BE970CBEEFCEFFD852B
:104F6C001082851183AA82AB83120571E970B7A9EF
:104F7C00088002790A741012192B7F01021A3E74F0
:104F8C00F712196C7C8C7D0079007A837B071211E7
:104F9C002F7E00801EEE75F00EA4F8A9F074832805
:104FAC00FC740739FD7A0E75F006EEA42420F91274
:104FBC0014CB0EEEC3940A40DC90080FE060031291
:104FCC0013151212FD7F01021A3E74F712196C7E32
:104FDC000080010EEEC3940A501E7C0679FFEE751C
:104FEC00F00EA4FAABF074832AFA74073BFB12118F
:104FFC009BE960DFEEF98002790A7F01021A3E74A8
:10500C00F712196C7E007F00801C7C0679FFEF750F
:10501C00F00EA4FAABF074832AFA74073BFB12115E
:10502C009BE970010E0FEFC3940A40DEEEF97F018D
:10503C00021A3E74F712196C79007E008006EEF9A4
:10504C001212D30EEEC3940A5003E960F17F0102F1
:10505C001A3E74F712196C74CB121915E9FE7C0EFA
:10506C007D0079FF7427121960AA82AB8312112F6D
:10507C007C1B7D0079FF740C121960AA82AB831221
:10508C00112F7C0C7D0079FF851082851183AA82FB
:10509C00AB8312112F75F006EEA4FF742712196062
:1050AC00AC82AD837A0E74202FF91214C5E9F50881
:1050BC00740C121960AC82AD837A1B74212FF91217
:1050CC0014C5E94208740C121960AC82AD837A1BCA
:1050DC0074222FF91214C5E94208740C121960AC31
:1050EC0082AD837A1074232FF91214C5E942087427
:1050FC000C121960AC82AD837A1074242FF912143F
:10510C00C5E94208740C121960AC82AD837A047440
:10511C00252FF91214C5E94208851082851183AC3C
:10512C0082AD837A0C74702EF91214C5E94208A969
:10513C0008743512192B7F01021A3E74F712196C80
:10514C0074F2121915E9900767F0851082851183A6
:10515C00AC82AD837A0E79201214CBE96003121263
:10516C00CD79011208A11212BB740E12192B7F01FA
:10517C00021A3E74F612196CEAFEEBFF548060249E
:10518C00900767E0F912115F8A088B09A909EA49AF
:10519C00600A1212E5AA08AB09121147EEFAEF6485
:1051AC0080FB80047A007B007F02021A3EC082C022
:1051BC00838A828B83E02450600C14600E24E1708F
:1051CC000D12127980081212EB80031212F1D083A7
:1051DC00D082020114C082C0838A828B83A3A3A3D2
:1051EC00A3E0641E701079008A828B83A3A3E0FA7B
:1051FC00A3E0FB121267D083D082020114C082C0DC
:10520C00838A828B83A3A3A3A3E0702F8A828B83D0
:10521C00A3A3A3A3A3A3A3121B968A828B83A3A3EA
:10522C00A3A3A3E0FCA3E0FD8A828B83A3A3E0FAF3
:10523C00A3E0FB12126D740212192BD083D08202E0
:10524C000114C082C083900767E0F98A828B83A324
:10525C00E0FAA3E0FB1207E7D083D082020114C06E
:10526C0082C08374FF1219151212C7E9C394028508
:10527C001082851183400474028002740AF0AC829F
:10528C00AD837A017905120679740112192BD0833A
:10529C00D08202011474F412196C74E81219158A74
:1052AC00088B09E9FE8C0A8D0B7C187D0079008532
:1052BC001082851183AA82AB8312112F85108285EF
:1052CC001183E508F0A3E509F0900769E0C0E074EC
:1052DC0002121960D0E0F090076AE0C0E07403128B
:1052EC001960D0E0F0900B5EE0C0E074171219600A
:1052FC00D0E0F07415121960E054FEF8A3E0F990B8
:10530C000B5DE0A2E0E433FAE84AF8741512196078
:10531C00E8F0A3E9F0900B5DE0A2E15004D2F0803C
:10532C0002C2F07415121960E054FDFAA3E0FBA25E
:10533C00F0E43333F8EA48F8EBF97415121960E825
:10534C00F0A3E9F0900B5DE0A2E35004D2F08002F0
:10535C00C2F0E854F7FAA2F0E433F50875090074CA
:10536C00037808121902EA4508F87415121960E856
:10537C00F0A3E9F0900B5DE0A2E45004D2F08002BF
:10538C00C2F0E854EFFAA2F0E433F508740478089C
:10539C00121902EA4508F87415121960E8F0A3E92D
:1053AC00F0900B5DE0A2E55004D2F08002C2F0E870
:1053BC0054DFFAA2F0E433F50874057808121902E8
:1053CC00EA4508F87415121960E8F0A3E9F0900B9F
:1053DC005DE0A2E25004D2F08002C2F0E854FBFA85
:1053EC00A2F0E433F50874027808121902EA4508B1
:1053FC00F87415121960E8F0A3E9F090076AE06000
:10540C001D7508107808121B7F7C6B7D07740612C3
:10541C001960AA82AB83121117740212192B900710
:10542C007BE0600CEE60097415121960E04402F028
:10543C0090077BE0600478018002780074141219E4
:10544C0060E048F0900768E060047804800278001F
:10545C007414121960E048F0AC0AAD0B851082850B
:10546C001183AA82AB83120595741812192B7F0431
:10547C00021A3EC082C08390077BE06004790180F1
:10548C00027900900768E060047C0480027C00ECE8
:10549C00C949F9120649D083D08202011474F4125E
:1054AC00196C74E51219158A0A8B0BECFEEDFF755D
:1054BC00F006E9A4F874086F700474228002742159
:1054CC0028F5087C1B7D007900851082851183AA44
:1054DC0082AB8312112F851082851183AC82AD8330
:1054EC007A1BA9081214CBE97024741A121960E003
:1054FC0024F9C3940A5017851082851183AC82ADB0
:10550C0083EEA2E0E433F9AA0AAB0B1205A7741BD5
:10551C0012192B7F04021A3E74F712196C120865CB
:10552C00750800802AE50875F00EA4F8A9F07483BC
:10553C0028FE740739FF7C0679FFEEFAEFFB121197
:10554C009BE97009EEFAEFFB790012086B0508E590
:10555C0008C3940A40CF7F01021A3E74F412196CEE
:10556C0074FB1219158A088B097403121960858251
:10557C000A85830B780A121B7F750A02750B00785B
:10558C000A121B7F750A2A750B83780A121B7F7C03
:10559C00FF7DFF7A017B001206B5740612192B02EF
:1055AC005652E4F50AF50B780A121B7F7404121993
:1055BC006085820A85830B780A121B7F740412198A
:1055CC006085820A85830B780A121B7F7409121975
:1055DC0060121B967902EEFCEFFDAA08AB091207CC
:1055EC00D5740812192BE9703B851082851183E064
:1055FC00FA7401121960E0F9EA2400F50AE439F5AD
:10560C000BEA450B601E780A121B7F8E828F83A3D8
:10561C00A3A3A3E0FCA3E0FDAA08AB0912126D74CE
:10562C000212192BE4F50AF50B780A121B7F74058C
:10563C00121960121B967CFF7DFFEEFAEFFB12062F
:10564C00C1740412192B8A0A8B0BAE0AAF0BEE4FE6
:10565C0060030255AE740512192B7F04021A3EC06A
:10566C0082C0839061907404F0A37448F0A3740218
:10567C00F09061807440F09061BC7403F09061878D
:10568C007419F0906265741BF07900120C0D79029C
:10569C00120C139026ECE493F46006E493F9120BCD
:1056AC00E97905120EEF025FAAC082C083E9540F9C
:1056BC00F9906185E0696012E5C654804449F5C6ED
:1056CC00E59E547F644970F8E9F053C680E59E541A
:1056DC007F70FA025FAA74F712196CE5A8FE53A842
:1056EC007E120BF5C2BA539AFEC289759B00C2C2D8
:1056FC00120BFB75A91175B905120C01D2BA439A9C
:10570C000174805E42A80260C0C082C08390618137
:10571C00E4F0A3025FA775E90075910075BF000264
:10572C000114C082C083906181E4F0A374C0F0A323
:10573C00E4025FA9C082C08374F81219159003C1EA
:10574C00E070030257DCA2E65023790885108285AD
:10575C001183AA82AB83120CFD851082851183AA5A
:10576C0082AB831208D79003C1E0C2E6F0E0A2E757
:10577C005010790C7A6D7B05120CFD9003C1E0C2C0
:10578C00E7F0E0A2E0500879001257E4C2E0F0E044
:10579C00A2E1500879011257E4C2E1F0E0A2E25014
:1057AC000879001257EFC2E2F0E0A2E35008790149
:1057BC001257EFC2E3F0E0A2E4500879021257EF5F
:1057CC00C2E4F0E0A2E5500879031257EFC2E5F00D
:1057DC00740812192B025FAA120C0D1208DD90032B
:1057EC00C1E022120C131208E39003C1E022C08224
:1057FC00C083E96005146019802D90619A7433F0B0
:10580C00A37455F09061A0743AF09003C274618057
:10581C001590619A743FF0A3745AF09061A0747F54
:10582C00F09003C2746AF0025FAAC082C083E96080
:10583C000814600A14600C80139026F480089026DB
:10584C00F580039026F6E493906186F0025FAA74CB
:10585C00F412196C906186E0F8750A00850A0874D8
:10586C00F41265F374261264A8E49368700E7470D5
:10587C00250AF5827482126390F9800B050AE50AF9
:10588C00C3940340D77980025ECD74F112196C7405
:10589C00F4121915851082851183AC82AD83758342
:1058AC00827582BA74041218289026F493F460035B
:1058BC00025A62907808E0C394025003025A427470
:1058CC0004121960AC82AD837583827582347408BE
:1058DC00121828FC7EFF7FFF8E0E7900801874084A
:1058EC006970030259F074096970030259F0740A63
:1058FC006970030259F0890875090074027808125E
:10590C001902125A79121960125A6CC082C0838A19
:10591C00828B8378081217E5740878081216E885CC
:10592C00080C85090D8A828B8378081217E5741888
:10593C0078081216E8E50C4508FAAB0DD083D08236
:10594C00C3E09AA3E09B890874027808403C1219C2
:10595C0002125A79121960125A6CC082C0838A8260
:10596C008B8378081217E58A828B8378081217E5E7
:10597C00741878081216E8E50C4508FAAB0DD083BC
:10598C00D082E0C39AFAA3E0804B121902125A8714
:10599C008A828B8378081217E58A828B83780812A7
:1059AC0017E5741878081216E8E50C4508F508E5B3
:1059BC000DF509ECC333FAE433FB7404121960E5FA
:1059CC00822AF582E5833BF583E0FAA3E0FBE50848
:1059DC00C39AFAE5099BFBC3EA9EEB9F5006EAFECD
:1059EC00EBFF890E09E9C3941350030258EA74FFC4
:1059FC006E700374FF6F6034850E087509007402B5
:105A0C00780812190274481265F374783509F58315
:105A1C0078081217E5C0088C08851082851183E57B
:105A2C00821265F3E5831264A8D0E0F00CECC39409
:105A3C000450030258E07508017509007808121B20
:105A4C007F7402121960AC82AD837ABD7B0912138C
:105A5C005D740212192B740C12192B7F07021A3E5B
:105A6C00E5822508F582E5833509F58322125A87EC
:105A7C00EC33F508E433F50974042274482508FA6C
:105A8C0074783509FB2274F412196C74FC12191514
:105A9C009026F0C0829082C278081217E575832692
:105AAC00D08278081215A06003025B41E5C65480D1
:105ABC004449F5C6E59E547F644970F875E5047554
:105ACC00DA0075DB0C75AF0075E40975E200E5AF23
:105ADC00A2E050FA75E20053C680E59E547F70FA3E
:105AEC0075E400E5E2851082851183F0E5E374012D
:105AFC00121960125B4978081217E57401780812C4
:105B0C0017019082BE78081217BF85108285118309
:105B1C0078081217F47508017509007808121B7FB4
:105B2C007402121960AC82AD837ABC7B0912135DCE
